{
  "contractName": "CrowdDao",
  "abi": [
    {
      "inputs": [],
      "stateMutability": "nonpayable",
      "type": "constructor"
    },
    {
      "anonymous": false,
      "inputs": [
        {
          "indexed": true,
          "internalType": "address",
          "name": "owner",
          "type": "address"
        },
        {
          "indexed": false,
          "internalType": "uint256",
          "name": "time",
          "type": "uint256"
        },
        {
          "indexed": false,
          "internalType": "uint256",
          "name": "payMmount",
          "type": "uint256"
        },
        {
          "indexed": false,
          "internalType": "uint256",
          "name": "acceptAmount",
          "type": "uint256"
        }
      ],
      "name": "Invest",
      "type": "event"
    },
    {
      "anonymous": false,
      "inputs": [
        {
          "indexed": true,
          "internalType": "address",
          "name": "previousOwner",
          "type": "address"
        },
        {
          "indexed": true,
          "internalType": "address",
          "name": "newOwner",
          "type": "address"
        }
      ],
      "name": "OwnershipTransferred",
      "type": "event"
    },
    {
      "inputs": [],
      "name": "crowdToken",
      "outputs": [
        {
          "internalType": "contract IERC20",
          "name": "",
          "type": "address"
        }
      ],
      "stateMutability": "view",
      "type": "function",
      "constant": true
    },
    {
      "inputs": [
        {
          "internalType": "uint256",
          "name": "",
          "type": "uint256"
        }
      ],
      "name": "crowds",
      "outputs": [
        {
          "internalType": "uint256",
          "name": "startT",
          "type": "uint256"
        },
        {
          "internalType": "uint256",
          "name": "endT",
          "type": "uint256"
        },
        {
          "internalType": "uint256",
          "name": "price",
          "type": "uint256"
        },
        {
          "internalType": "uint256",
          "name": "tokenAmount",
          "type": "uint256"
        },
        {
          "internalType": "uint256",
          "name": "totalTokenAmount",
          "type": "uint256"
        },
        {
          "internalType": "uint256",
          "name": "surplusTokenAmount",
          "type": "uint256"
        }
      ],
      "stateMutability": "view",
      "type": "function",
      "constant": true
    },
    {
      "inputs": [],
      "name": "owner",
      "outputs": [
        {
          "internalType": "address",
          "name": "",
          "type": "address"
        }
      ],
      "stateMutability": "view",
      "type": "function",
      "constant": true
    },
    {
      "inputs": [],
      "name": "purchaseToken",
      "outputs": [
        {
          "internalType": "contract IERC20",
          "name": "",
          "type": "address"
        }
      ],
      "stateMutability": "view",
      "type": "function",
      "constant": true
    },
    {
      "inputs": [],
      "name": "renounceOwnership",
      "outputs": [],
      "stateMutability": "nonpayable",
      "type": "function"
    },
    {
      "inputs": [
        {
          "internalType": "address",
          "name": "newOwner",
          "type": "address"
        }
      ],
      "name": "transferOwnership",
      "outputs": [],
      "stateMutability": "nonpayable",
      "type": "function"
    },
    {
      "inputs": [
        {
          "internalType": "address",
          "name": "",
          "type": "address"
        }
      ],
      "name": "users",
      "outputs": [
        {
          "internalType": "uint256",
          "name": "invested",
          "type": "uint256"
        }
      ],
      "stateMutability": "view",
      "type": "function",
      "constant": true
    },
    {
      "inputs": [
        {
          "internalType": "address",
          "name": "_crowdToken",
          "type": "address"
        },
        {
          "internalType": "address",
          "name": "_purchaseToken",
          "type": "address"
        },
        {
          "internalType": "address",
          "name": "_ownerAddress",
          "type": "address"
        }
      ],
      "name": "initialize",
      "outputs": [],
      "stateMutability": "nonpayable",
      "type": "function"
    },
    {
      "inputs": [],
      "name": "getCrowdInfo",
      "outputs": [
        {
          "components": [
            {
              "internalType": "uint256",
              "name": "startT",
              "type": "uint256"
            },
            {
              "internalType": "uint256",
              "name": "endT",
              "type": "uint256"
            },
            {
              "internalType": "uint256",
              "name": "price",
              "type": "uint256"
            },
            {
              "internalType": "uint256",
              "name": "tokenAmount",
              "type": "uint256"
            },
            {
              "internalType": "uint256",
              "name": "totalTokenAmount",
              "type": "uint256"
            },
            {
              "internalType": "uint256",
              "name": "surplusTokenAmount",
              "type": "uint256"
            }
          ],
          "internalType": "struct CrowdDao.Crowd",
          "name": "crowd",
          "type": "tuple"
        },
        {
          "internalType": "bool",
          "name": "isEnd",
          "type": "bool"
        }
      ],
      "stateMutability": "view",
      "type": "function",
      "constant": true
    },
    {
      "inputs": [],
      "name": "getUserInfo",
      "outputs": [
        {
          "components": [
            {
              "internalType": "uint256",
              "name": "invested",
              "type": "uint256"
            }
          ],
          "internalType": "struct CrowdDao.User",
          "name": "",
          "type": "tuple"
        }
      ],
      "stateMutability": "view",
      "type": "function",
      "constant": true
    },
    {
      "inputs": [
        {
          "internalType": "uint256",
          "name": "investAmount",
          "type": "uint256"
        }
      ],
      "name": "invest",
      "outputs": [],
      "stateMutability": "nonpayable",
      "type": "function"
    },
    {
      "inputs": [
        {
          "internalType": "uint256",
          "name": "start",
          "type": "uint256"
        },
        {
          "internalType": "uint256",
          "name": "end",
          "type": "uint256"
        },
        {
          "internalType": "uint256",
          "name": "price",
          "type": "uint256"
        },
        {
          "internalType": "uint256",
          "name": "amount",
          "type": "uint256"
        },
        {
          "internalType": "uint256",
          "name": "total",
          "type": "uint256"
        }
      ],
      "name": "addRoundCrowd",
      "outputs": [],
      "stateMutability": "nonpayable",
      "type": "function"
    },
    {
      "inputs": [
        {
          "internalType": "uint256",
          "name": "amount",
          "type": "uint256"
        }
      ],
      "name": "updateCrowd",
      "outputs": [],
      "stateMutability": "nonpayable",
      "type": "function"
    },
    {
      "inputs": [
        {
          "internalType": "uint256",
          "name": "amount",
          "type": "uint256"
        }
      ],
      "name": "withdraw",
      "outputs": [],
      "stateMutability": "nonpayable",
      "type": "function"
    },
    {
      "inputs": [
        {
          "internalType": "address",
          "name": "newOwner",
          "type": "address"
        }
      ],
      "name": "setNewOwner",
      "outputs": [],
      "stateMutability": "nonpayable",
      "type": "function"
    },
    {
      "inputs": [],
      "name": "getCrowdLength",
      "outputs": [
        {
          "internalType": "uint256",
          "name": "",
          "type": "uint256"
        }
      ],
      "stateMutability": "view",
      "type": "function",
      "constant": true
    }
  ],
  "bytecode": "0x608060405234801561001057600080fd5b5061002161001c610026565b61002a565b610085565b3390565b600080546001600160a01b038381166201000081810262010000600160b01b0319851617855560405193049190911692909183917f8be0079c531659141344cd1fd0a4f28419497f9722a3daafe3b4186f6b6457e091a35050565b611099806100946000396000f3fe608060405234801561001057600080fd5b50600436106101005760003560e01c80639e8d372111610097578063c0c53b8b11610066578063c0c53b8b146101ee578063d83e58ef14610201578063f2fde38b14610214578063f5a1f5b41461022757610100565b80639e8d3721146101ab578063a87430ba146101be578063a95c4d62146101de578063aac19030146101e657610100565b80635d8d1585116100d35780635d8d158514610161578063715018a6146101765780638da5cb5b1461017e57806392ce1e411461018657610100565b80630757dc88146101055780632afcf480146101235780632e1a7d4d14610138578063368df3261461014b575b600080fd5b61010d61023a565b60405161011a9190610e1e565b60405180910390f35b610136610131366004610db4565b610249565b005b610136610146366004610db4565b61048b565b610153610610565b60405161011a929190610fcc565b610169610736565b60405161011a9190611012565b610136610761565b61010d6107ac565b610199610194366004610db4565b6107c1565b60405161011a9695949392919061103b565b6101366101b9366004610de4565b610804565b6101d16101cc366004610d2d565b61096c565b60405161011a919061101c565b61010d61097e565b6101d161098d565b6101366101fc366004610d4f565b610993565b61013661020f366004610db4565b610aa5565b610136610222366004610d2d565b610b62565b610136610235366004610d2d565b610bd3565b6003546001600160a01b031681565b600254806102725760405162461bcd60e51b815260040161026990610ecc565b60405180910390fd5b600480546040517f23b872dd0000000000000000000000000000000000000000000000000000000081526001600160a01b03909116916323b872dd916102be9133913091889101610e32565b602060405180830381600087803b1580156102d857600080fd5b505af11580156102ec573d6000803e3d6000fd5b505050506040513d601f19601f820116820180604052508101906103109190610d94565b5060006002600183038154811061032357fe5b90600052602060002090600602019050600042905081600001548110158015610350575081600101548111155b61036c5760405162461bcd60e51b815260040161026990610f95565b60008260020154836003015486028161038157fe5b6003546040517fa9059cbb0000000000000000000000000000000000000000000000000000000081529290910492506001600160a01b03169063a9059cbb906103d09033908590600401610e56565b602060405180830381600087803b1580156103ea57600080fd5b505af11580156103fe573d6000803e3d6000fd5b505050506040513d601f19601f820116820180604052508101906104229190610d94565b503360008181526001602052604090819020805488018155600586018054859003905590519091907f4df9cbfa66cbbabb528375b3af00207b446225af5a96b8a4b5c413b18226fb959061047b9042908a908790611025565b60405180910390a2505050505050565b610493610c52565b6001600160a01b03166104a46107ac565b6001600160a01b0316146104ca5760405162461bcd60e51b815260040161026990610f60565b600480546040517f70a082310000000000000000000000000000000000000000000000000000000081526000926001600160a01b03909216916370a082319161051591309101610e1e565b60206040518083038186803b15801561052d57600080fd5b505afa158015610541573d6000803e3d6000fd5b505050506040513d601f19601f820116820180604052508101906105659190610dcc565b905081811061060c57600480546040517fa9059cbb0000000000000000000000000000000000000000000000000000000081526001600160a01b039091169163a9059cbb916105b8913391879101610e56565b602060405180830381600087803b1580156105d257600080fd5b505af11580156105e6573d6000803e3d6000fd5b505050506040513d601f19601f8201168201806040525081019061060a9190610d94565b505b5050565b610618610cc7565b600254600090801561068c576002600182038154811061063457fe5b90600052602060002090600602016040518060c0016040529081600082015481526020016001820154815260200160028201548152602001600382015481526020016004820154815260200160058201548152505092505b6003546040517f70a08231000000000000000000000000000000000000000000000000000000008152670de0b6b3a7640000916001600160a01b0316906370a08231906106dd903090600401610e1e565b60206040518083038186803b1580156106f557600080fd5b505afa158015610709573d6000803e3d6000fd5b505050506040513d601f19601f8201168201806040525081019061072d9190610dcc565b11159150509091565b61073e610cfd565b503360009081526001602090815260409182902082519182019092529054815290565b610769610c52565b6001600160a01b031661077a6107ac565b6001600160a01b0316146107a05760405162461bcd60e51b815260040161026990610f60565b6107aa6000610c56565b565b6000546201000090046001600160a01b031690565b600281815481106107ce57fe5b60009182526020909120600690910201805460018201546002830154600384015460048501546005909501549395509193909286565b61080c610c52565b6001600160a01b031661081d6107ac565b6001600160a01b0316146108435760405162461bcd60e51b815260040161026990610f60565b6040805160c081018252958652602086019485528501928352606085019182526080850181815260a086019182526002805460018101825560009190915295517f405787fa12a823e0f2b7631cc41b3ba8828b3321ca811111fa75cd3aa3bb5ace60069097029687015593517f405787fa12a823e0f2b7631cc41b3ba8828b3321ca811111fa75cd3aa3bb5acf86015591517f405787fa12a823e0f2b7631cc41b3ba8828b3321ca811111fa75cd3aa3bb5ad0850155517f405787fa12a823e0f2b7631cc41b3ba8828b3321ca811111fa75cd3aa3bb5ad184015590517f405787fa12a823e0f2b7631cc41b3ba8828b3321ca811111fa75cd3aa3bb5ad2830155517f405787fa12a823e0f2b7631cc41b3ba8828b3321ca811111fa75cd3aa3bb5ad390910155565b60016020526000908152604090205481565b6004546001600160a01b031681565b60025490565b600054610100900460ff16806109ac575060005460ff16155b6109c85760405162461bcd60e51b815260040161026990610f03565b600054610100900460ff16158015610a1157600080547fffffffffffffffffffffffffffffffffffffffffffffffffffffffffffffff0061ff0019909116610100171660011790555b600380546001600160a01b038087167fffffffffffffffffffffffff0000000000000000000000000000000000000000928316179092556004805486841692169190911790556000805491841662010000027fffffffffffffffffffff0000000000000000000000000000000000000000ffff9092169190911790558015610a9f576000805461ff00191690555b50505050565b610aad610c52565b6001600160a01b0316610abe6107ac565b6001600160a01b031614610ae45760405162461bcd60e51b815260040161026990610f60565b60025480610b045760405162461bcd60e51b815260040161026990610ecc565b8160026001830381548110610b1557fe5b9060005260206000209060060201600501600082825401925050819055508160026001830381548110610b4457fe5b60009182526020909120600460069092020101805490910190555050565b610b6a610c52565b6001600160a01b0316610b7b6107ac565b6001600160a01b031614610ba15760405162461bcd60e51b815260040161026990610f60565b6001600160a01b038116610bc75760405162461bcd60e51b815260040161026990610e6f565b610bd081610c56565b50565b610bdb610c52565b6001600160a01b0316610bec6107ac565b6001600160a01b031614610c125760405162461bcd60e51b815260040161026990610f60565b600080546001600160a01b0390921662010000027fffffffffffffffffffff0000000000000000000000000000000000000000ffff909216919091179055565b3390565b600080546001600160a01b03838116620100008181027fffffffffffffffffffff0000000000000000000000000000000000000000ffff851617855560405193049190911692909183917f8be0079c531659141344cd1fd0a4f28419497f9722a3daafe3b4186f6b6457e091a35050565b6040518060c001604052806000815260200160008152602001600081526020016000815260200160008152602001600081525090565b6040518060200160405280600081525090565b80356001600160a01b0381168114610d2757600080fd5b92915050565b600060208284031215610d3e578081fd5b610d488383610d10565b9392505050565b600080600060608486031215610d63578182fd5b610d6d8585610d10565b9250610d7c8560208601610d10565b9150610d8b8560408601610d10565b90509250925092565b600060208284031215610da5578081fd5b81518015158114610d48578182fd5b600060208284031215610dc5578081fd5b5035919050565b600060208284031215610ddd578081fd5b5051919050565b600080600080600060a08688031215610dfb578081fd5b505083359560208501359550604085013594606081013594506080013592509050565b6001600160a01b0391909116815260200190565b6001600160a01b039384168152919092166020820152604081019190915260600190565b6001600160a01b03929092168252602082015260400190565b60208082526026908201527f4f776e61626c653a206e6577206f776e657220697320746865207a65726f206160408201527f6464726573730000000000000000000000000000000000000000000000000000606082015260800190565b60208082526008908201527f6e6f7420696e6974000000000000000000000000000000000000000000000000604082015260600190565b6020808252602e908201527f496e697469616c697a61626c653a20636f6e747261637420697320616c72656160408201527f647920696e697469616c697a6564000000000000000000000000000000000000606082015260800190565b6020808252818101527f4f776e61626c653a2063616c6c6572206973206e6f7420746865206f776e6572604082015260600190565b6020808252600b908201527f6e6f7420696e2074696d65000000000000000000000000000000000000000000604082015260600190565b825181526020808401519082015260408084015190820152606080840151908201526080808401519082015260a09283015192810192909252151560c082015260e00190565b9051815260200190565b90815260200190565b9283526020830191909152604082015260600190565b958652602086019490945260408501929092526060840152608083015260a082015260c0019056fea2646970667358221220798f749c40e03d104d24cd4d6d884b13201fdfeaaea6d636b94840da50351aa364736f6c634300060c0033",
  "immutableReferences": {},
  "source": "pragma solidity >=0.5.0;\n// SPDX-License-Identifier: Unlicensed\npragma experimental ABIEncoderV2;\n\nimport './open/token/ERC20/IERC20.sol';\nimport \"./open/utils/Initializable.sol\";\nimport \"./open/utils/Ownable.sol\";\n\ncontract CrowdDao is Initializable,Ownable {\n\n    struct User{\n        uint invested;          //投资数量\n    }\n\n    mapping(address => User) public users;\n\n    struct Crowd{\n        uint startT;        //开始时间\n        uint endT;          //结束时间\n        uint price;         //价格\n        uint tokenAmount;   //代币数量\n        uint totalTokenAmount;  //总量\n        uint surplusTokenAmount;//剩余总量\n    }\n\n    Crowd[] public crowds;\n\n    IERC20 public crowdToken;\n    IERC20 public purchaseToken;\n\n\n    event Invest(address indexed owner,uint time,uint payMmount,uint acceptAmount);\n\n    constructor () public {}\n\n     function initialize(\n        address _crowdToken,\n        address _purchaseToken,\n        address _ownerAddress\n    ) public initializer {\n        crowdToken = IERC20(_crowdToken);\n        purchaseToken = IERC20(_purchaseToken);\n        _owner = _ownerAddress;\n    }\n\n     \n    function getCrowdInfo()external view returns(\n            Crowd memory crowd,\n            bool isEnd){\n\n        uint len = crowds.length;\n        if( len > 0 ){\n            crowd = crowds[len -1];\n        }\n        isEnd = (crowdToken.balanceOf(address(this)) <= 1e18);\n    }\n\n    function getUserInfo() external view returns(User memory){\n        return users[msg.sender];\n    }\n\n    function invest(uint investAmount) external {\n\n        uint len = crowds.length;\n        require(len > 0,\"not init\");\n\n        purchaseToken.transferFrom(msg.sender,address(this),investAmount);\n\n        Crowd storage crowd = crowds[len -1];\n\n        uint time = block.timestamp;\n        require( time >= crowd.startT && time <= crowd.endT,\"not in time\");\n\n        uint acceptToken = investAmount * crowd.tokenAmount / crowd.price;\n\n        crowdToken.transfer(msg.sender,acceptToken);\n\n        User storage user = users[msg.sender];\n        user.invested += investAmount;\n        \n        crowd.surplusTokenAmount -= acceptToken;\n        \n        emit Invest(msg.sender,block.timestamp,investAmount,acceptToken);\n    }\n\n\n    function addRoundCrowd(uint start,uint end,uint price,uint amount,uint total)external onlyOwner{\n\n        crowds.push( Crowd(\n            start,end,price,amount,total,total\n        ));\n    }\n\n    function updateCrowd(uint amount)external onlyOwner{\n        uint len = crowds.length;\n        require(len > 0,\"not init\");\n        crowds[len - 1].surplusTokenAmount += amount;\n        crowds[len - 1].totalTokenAmount += amount;\n    }\n\n    function withdraw(uint amount) external onlyOwner{\n        uint bal = purchaseToken.balanceOf(address(this));\n\n        if( bal >= amount ){\n            purchaseToken.transfer(msg.sender,amount);\n        }\n    }\n\n    function setNewOwner(address newOwner) external onlyOwner{\n        _owner = newOwner;\n    }\n\n    function getCrowdLength()external view returns(uint){\n        return crowds.length;\n    }\n}",
  "sourcePath": "/Users/jie/Desktop/CC/fist/base/contracts/CrowdDao.sol",
  "compiler": {
    "name": "solc",
    "version": "0.6.12+commit.27d51765.Emscripten.clang"
  },
  "schemaVersion": "3.4.4",
  "updatedAt": "2022-01-17T14:33:37.304Z",
  "networkType": "ethereum",
  "devdoc": {
    "kind": "dev",
    "methods": {
      "owner()": {
        "details": "Returns the address of the current owner."
      },
      "renounceOwnership()": {
        "details": "Leaves the contract without owner. It will not be possible to call `onlyOwner` functions anymore. Can only be called by the current owner. NOTE: Renouncing ownership will leave the contract without an owner, thereby removing any functionality that is only available to the owner."
      },
      "transferOwnership(address)": {
        "details": "Transfers ownership of the contract to a new account (`newOwner`). Can only be called by the current owner."
      }
    },
    "version": 1
  },
  "userdoc": {
    "kind": "user",
    "methods": {},
    "version": 1
  }
}