{
  "contractName": "DepositPool",
  "abi": [
    {
      "inputs": [],
      "stateMutability": "nonpayable",
      "type": "constructor"
    },
    {
      "anonymous": false,
      "inputs": [
        {
          "indexed": true,
          "internalType": "address",
          "name": "user",
          "type": "address"
        },
        {
          "indexed": true,
          "internalType": "uint256",
          "name": "pid",
          "type": "uint256"
        },
        {
          "indexed": false,
          "internalType": "uint256",
          "name": "amount",
          "type": "uint256"
        }
      ],
      "name": "Deposit",
      "type": "event"
    },
    {
      "anonymous": false,
      "inputs": [
        {
          "indexed": true,
          "internalType": "address",
          "name": "previousOwner",
          "type": "address"
        },
        {
          "indexed": true,
          "internalType": "address",
          "name": "newOwner",
          "type": "address"
        }
      ],
      "name": "OwnershipTransferred",
      "type": "event"
    },
    {
      "anonymous": false,
      "inputs": [
        {
          "indexed": true,
          "internalType": "address",
          "name": "user",
          "type": "address"
        },
        {
          "indexed": true,
          "internalType": "uint256",
          "name": "pid",
          "type": "uint256"
        },
        {
          "indexed": false,
          "internalType": "uint256",
          "name": "amount",
          "type": "uint256"
        }
      ],
      "name": "Withdraw",
      "type": "event"
    },
    {
      "inputs": [],
      "name": "mineToken",
      "outputs": [
        {
          "internalType": "contract IERC20",
          "name": "",
          "type": "address"
        }
      ],
      "stateMutability": "view",
      "type": "function"
    },
    {
      "inputs": [],
      "name": "owner",
      "outputs": [
        {
          "internalType": "address",
          "name": "",
          "type": "address"
        }
      ],
      "stateMutability": "view",
      "type": "function"
    },
    {
      "inputs": [
        {
          "internalType": "uint256",
          "name": "",
          "type": "uint256"
        }
      ],
      "name": "poolInfo",
      "outputs": [
        {
          "internalType": "contract IERC20",
          "name": "lpToken",
          "type": "address"
        },
        {
          "internalType": "uint256",
          "name": "cakePerBlock",
          "type": "uint256"
        },
        {
          "internalType": "uint256",
          "name": "lastRewardBlock",
          "type": "uint256"
        },
        {
          "internalType": "uint256",
          "name": "accCakePerShare",
          "type": "uint256"
        },
        {
          "internalType": "uint256",
          "name": "totalHashRate",
          "type": "uint256"
        },
        {
          "internalType": "bool",
          "name": "isBurn",
          "type": "bool"
        },
        {
          "internalType": "uint256",
          "name": "outOutMulriple",
          "type": "uint256"
        }
      ],
      "stateMutability": "view",
      "type": "function"
    },
    {
      "inputs": [],
      "name": "renounceOwnership",
      "outputs": [],
      "stateMutability": "nonpayable",
      "type": "function"
    },
    {
      "inputs": [
        {
          "internalType": "address",
          "name": "newOwner",
          "type": "address"
        }
      ],
      "name": "transferOwnership",
      "outputs": [],
      "stateMutability": "nonpayable",
      "type": "function"
    },
    {
      "inputs": [
        {
          "internalType": "uint256",
          "name": "",
          "type": "uint256"
        },
        {
          "internalType": "address",
          "name": "",
          "type": "address"
        }
      ],
      "name": "userInfo",
      "outputs": [
        {
          "internalType": "uint256",
          "name": "amount",
          "type": "uint256"
        },
        {
          "internalType": "uint256",
          "name": "award",
          "type": "uint256"
        },
        {
          "internalType": "uint256",
          "name": "rewardDebt",
          "type": "uint256"
        },
        {
          "internalType": "uint256",
          "name": "mined",
          "type": "uint256"
        },
        {
          "internalType": "uint256",
          "name": "minedLimit",
          "type": "uint256"
        }
      ],
      "stateMutability": "view",
      "type": "function"
    },
    {
      "inputs": [
        {
          "internalType": "address",
          "name": "_mineToken",
          "type": "address"
        },
        {
          "internalType": "address",
          "name": "owner",
          "type": "address"
        }
      ],
      "name": "initialize",
      "outputs": [],
      "stateMutability": "nonpayable",
      "type": "function"
    },
    {
      "inputs": [
        {
          "internalType": "uint256",
          "name": "_pid",
          "type": "uint256"
        }
      ],
      "name": "getApy",
      "outputs": [
        {
          "internalType": "uint256",
          "name": "",
          "type": "uint256"
        }
      ],
      "stateMutability": "view",
      "type": "function"
    },
    {
      "inputs": [],
      "name": "poolLength",
      "outputs": [
        {
          "internalType": "uint256",
          "name": "",
          "type": "uint256"
        }
      ],
      "stateMutability": "view",
      "type": "function"
    },
    {
      "inputs": [
        {
          "internalType": "contract IERC20",
          "name": "_lpToken",
          "type": "address"
        },
        {
          "internalType": "uint256",
          "name": "_cakePerBlock",
          "type": "uint256"
        },
        {
          "internalType": "bool",
          "name": "_isBurn",
          "type": "bool"
        },
        {
          "internalType": "uint256",
          "name": "_outMulriple",
          "type": "uint256"
        }
      ],
      "name": "add",
      "outputs": [],
      "stateMutability": "nonpayable",
      "type": "function"
    },
    {
      "inputs": [
        {
          "internalType": "address",
          "name": "token",
          "type": "address"
        }
      ],
      "name": "setMineToken",
      "outputs": [],
      "stateMutability": "nonpayable",
      "type": "function"
    },
    {
      "inputs": [
        {
          "internalType": "uint256",
          "name": "_pid",
          "type": "uint256"
        },
        {
          "internalType": "uint256",
          "name": "perBlockAward",
          "type": "uint256"
        }
      ],
      "name": "setCakePerBlock",
      "outputs": [],
      "stateMutability": "nonpayable",
      "type": "function"
    },
    {
      "inputs": [
        {
          "internalType": "uint256",
          "name": "_pid",
          "type": "uint256"
        },
        {
          "internalType": "address",
          "name": "_user",
          "type": "address"
        }
      ],
      "name": "pendingCake",
      "outputs": [
        {
          "internalType": "uint256",
          "name": "",
          "type": "uint256"
        }
      ],
      "stateMutability": "view",
      "type": "function"
    },
    {
      "inputs": [
        {
          "internalType": "uint256",
          "name": "_pid",
          "type": "uint256"
        },
        {
          "internalType": "uint256",
          "name": "_amount",
          "type": "uint256"
        }
      ],
      "name": "deposit",
      "outputs": [],
      "stateMutability": "nonpayable",
      "type": "function"
    },
    {
      "inputs": [
        {
          "internalType": "uint256",
          "name": "_pid",
          "type": "uint256"
        },
        {
          "internalType": "uint256",
          "name": "_amount",
          "type": "uint256"
        }
      ],
      "name": "withdraw",
      "outputs": [],
      "stateMutability": "nonpayable",
      "type": "function"
    },
    {
      "inputs": [
        {
          "internalType": "uint256",
          "name": "_pid",
          "type": "uint256"
        }
      ],
      "name": "draw",
      "outputs": [],
      "stateMutability": "nonpayable",
      "type": "function"
    }
  ],
  "bytecode": "0x608060405234801561001057600080fd5b5061002161001c610026565b61002a565b610085565b3390565b600080546001600160a01b038381166201000081810262010000600160b01b0319851617855560405193049190911692909183917f8be0079c531659141344cd1fd0a4f28419497f9722a3daafe3b4186f6b6457e091a35050565b611b49806100946000396000f3fe608060405234801561001057600080fd5b50600436106101005760003560e01c8063715018a611610097578063a403903911610066578063a403903914610206578063e2bbb15814610219578063e388ae9d1461022c578063f2fde38b1461023f57610100565b8063715018a6146101bf578063775e0273146101c75780638da5cb5b146101da57806393f1a40b146101e257610100565b80633e79c52b116100d35780633e79c52b14610171578063441a3e7014610184578063485cc9551461019757806365b83e5a146101aa57610100565b8063081e3eda146101055780631175a1dd146101235780631526fe27146101365780633b3041471461015c575b600080fd5b61010d610252565b60405161011a9190611a7c565b60405180910390f35b61010d61013136600461169e565b610258565b61014961014436600461166e565b610396565b60405161011a9796959493929190611750565b61016f61016a36600461166e565b6103ef565b005b61010d61017f36600461166e565b610545565b61016f6101923660046116c2565b610609565b61016f6101a536600461157f565b61077c565b6101b2610857565b60405161011a91906116ff565b61016f610866565b61016f6101d53660046116c2565b6108b1565b6101b2610917565b6101f56101f036600461169e565b61092c565b60405161011a959493929190611a85565b61016f6102143660046115d3565b610964565b61016f6102273660046116c2565b610b36565b61016f61023a366004611547565b610ce3565b61016f61024d366004611547565b610d51565b60025490565b6000806002848154811061026857fe5b60009182526020808320878452600380835260408086206001600160a01b038a16875290935291909320600790920290920191820154600483015460028401549394509192909190431180156102bd57508015155b156103175760006102d2856002015443610dc2565b905060006102ed866001015483610dd590919063ffffffff16565b905061031261030b846103058464e8d4a51000610dd5565b90610e0f565b8590610e51565b935050505b6000836001015461034c856002015461034664e8d4a51000610305888a60000154610dd590919063ffffffff16565b90610e76565b60058701549101915060ff16801561036d5750836004015484600301548201115b1561038957836003015484600401540395505050505050610390565b9450505050505b92915050565b600281815481106103a357fe5b600091825260209091206007909102018054600182015460028301546003840154600485015460058601546006909601546001600160a01b0390951696509294919390929160ff169087565b6000600282815481106103fe57fe5b6000918252602080832085845260038252604080852033865290925292206007909102909101915061042f83610eb8565b805415610499576000610464826002015461034664e8d4a5100061030587600301548760000154610dd590919063ffffffff16565b9050801561047757600182018054820190555b600383015482546104929164e8d4a510009161030591610dd5565b6002830155505b6001810154801561053f57600060018301556005830154819060ff16156105335782600401548360030154101561052e57826004015481846003015401111561051957506003820154600480840154845491860154929003916104fb91610e76565b60048086019190915560008085556003850181905590840155610524565b600383018054820190555b61052e3382610f62565b61053d565b61053d3382610f62565b505b50505050565b6000806002838154811061055557fe5b60009182526020909120600790910201600581015490915060ff16156105a257600601547fffffffffffffffffffffffffffffffffffffffffffffffffffffffffffffff9c019050610604565b60006105b682670de0b6b3a7640000610fff565b6004830154909150806105cf5760009350505050610604565b600183015460009082906a08b200a96f8d058a00000002816105ed57fe5b0490508281606402816105fc57fe5b049450505050505b919050565b60006002838154811061061857fe5b600091825260208083208684526003825260408085203386529092529220600560079092029092019081015490925060ff16156106705760405162461bcd60e51b8152600401610667906118e8565b60405180910390fd5b80548311156106915760405162461bcd60e51b8152600401610667906119e8565b61069a84610eb8565b60006106c8826002015461034664e8d4a5100061030587600301548760000154610dd590919063ffffffff16565b905080156106db57600182018054820190555b83156107195781546106ed9085610e76565b825560048301546106fe9085610e76565b60048401558254610719906001600160a01b03163386611229565b600383015482546107349164e8d4a510009161030591610dd5565b6002830155604051859033907ff279e6a1f5e320cca91135676d9cb6e44ca8a08c0b88342bcdb1144f6511b5689061076d908890611a7c565b60405180910390a35050505050565b600054610100900460ff1680610795575060005460ff16155b6107b15760405162461bcd60e51b81526004016106679061188b565b600054610100900460ff161580156107dc576000805460ff1961ff0019909116610100171660011790555b6001805473ffffffffffffffffffffffffffffffffffffffff19166001600160a01b0385811691909117909155600080547fffffffffffffffffffff0000000000000000000000000000000000000000ffff1662010000928516929092029190911790558015610852576000805461ff00191690555b505050565b6001546001600160a01b031681565b61086e6112ac565b6001600160a01b031661087f610917565b6001600160a01b0316146108a55760405162461bcd60e51b81526004016106679061197c565b6108af60006112b0565b565b6108b96112ac565b6001600160a01b03166108ca610917565b6001600160a01b0316146108f05760405162461bcd60e51b81526004016106679061197c565b80600283815481106108fe57fe5b9060005260206000209060070201600101819055505050565b6000546201000090046001600160a01b031690565b600360208181526000938452604080852090915291835291208054600182015460028301549383015460049093015491939092909185565b61096c6112ac565b6001600160a01b031661097d610917565b6001600160a01b0316146109a35760405162461bcd60e51b81526004016106679061197c565b6040805160e0810182526001600160a01b03958616815260208101948552439181019182526000606082018181526080830182815295151560a0840190815260c0840195865260028054600181018255935292517f405787fa12a823e0f2b7631cc41b3ba8828b3321ca811111fa75cd3aa3bb5ace6007909302928301805473ffffffffffffffffffffffffffffffffffffffff1916919099161790975594517f405787fa12a823e0f2b7631cc41b3ba8828b3321ca811111fa75cd3aa3bb5acf86015590517f405787fa12a823e0f2b7631cc41b3ba8828b3321ca811111fa75cd3aa3bb5ad085015593517f405787fa12a823e0f2b7631cc41b3ba8828b3321ca811111fa75cd3aa3bb5ad184015590517f405787fa12a823e0f2b7631cc41b3ba8828b3321ca811111fa75cd3aa3bb5ad283015591517f405787fa12a823e0f2b7631cc41b3ba8828b3321ca811111fa75cd3aa3bb5ad38201805460ff191691151591909117905590517f405787fa12a823e0f2b7631cc41b3ba8828b3321ca811111fa75cd3aa3bb5ad490910155565b600060028381548110610b4557fe5b60009182526020808320868452600382526040808520338652909252922060079091029091019150610b7684610eb8565b805415610c02576000610bab826002015461034664e8d4a5100061030587600301548760000154610dd590919063ffffffff16565b90508015610c0057600583015460ff1615610bf5576000610bcb83611321565b9050808211610bda5781610bdc565b805b91508115610bef57600183018054830190555b50610c00565b600182018054820190555b505b8215610c8157600582015460ff1615610c51578154610c2d906001600160a01b031633600186611353565b60648260060154840281610c3d57fe5b600483018054929091049091019055610c68565b8154610c68906001600160a01b0316333086611353565b8054610c749084610e51565b8155600482018054840190555b60038201548154610c9c9164e8d4a510009161030591610dd5565b6002820155604051849033907f90890809c654f11d6e72a28fa60149770a0d11ec6c92319d6ceb2bb0a4ea1a1590610cd5908790611a7c565b60405180910390a350505050565b610ceb6112ac565b6001600160a01b0316610cfc610917565b6001600160a01b031614610d225760405162461bcd60e51b81526004016106679061197c565b6001805473ffffffffffffffffffffffffffffffffffffffff19166001600160a01b0392909216919091179055565b610d596112ac565b6001600160a01b0316610d6a610917565b6001600160a01b031614610d905760405162461bcd60e51b81526004016106679061197c565b6001600160a01b038116610db65760405162461bcd60e51b8152600401610667906117c0565b610dbf816112b0565b50565b6000610dce8284610e76565b9392505050565b600082610de457506000610390565b82820282848281610df157fe5b0414610dce5760405162461bcd60e51b81526004016106679061191f565b6000610dce83836040518060400160405280601a81526020017f536166654d6174683a206469766973696f6e206279207a65726f000000000000815250611374565b600082820183811015610dce5760405162461bcd60e51b81526004016106679061181d565b6000610dce83836040518060400160405280601e81526020017f536166654d6174683a207375627472616374696f6e206f766572666c6f7700008152506113ab565b600060028281548110610ec757fe5b9060005260206000209060070201905080600201544311610ee85750610dbf565b600481015480610eff575043600290910155610dbf565b6000610f0f836002015443610dc2565b90506000610f2a846001015483610dd590919063ffffffff16565b9050610f4d610f42846103058464e8d4a51000610dd5565b600386015490610e51565b60038501555050436002909201919091555050565b6001546040517fa9059cbb0000000000000000000000000000000000000000000000000000000081526001600160a01b039091169063a9059cbb90610fad9085908590600401611737565b602060405180830381600087803b158015610fc757600080fd5b505af1158015610fdb573d6000803e3d6000fd5b505050506040513d601f19601f8201168201806040525081019061085291906115b7565b60008060008460000160009054906101000a90046001600160a01b03166001600160a01b0316630902f1ac6040518163ffffffff1660e01b815260040160606040518083038186803b15801561105457600080fd5b505afa158015611068573d6000803e3d6000fd5b505050506040513d601f19601f8201168201806040525081019061108c919061161a565b506dffffffffffffffffffffffffffff1691506dffffffffffffffffffffffffffff16915060008560000160009054906101000a90046001600160a01b03166001600160a01b03166318160ddd6040518163ffffffff1660e01b815260040160206040518083038186803b15801561110357600080fd5b505afa158015611117573d6000803e3d6000fd5b505050506040513d601f19601f8201168201806040525081019061113b9190611686565b90506000811161115d5760405162461bcd60e51b815260040161066790611854565b8554604080517f0dfe168100000000000000000000000000000000000000000000000000000000815290516001600160a01b0390921691630dfe168191600480820192602092909190829003018186803b1580156111ba57600080fd5b505afa1580156111ce573d6000803e3d6000fd5b505050506040513d601f19601f820116820180604052508101906111f29190611563565b6001546001600160a01b039081169116141561121e57808584028161121357fe5b049350505050610390565b808583028161121357fe5b6108528363a9059cbb60e01b8484604051602401611248929190611737565b60408051601f198184030181529190526020810180517bffffffffffffffffffffffffffffffffffffffffffffffffffffffff167fffffffff00000000000000000000000000000000000000000000000000000000909316929092179091526113d7565b3390565b600080546001600160a01b03838116620100008181027fffffffffffffffffffff0000000000000000000000000000000000000000ffff851617855560405193049190911692909183917f8be0079c531659141344cd1fd0a4f28419497f9722a3daafe3b4186f6b6457e091a35050565b60008082600101548360030154019050808360040154111561134a576004830154039050610604565b50600092915050565b61053f846323b872dd60e01b85858560405160240161124893929190611713565b600081836113955760405162461bcd60e51b8152600401610667919061178d565b5060008385816113a157fe5b0495945050505050565b600081848411156113cf5760405162461bcd60e51b8152600401610667919061178d565b505050900390565b606061142c826040518060400160405280602081526020017f5361666545524332303a206c6f772d6c6576656c2063616c6c206661696c6564815250856001600160a01b03166114669092919063ffffffff16565b805190915015610852578080602001905181019061144a91906115b7565b6108525760405162461bcd60e51b815260040161066790611a1f565b6060611475848460008561147d565b949350505050565b606061148885611541565b6114a45760405162461bcd60e51b8152600401610667906119b1565b60006060866001600160a01b031685876040516114c191906116e3565b60006040518083038185875af1925050503d80600081146114fe576040519150601f19603f3d011682016040523d82523d6000602084013e611503565b606091505b509150915081156115175791506114759050565b8051156115275780518082602001fd5b8360405162461bcd60e51b8152600401610667919061178d565b3b151590565b600060208284031215611558578081fd5b8135610dce81611ad4565b600060208284031215611574578081fd5b8151610dce81611ad4565b60008060408385031215611591578081fd5b823561159c81611ad4565b915060208301356115ac81611ad4565b809150509250929050565b6000602082840312156115c8578081fd5b8151610dce81611ae9565b600080600080608085870312156115e8578182fd5b84356115f381611ad4565b935060208501359250604085013561160a81611ae9565b9396929550929360600135925050565b60008060006060848603121561162e578283fd5b835161163981611af7565b602085015190935061164a81611af7565b604085015190925063ffffffff81168114611663578182fd5b809150509250925092565b60006020828403121561167f578081fd5b5035919050565b600060208284031215611697578081fd5b5051919050565b600080604083850312156116b0578182fd5b8235915060208301356115ac81611ad4565b600080604083850312156116d4578182fd5b50508035926020909101359150565b600082516116f5818460208701611aa8565b9190910192915050565b6001600160a01b0391909116815260200190565b6001600160a01b039384168152919092166020820152604081019190915260600190565b6001600160a01b03929092168252602082015260400190565b6001600160a01b039790971687526020870195909552604086019390935260608501919091526080840152151560a083015260c082015260e00190565b60006020825282518060208401526117ac816040850160208701611aa8565b601f01601f19169190910160400192915050565b60208082526026908201527f4f776e61626c653a206e6577206f776e657220697320746865207a65726f206160408201527f6464726573730000000000000000000000000000000000000000000000000000606082015260800190565b6020808252601b908201527f536166654d6174683a206164646974696f6e206f766572666c6f770000000000604082015260600190565b60208082526008908201527f6e6f7420696e6974000000000000000000000000000000000000000000000000604082015260600190565b6020808252602e908201527f496e697469616c697a61626c653a20636f6e747261637420697320616c72656160408201527f647920696e697469616c697a6564000000000000000000000000000000000000606082015260800190565b60208082526009908201527f6e6f7420616c6c6f770000000000000000000000000000000000000000000000604082015260600190565b60208082526021908201527f536166654d6174683a206d756c7469706c69636174696f6e206f766572666c6f60408201527f7700000000000000000000000000000000000000000000000000000000000000606082015260800190565b6020808252818101527f4f776e61626c653a2063616c6c6572206973206e6f7420746865206f776e6572604082015260600190565b6020808252601d908201527f416464726573733a2063616c6c20746f206e6f6e2d636f6e7472616374000000604082015260600190565b60208082526012908201527f77697468647261773a206e6f7420676f6f640000000000000000000000000000604082015260600190565b6020808252602a908201527f5361666545524332303a204552433230206f7065726174696f6e20646964206e60408201527f6f74207375636365656400000000000000000000000000000000000000000000606082015260800190565b90815260200190565b948552602085019390935260408401919091526060830152608082015260a00190565b60005b83811015611ac3578181015183820152602001611aab565b8381111561053f5750506000910152565b6001600160a01b0381168114610dbf57600080fd5b8015158114610dbf57600080fd5b6dffffffffffffffffffffffffffff81168114610dbf57600080fdfea2646970667358221220a90789e7317750cf6bd14aa9ded7388790fb710853b66346a17eb7bf237cd2bc64736f6c634300060c0033",
  "immutableReferences": {},
  "source": "// SPDX-License-Identifier: MIT\r\npragma solidity =0.6.12;\r\npragma experimental ABIEncoderV2;\r\n\r\nimport \"../open/utils/SafeMath.sol\";\r\nimport \"../open/utils/Ownable.sol\";\r\nimport \"../open/utils/Initializable.sol\";\r\nimport \"../open/token/ERC20/utils/SafeERC20.sol\";\r\nimport \"../open/token/ERC20/ERC20.sol\";\r\nimport \"../open/token/ERC20/IERC20.sol\";\r\n\r\ninterface IPair {\r\n    function totalSupply() external view returns (uint);\r\n    function getReserves() external view returns (uint112 reserve0, uint112 reserve1, uint32 blockTimestampLast);\r\n    function token0() external view returns (address);\r\n}\r\n\r\ncontract DepositPool is Initializable,Ownable{\r\n    using SafeMath for uint256;\r\n    using SafeERC20 for IERC20;\r\n\r\n    struct UserInfo {\r\n        uint256 amount;     //\r\n        uint256 award;      //\r\n        uint256 rewardDebt;     //\r\n        uint mined;\r\n        uint minedLimit;\r\n    }\r\n\r\n    struct PoolInfo {\r\n        IERC20 lpToken;         //\r\n        uint256 cakePerBlock;   //\r\n        uint256 lastRewardBlock;  //\r\n        uint256 accCakePerShare;    //\r\n        uint256 totalHashRate;      //\r\n        bool isBurn;\r\n        uint256 outOutMulriple;\r\n    }\r\n\r\n    IERC20 public mineToken;    //\r\n\r\n    address constant internal burnAddress = address(0);\r\n\r\n    PoolInfo[] public poolInfo;\r\n\r\n    mapping (uint256 => mapping (address => UserInfo)) public userInfo;\r\n\r\n    event Deposit(address indexed user, uint256 indexed pid, uint256 amount);\r\n    event Withdraw(address indexed user, uint256 indexed pid, uint256 amount);\r\n\r\n    constructor() public {}\r\n\r\n    function initialize(\r\n        address _mineToken,\r\n        address owner\r\n    ) public initializer {\r\n        mineToken = IERC20(_mineToken);\r\n        _owner = owner;\r\n    }\r\n\r\n    function getApy(uint256 _pid)external view returns(uint){\r\n        PoolInfo storage info = poolInfo[_pid];\r\n\r\n        if( info.isBurn ){\r\n            return info.outOutMulriple - 100;\r\n        }else{\r\n             uint worth = _getWorth(info,1e18);\r\n\r\n            uint totalHashRate = info.totalHashRate;\r\n            if( totalHashRate == 0  ) return 0;\r\n\r\n            uint oneYearAward = 1e18 * info.cakePerBlock * 28800 * 365 / totalHashRate;\r\n\r\n            return oneYearAward * 100 / worth;\r\n        }\r\n    }\r\n\r\n    function _getWorth(PoolInfo storage info,uint amount)internal view returns(uint){\r\n\r\n        (uint r0,uint r1,) = IPair(address(info.lpToken)).getReserves();\r\n\r\n        uint supply = IPair(address(info.lpToken)).totalSupply();\r\n\r\n        require(supply > 0 ,\"not init\");\r\n\r\n        if( address(mineToken) == IPair(address(info.lpToken)).token0()){\r\n            return r0 * amount / supply;\r\n        }else{\r\n            return r1 * amount / supply;\r\n        }\r\n    }\r\n\r\n    function poolLength() external view returns (uint256) {\r\n        return poolInfo.length;\r\n    }\r\n\r\n    function add(IERC20 _lpToken, uint256 _cakePerBlock,bool _isBurn,uint _outMulriple) public onlyOwner {\r\n        poolInfo.push(PoolInfo(\r\n            _lpToken,\r\n            _cakePerBlock,\r\n            block.number,\r\n            0,0,_isBurn,_outMulriple\r\n        ));\r\n    }\r\n\r\n    function setMineToken(address token)external onlyOwner{\r\n        mineToken = IERC20(token);\r\n    }\r\n\r\n    function setCakePerBlock(uint _pid,uint perBlockAward) external onlyOwner{\r\n        poolInfo[_pid].cakePerBlock = perBlockAward;\r\n    }\r\n\r\n    function getMultiplier(uint256 _from, uint256 _to) internal pure returns (uint256) {\r\n        return _to.sub(_from);\r\n    }\r\n\r\n    function pendingCake(uint256 _pid, address _user) external view returns (uint256) {\r\n        PoolInfo storage pool = poolInfo[_pid];\r\n        UserInfo storage user = userInfo[_pid][_user];\r\n\r\n        uint256 accCakePerShare = pool.accCakePerShare;\r\n        uint256 lpSupply = pool.totalHashRate;\r\n\r\n        if (block.number > pool.lastRewardBlock && lpSupply != 0) {\r\n\r\n            uint256 multiplier = getMultiplier(pool.lastRewardBlock, block.number);\r\n\r\n            uint256 cakeReward = multiplier.mul(pool.cakePerBlock);\r\n            accCakePerShare = accCakePerShare.add(cakeReward.mul(1e12).div(lpSupply));\r\n        }\r\n        uint award = user.amount.mul(accCakePerShare).div(1e12).sub(user.rewardDebt) + user.award;\r\n\r\n        if( pool.isBurn && award + user.mined > user.minedLimit ){\r\n            return user.minedLimit - user.mined;\r\n        }\r\n        return award;\r\n    }\r\n\r\n    function updatePool(uint256 _pid) internal {\r\n        PoolInfo storage pool = poolInfo[_pid];\r\n        if (block.number <= pool.lastRewardBlock) {\r\n            return;\r\n        }\r\n        uint256 lpSupply = pool.totalHashRate;\r\n        if (lpSupply == 0) {\r\n            pool.lastRewardBlock = block.number;\r\n            return;\r\n        }\r\n        uint256 multiplier = getMultiplier(pool.lastRewardBlock, block.number);\r\n        uint256 cakeReward = multiplier.mul(pool.cakePerBlock);\r\n\r\n        pool.accCakePerShare = pool.accCakePerShare.add(cakeReward.mul(1e12).div(lpSupply));\r\n        pool.lastRewardBlock = block.number;\r\n    }\r\n\r\n    function deposit(uint256 _pid, uint256 _amount) public {\r\n\r\n        PoolInfo storage pool = poolInfo[_pid];\r\n        UserInfo storage user = userInfo[_pid][msg.sender];\r\n        updatePool(_pid);\r\n\r\n        if (user.amount > 0) {\r\n            uint256 pending = user.amount.mul(pool.accCakePerShare).div(1e12).sub(user.rewardDebt);\r\n            if(pending > 0) {\r\n\r\n                if( pool.isBurn ){\r\n                    uint limit = getSurplusLimit(user);\r\n                    pending = pending > limit ? limit : pending;\r\n                    if( pending > 0 ){\r\n                        user.award += pending;\r\n                    }\r\n                }else{\r\n                    user.award += pending;\r\n                }\r\n                \r\n            }\r\n        }\r\n\r\n        if (_amount > 0) {\r\n            if( pool.isBurn ){\r\n                pool.lpToken.safeTransferFrom(address(msg.sender), address(1), _amount);\r\n                user.minedLimit += _amount * pool.outOutMulriple / 100;\r\n            }else{\r\n                pool.lpToken.safeTransferFrom(address(msg.sender), address(this), _amount);\r\n            }\r\n            \r\n            user.amount = user.amount.add(_amount);\r\n            pool.totalHashRate += _amount;\r\n            \r\n        }\r\n        user.rewardDebt = user.amount.mul(pool.accCakePerShare).div(1e12);\r\n        emit Deposit(msg.sender, _pid, _amount);\r\n    }\r\n\r\n    function withdraw(uint256 _pid, uint256 _amount) public {\r\n\r\n        PoolInfo storage pool = poolInfo[_pid];\r\n        UserInfo storage user = userInfo[_pid][msg.sender];\r\n\r\n        require(!pool.isBurn ,\"not allow\");\r\n\r\n        require(user.amount >= _amount, \"withdraw: not good\");\r\n\r\n        updatePool(_pid);\r\n\r\n        uint256 pending = user.amount.mul(pool.accCakePerShare).div(1e12).sub(user.rewardDebt);\r\n        if(pending > 0) {\r\n            user.award += pending;\r\n        }\r\n\r\n        if(_amount > 0) {\r\n            user.amount = user.amount.sub(_amount);\r\n            pool.totalHashRate = pool.totalHashRate.sub((_amount));\r\n            pool.lpToken.safeTransfer(address(msg.sender), _amount);\r\n        }\r\n\r\n        user.rewardDebt = user.amount.mul(pool.accCakePerShare).div(1e12);\r\n        emit Withdraw(msg.sender, _pid, _amount);\r\n    }\r\n\r\n    function getSurplusLimit(UserInfo storage user)internal view returns(uint){\r\n        uint mined = user.mined + user.award;\r\n\r\n        if( user.minedLimit > mined ){\r\n            return user.minedLimit - mined;\r\n        }\r\n        return 0;\r\n    }\r\n\r\n    function draw(uint256 _pid)external{\r\n\r\n        PoolInfo storage pool = poolInfo[_pid];\r\n        UserInfo storage user = userInfo[_pid][msg.sender];\r\n\r\n        updatePool(_pid);\r\n\r\n        if(user.amount > 0) {\r\n\r\n            uint256 pending = user.amount.mul(pool.accCakePerShare).div(1e12).sub(user.rewardDebt);\r\n\r\n            if( pending > 0){\r\n                user.award += pending;\r\n            }\r\n\r\n            user.rewardDebt = user.amount.mul(pool.accCakePerShare).div(1e12);\r\n        }\r\n\r\n        uint v = user.award;\r\n\r\n        if( v > 0 ){\r\n            user.award = 0;\r\n\r\n            uint amount = v;\r\n\r\n            if( pool.isBurn ){\r\n                if( user.mined < user.minedLimit ){\r\n\r\n                    if( user.mined + amount > user.minedLimit){\r\n                        amount = user.minedLimit - user.mined;\r\n\r\n                        pool.totalHashRate = pool.totalHashRate.sub((user.amount));\r\n                        user.amount = 0;\r\n                        user.mined = 0;\r\n                        user.minedLimit = 0;\r\n                    }else{\r\n                        user.mined += amount;\r\n                    }\r\n                    safeCakeTransfer(msg.sender, amount);\r\n                }\r\n            }else{\r\n                safeCakeTransfer(msg.sender, amount);\r\n            }\r\n        }\r\n    }\r\n    function safeCakeTransfer(address _to, uint256 _amount) internal {\r\n        mineToken.transfer(_to, _amount);\r\n    }\r\n}",
  "sourcePath": "/Users/jie/Desktop/CC/fist/base/contracts/pools/DepositPool.sol",
  "compiler": {
    "name": "solc",
    "version": "0.6.12+commit.27d51765.Emscripten.clang"
  },
  "schemaVersion": "3.4.4",
  "updatedAt": "2022-01-17T14:32:43.577Z",
  "devdoc": {
    "kind": "dev",
    "methods": {
      "owner()": {
        "details": "Returns the address of the current owner."
      },
      "renounceOwnership()": {
        "details": "Leaves the contract without owner. It will not be possible to call `onlyOwner` functions anymore. Can only be called by the current owner. NOTE: Renouncing ownership will leave the contract without an owner, thereby removing any functionality that is only available to the owner."
      },
      "transferOwnership(address)": {
        "details": "Transfers ownership of the contract to a new account (`newOwner`). Can only be called by the current owner."
      }
    },
    "version": 1
  },
  "userdoc": {
    "kind": "user",
    "methods": {},
    "version": 1
  }
}