{
  "contractName": "FishToken",
  "abi": [
    {
      "inputs": [
        {
          "internalType": "uint256",
          "name": "_supply",
          "type": "uint256"
        },
        {
          "internalType": "address",
          "name": "_holder",
          "type": "address"
        },
        {
          "internalType": "address",
          "name": "_ownerAddress",
          "type": "address"
        }
      ],
      "stateMutability": "nonpayable",
      "type": "constructor"
    },
    {
      "anonymous": false,
      "inputs": [
        {
          "indexed": true,
          "internalType": "address",
          "name": "owner",
          "type": "address"
        },
        {
          "indexed": true,
          "internalType": "address",
          "name": "spender",
          "type": "address"
        },
        {
          "indexed": false,
          "internalType": "uint256",
          "name": "value",
          "type": "uint256"
        }
      ],
      "name": "Approval",
      "type": "event"
    },
    {
      "anonymous": false,
      "inputs": [
        {
          "indexed": true,
          "internalType": "address",
          "name": "from",
          "type": "address"
        },
        {
          "indexed": true,
          "internalType": "address",
          "name": "to",
          "type": "address"
        },
        {
          "indexed": false,
          "internalType": "uint256",
          "name": "value",
          "type": "uint256"
        }
      ],
      "name": "Transfer",
      "type": "event"
    },
    {
      "inputs": [],
      "name": "_owner",
      "outputs": [
        {
          "internalType": "address",
          "name": "",
          "type": "address"
        }
      ],
      "stateMutability": "view",
      "type": "function"
    },
    {
      "inputs": [],
      "name": "burnAddress",
      "outputs": [
        {
          "internalType": "address",
          "name": "",
          "type": "address"
        }
      ],
      "stateMutability": "view",
      "type": "function"
    },
    {
      "inputs": [],
      "name": "burnRate",
      "outputs": [
        {
          "internalType": "uint256",
          "name": "",
          "type": "uint256"
        }
      ],
      "stateMutability": "view",
      "type": "function"
    },
    {
      "inputs": [
        {
          "internalType": "address",
          "name": "",
          "type": "address"
        }
      ],
      "name": "isInWhiteList",
      "outputs": [
        {
          "internalType": "bool",
          "name": "",
          "type": "bool"
        }
      ],
      "stateMutability": "view",
      "type": "function"
    },
    {
      "inputs": [],
      "name": "isStartSwapSell",
      "outputs": [
        {
          "internalType": "bool",
          "name": "",
          "type": "bool"
        }
      ],
      "stateMutability": "view",
      "type": "function"
    },
    {
      "inputs": [],
      "name": "uniswapV2Pair",
      "outputs": [
        {
          "internalType": "address",
          "name": "",
          "type": "address"
        }
      ],
      "stateMutability": "view",
      "type": "function"
    },
    {
      "inputs": [
        {
          "internalType": "address",
          "name": "owner",
          "type": "address"
        },
        {
          "internalType": "bool",
          "name": "isIn",
          "type": "bool"
        }
      ],
      "name": "setInWhite",
      "outputs": [],
      "stateMutability": "nonpayable",
      "type": "function"
    },
    {
      "inputs": [
        {
          "internalType": "uint256",
          "name": "_rate",
          "type": "uint256"
        }
      ],
      "name": "setBurnRate",
      "outputs": [],
      "stateMutability": "nonpayable",
      "type": "function"
    },
    {
      "inputs": [
        {
          "internalType": "address",
          "name": "pair",
          "type": "address"
        }
      ],
      "name": "setPair",
      "outputs": [],
      "stateMutability": "nonpayable",
      "type": "function"
    },
    {
      "inputs": [
        {
          "internalType": "bool",
          "name": "isStart",
          "type": "bool"
        }
      ],
      "name": "startSwapSell",
      "outputs": [],
      "stateMutability": "nonpayable",
      "type": "function"
    },
    {
      "inputs": [
        {
          "internalType": "address",
          "name": "newO",
          "type": "address"
        }
      ],
      "name": "transferOwner",
      "outputs": [],
      "stateMutability": "nonpayable",
      "type": "function"
    },
    {
      "inputs": [],
      "name": "name",
      "outputs": [
        {
          "internalType": "string",
          "name": "",
          "type": "string"
        }
      ],
      "stateMutability": "view",
      "type": "function"
    },
    {
      "inputs": [],
      "name": "symbol",
      "outputs": [
        {
          "internalType": "string",
          "name": "",
          "type": "string"
        }
      ],
      "stateMutability": "view",
      "type": "function"
    },
    {
      "inputs": [],
      "name": "decimals",
      "outputs": [
        {
          "internalType": "uint256",
          "name": "",
          "type": "uint256"
        }
      ],
      "stateMutability": "view",
      "type": "function"
    },
    {
      "inputs": [],
      "name": "totalSupply",
      "outputs": [
        {
          "internalType": "uint256",
          "name": "",
          "type": "uint256"
        }
      ],
      "stateMutability": "view",
      "type": "function"
    },
    {
      "inputs": [
        {
          "internalType": "address",
          "name": "account",
          "type": "address"
        }
      ],
      "name": "balanceOf",
      "outputs": [
        {
          "internalType": "uint256",
          "name": "",
          "type": "uint256"
        }
      ],
      "stateMutability": "view",
      "type": "function"
    },
    {
      "inputs": [
        {
          "internalType": "address",
          "name": "recipient",
          "type": "address"
        },
        {
          "internalType": "uint256",
          "name": "amount",
          "type": "uint256"
        }
      ],
      "name": "transfer",
      "outputs": [
        {
          "internalType": "bool",
          "name": "",
          "type": "bool"
        }
      ],
      "stateMutability": "nonpayable",
      "type": "function"
    },
    {
      "inputs": [
        {
          "internalType": "address",
          "name": "owner",
          "type": "address"
        },
        {
          "internalType": "address",
          "name": "spender",
          "type": "address"
        }
      ],
      "name": "allowance",
      "outputs": [
        {
          "internalType": "uint256",
          "name": "",
          "type": "uint256"
        }
      ],
      "stateMutability": "view",
      "type": "function"
    },
    {
      "inputs": [
        {
          "internalType": "address",
          "name": "spender",
          "type": "address"
        },
        {
          "internalType": "uint256",
          "name": "amount",
          "type": "uint256"
        }
      ],
      "name": "approve",
      "outputs": [
        {
          "internalType": "bool",
          "name": "",
          "type": "bool"
        }
      ],
      "stateMutability": "nonpayable",
      "type": "function"
    },
    {
      "inputs": [
        {
          "internalType": "address",
          "name": "sender",
          "type": "address"
        },
        {
          "internalType": "address",
          "name": "recipient",
          "type": "address"
        },
        {
          "internalType": "uint256",
          "name": "amount",
          "type": "uint256"
        }
      ],
      "name": "transferFrom",
      "outputs": [
        {
          "internalType": "bool",
          "name": "",
          "type": "bool"
        }
      ],
      "stateMutability": "nonpayable",
      "type": "function"
    },
    {
      "inputs": [
        {
          "internalType": "address",
          "name": "spender",
          "type": "address"
        },
        {
          "internalType": "uint256",
          "name": "addedValue",
          "type": "uint256"
        }
      ],
      "name": "increaseAllowance",
      "outputs": [
        {
          "internalType": "bool",
          "name": "",
          "type": "bool"
        }
      ],
      "stateMutability": "nonpayable",
      "type": "function"
    },
    {
      "inputs": [
        {
          "internalType": "address",
          "name": "spender",
          "type": "address"
        },
        {
          "internalType": "uint256",
          "name": "subtractedValue",
          "type": "uint256"
        }
      ],
      "name": "decreaseAllowance",
      "outputs": [
        {
          "internalType": "bool",
          "name": "",
          "type": "bool"
        }
      ],
      "stateMutability": "nonpayable",
      "type": "function"
    }
  ],
  "bytecode": "0x608060405260326007556008805460ff60a01b1916905534801561002257600080fd5b50604051620011cd380380620011cd8339818101604052606081101561004757600080fd5b50805160208083015160409384015160126004908155670de0b6b3a7640000850260055585518087019096528086526308c92a6960e31b9590930194855292939092916100969160029161014f565b506040805180820190915260048082526308c92a6960e31b60209092019182526100c29160039161014f565b506001600160a01b0382166000818152600960209081526040808320805460ff19166001179055600554838352818420819055815190815290517fddf252ad1be2c89b69c2b068fc378daa952ba7f163c4a11628f55a4df523b3ef929181900390910190a3600680546001600160a01b0319166001600160a01b0392909216919091179055506101e29050565b828054600181600116156101000203166002900490600052602060002090601f016020900481019282601f1061019057805160ff19168380011785556101bd565b828001600101855582156101bd579182015b828111156101bd5782518255916020019190600101906101a2565b506101c99291506101cd565b5090565b5b808211156101c957600081556001016101ce565b610fdb80620001f26000396000f3fe608060405234801561001057600080fd5b50600436106101825760003560e01c806366b020ac116100d857806396bfc2291161008c578063b2bdfa7b11610066578063b2bdfa7b14610460578063bed9985014610468578063dd62ed3e1461047057610182565b806396bfc229146103e2578063a457c2d714610408578063a9059cbb1461043457610182565b806370d5ae05116100bd57806370d5ae05146103ac5780638187f516146103b457806395d89b41146103da57610182565b806366b020ac1461037e57806370a082311461038657610182565b80632723b37b1161013a5780633950935111610114578063395093511461030857806349bd5a5e146103345780634fb2e45d1461035857610182565b80632723b37b146102b35780632dc856f7146102e1578063313ce5671461030057610182565b806318160ddd1161016b57806318160ddd14610244578063189d165e1461025e57806323b872dd1461027d57610182565b806306fdde0314610187578063095ea7b314610204575b600080fd5b61018f61049e565b6040805160208082528351818301528351919283929083019185019080838360005b838110156101c95781810151838201526020016101b1565b50505050905090810190601f1680156101f65780820380516001836020036101000a031916815260200191505b509250505060405180910390f35b6102306004803603604081101561021a57600080fd5b506001600160a01b038135169060200135610531565b604080519115158252519081900360200190f35b61024c610547565b60408051918252519081900360200190f35b61027b6004803603602081101561027457600080fd5b503561054d565b005b6102306004803603606081101561029357600080fd5b506001600160a01b0381358116916020810135909116906040013561059f565b61027b600480360360408110156102c957600080fd5b506001600160a01b0381351690602001351515610610565b61027b600480360360208110156102f757600080fd5b503515156106a6565b61024c61073d565b6102306004803603604081101561031e57600080fd5b506001600160a01b038135169060200135610743565b61033c610779565b604080516001600160a01b039092168252519081900360200190f35b61027b6004803603602081101561036e57600080fd5b50356001600160a01b0316610788565b61023061080f565b61024c6004803603602081101561039c57600080fd5b50356001600160a01b0316610830565b61033c61084b565b61027b600480360360208110156103ca57600080fd5b50356001600160a01b0316610850565b61018f6108d7565b610230600480360360208110156103f857600080fd5b50356001600160a01b0316610938565b6102306004803603604081101561041e57600080fd5b506001600160a01b03813516906020013561094d565b6102306004803603604081101561044a57600080fd5b506001600160a01b03813516906020013561099c565b61033c6109a9565b61024c6109b8565b61024c6004803603604081101561048657600080fd5b506001600160a01b03813581169160200135166109be565b60028054604080516020601f60001961010060018716150201909416859004938401819004810282018101909252828152606093909290918301828280156105275780601f106104fc57610100808354040283529160200191610527565b820191906000526020600020905b81548152906001019060200180831161050a57829003601f168201915b5050505050905090565b600061053e3384846109e9565b50600192915050565b60055490565b6006546001600160a01b0316331461059a576040805162461bcd60e51b815260206004820152600b60248201526a61646d696e3a207775743f60a81b604482015290519081900360640190fd5b600755565b60006105ac848484610ad5565b6000339050610605858261060086604051806060016040528060288152602001610ee7602891396001600160a01b03808c166000908152600160209081526040808320938b16835292905220549190610d8a565b6109e9565b506001949350505050565b6006546001600160a01b0316331461065d576040805162461bcd60e51b815260206004820152600b60248201526a61646d696e3a207775743f60a81b604482015290519081900360640190fd5b6001600160a01b0391909116600090815260096020526040902080547fffffffffffffffffffffffffffffffffffffffffffffffffffffffffffffff0016911515919091179055565b6006546001600160a01b031633146106f3576040805162461bcd60e51b815260206004820152600b60248201526a61646d696e3a207775743f60a81b604482015290519081900360640190fd5b6008805491151574010000000000000000000000000000000000000000027fffffffffffffffffffffff00ffffffffffffffffffffffffffffffffffffffff909216919091179055565b60045490565b3360008181526001602090815260408083206001600160a01b0387168452909152812054909161053e9185906106009086610e21565b6008546001600160a01b031681565b6006546001600160a01b031633146107d5576040805162461bcd60e51b815260206004820152600b60248201526a61646d696e3a207775743f60a81b604482015290519081900360640190fd5b600680547fffffffffffffffffffffffff0000000000000000000000000000000000000000166001600160a01b0392909216919091179055565b60085474010000000000000000000000000000000000000000900460ff1681565b6001600160a01b031660009081526020819052604090205490565b600081565b6006546001600160a01b0316331461089d576040805162461bcd60e51b815260206004820152600b60248201526a61646d696e3a207775743f60a81b604482015290519081900360640190fd5b600880547fffffffffffffffffffffffff0000000000000000000000000000000000000000166001600160a01b0392909216919091179055565b60038054604080516020601f60026000196101006001881615020190951694909404938401819004810282018101909252828152606093909290918301828280156105275780601f106104fc57610100808354040283529160200191610527565b60096020526000908152604090205460ff1681565b600061053e338461060085604051806060016040528060258152602001610f81602591393360009081526001602090815260408083206001600160a01b038d1684529091529020549190610d8a565b600061053e338484610ad5565b6006546001600160a01b031681565b60075481565b6001600160a01b03918216600090815260016020908152604080832093909416825291909152205490565b6001600160a01b038316610a2e5760405162461bcd60e51b8152600401808060200182810382526024815260200180610f5d6024913960400191505060405180910390fd5b6001600160a01b038216610a735760405162461bcd60e51b8152600401808060200182810382526022815260200180610ec56022913960400191505060405180910390fd5b6001600160a01b03808416600081815260016020908152604080832094871680845294825291829020859055815185815291517f8c5be1e5ebec7d5bd14f71427d1e84f3dd0314c0f7b2291e5b200ac8c7c3b9259281900390910190a3505050565b6001600160a01b038316610b1a5760405162461bcd60e51b8152600401808060200182810382526025815260200180610f386025913960400191505060405180910390fd5b60008111610b595760405162461bcd60e51b8152600401808060200182810382526029815260200180610f0f6029913960400191505060405180910390fd5b60085481906001600160a01b031615801590610b8257506008546001600160a01b038481169116145b15610cdd576001600160a01b03841660009081526009602052604090205460ff16610cdd5760085474010000000000000000000000000000000000000000900460ff16610c16576040805162461bcd60e51b815260206004820152601360248201527f6e6f7420737461727420737761702073656c6c00000000000000000000000000604482015290519081900360640190fd5b60075415610cdd5760006064600754840281610c2e57fe5b60008080526020527fad3228b676f7d3cd4284a5443f17f1962b36e491b30a40b2405849e597ba5fb55491900492839003929150610c6c9082610e21565b600080805260208181527fad3228b676f7d3cd4284a5443f17f1962b36e491b30a40b2405849e597ba5fb59290925560408051848152905191926001600160a01b038916927fddf252ad1be2c89b69c2b068fc378daa952ba7f163c4a11628f55a4df523b3ef9281900390910190a3505b6001600160a01b038416600090815260208190526040902054610d009083610e82565b6001600160a01b038086166000908152602081905260408082209390935590851681522054610d2f9082610e21565b6001600160a01b038085166000818152602081815260409182902094909455805185815290519193928816927fddf252ad1be2c89b69c2b068fc378daa952ba7f163c4a11628f55a4df523b3ef92918290030190a350505050565b60008184841115610e195760405162461bcd60e51b81526004018080602001828103825283818151815260200191508051906020019080838360005b83811015610dde578181015183820152602001610dc6565b50505050905090810190601f168015610e0b5780820380516001836020036101000a031916815260200191505b509250505060405180910390fd5b505050900390565b600082820183811015610e7b576040805162461bcd60e51b815260206004820152601b60248201527f536166654d6174683a206164646974696f6e206f766572666c6f770000000000604482015290519081900360640190fd5b9392505050565b6000610e7b83836040518060400160405280601e81526020017f536166654d6174683a207375627472616374696f6e206f766572666c6f770000815250610d8a56fe45524332303a20617070726f766520746f20746865207a65726f206164647265737345524332303a207472616e7366657220616d6f756e74206578636565647320616c6c6f77616e63655472616e7366657220616d6f756e74206d7573742062652067726561746572207468616e207a65726f45524332303a207472616e736665722066726f6d20746865207a65726f206164647265737345524332303a20617070726f76652066726f6d20746865207a65726f206164647265737345524332303a2064656372656173656420616c6c6f77616e63652062656c6f77207a65726fa2646970667358221220142113a5fc80f9e84590ff3ca78ccbf9d1b8d2ac2ad78917d36cb26aca52b4b064736f6c634300060c0033",
  "immutableReferences": {},
  "source": "pragma solidity >=0.5.0;\n// SPDX-License-Identifier: Unlicensed\n\nimport '../lib/SafeMath.sol';\nimport '../open/token/ERC20/IERC20.sol';\n\ncontract FishToken is IERC20 {\n    using SafeMath for uint256;\n\n    mapping (address => uint256) internal _tOwned;\n    mapping (address => mapping (address => uint256)) internal _allowances;\n\n    string internal _name; \n    string internal _symbol;\n    uint256 internal _decimals;\n    uint256 internal _tTotal;\n    \n    address public _owner;\n    uint public burnRate = 50;\n    address public uniswapV2Pair;\n    address constant public burnAddress = address(0x0);\n\n    bool public isStartSwapSell = false;\n\n    mapping(address => bool) public isInWhiteList;\n\n    modifier onlyOwner() {\n        require(msg.sender == _owner, \"admin: wut?\");\n        _;\n    }\n    \n    constructor (\n        uint256 _supply,\n        address _holder,\n        address _ownerAddress\n    ) public {\n        _decimals = 18;\n        _tTotal = _supply * 10 ** _decimals;\n        _name = \"FISH\";\n        _symbol = \"FISH\";\n        isInWhiteList[_holder] = true;\n        _tOwned[_holder] = _tTotal;\n        emit Transfer(address(0), _holder, _tTotal);\n        _owner = _ownerAddress;\n    }\n\n    function setInWhite(address owner,bool isIn) external onlyOwner{\n        isInWhiteList[owner] = isIn;\n    }\n\n    function setBurnRate(uint _rate) external  onlyOwner{\n        burnRate = _rate;\n    }\n\n    function setPair(address pair) external  onlyOwner{\n        uniswapV2Pair = pair;\n    }\n\n    function startSwapSell(bool isStart)external onlyOwner{\n        isStartSwapSell = isStart;\n    }\n\n    function transferOwner(address newO)external  onlyOwner{\n        _owner = newO;\n    }\n  \n    function name() public  view returns (string memory) {\n        return _name;\n    }\n\n    function symbol() public  view returns (string memory) {\n        return _symbol;\n    }\n\n    function decimals() public  view returns (uint256) {\n        return _decimals;\n    }\n\n    function totalSupply() public view override returns (uint256) {\n        return _tTotal;\n    }\n\n    function balanceOf(address account) public view override returns (uint256) {\n         return _tOwned[account];\n    }\n\n    function transfer(address recipient, uint256 amount) public override returns (bool) {\n        _transfer(msg.sender, recipient, amount);\n        return true;\n    }\n\n    function allowance(address owner, address spender) public view override returns (uint256) {\n        return _allowances[owner][spender];\n    }\n\n    function approve(address spender, uint256 amount) public override returns (bool) {\n        _approve(msg.sender, spender, amount);\n        return true;\n    }\n\n    function transferFrom(address sender, address recipient, uint256 amount) public override returns (bool) {\n        _transfer(sender, recipient, amount);\n\n        address msgSender = msg.sender;\n        _approve(sender, msgSender, _allowances[sender][msgSender].sub(amount, \"ERC20: transfer amount exceeds allowance\"));\n        return true;\n    }\n\n    function increaseAllowance(address spender, uint256 addedValue) public  returns (bool) {\n        _approve(msg.sender, spender, _allowances[msg.sender][spender].add(addedValue));\n        return true;\n    }\n\n    function decreaseAllowance(address spender, uint256 subtractedValue) public  returns (bool) {\n        _approve(msg.sender, spender, _allowances[msg.sender][spender].sub(subtractedValue, \"ERC20: decreased allowance below zero\"));\n        return true;\n    }\n\n\n    function _approve(address owner, address spender, uint256 amount) private {\n        require(owner != address(0), \"ERC20: approve from the zero address\");\n        require(spender != address(0), \"ERC20: approve to the zero address\");\n\n        _allowances[owner][spender] = amount;\n        emit Approval(owner, spender, amount);\n    }\n\n    function _transfer(\n        address from,\n        address to,\n        uint256 amount\n    ) private {\n        require(from != address(0), \"ERC20: transfer from the zero address\");\n\n        require(amount > 0, \"Transfer amount must be greater than zero\");\n\n        uint acceptAmount = amount;\n\n        if( uniswapV2Pair != address(0) && to == uniswapV2Pair  ){\n\n            if( !isInWhiteList[from] ){\n                require(isStartSwapSell ,\"not start swap sell\");\n\n                if( burnRate > 0 ){\n                    uint fee = amount * burnRate / 100;\n                    acceptAmount -= fee;\n                    _tOwned[burnAddress] = _tOwned[burnAddress].add(fee);\n                    emit Transfer(from, burnAddress, fee);\n                }\n            }\n        }       \n\n        _tOwned[from] = _tOwned[from].sub(amount);\n        _tOwned[to] = _tOwned[to].add(acceptAmount);\n        emit Transfer(from, to, acceptAmount);\n    }\n}",
  "sourcePath": "/Users/jie/Desktop/CC/fist/base/contracts/token/FishToken.sol",
  "compiler": {
    "name": "solc",
    "version": "0.6.12+commit.27d51765.Emscripten.clang"
  },
  "schemaVersion": "3.4.4",
  "updatedAt": "2022-01-17T14:32:43.621Z",
  "devdoc": {
    "kind": "dev",
    "methods": {
      "allowance(address,address)": {
        "details": "Returns the remaining number of tokens that `spender` will be allowed to spend on behalf of `owner` through {transferFrom}. This is zero by default. This value changes when {approve} or {transferFrom} are called."
      },
      "approve(address,uint256)": {
        "details": "Sets `amount` as the allowance of `spender` over the caller's tokens. Returns a boolean value indicating whether the operation succeeded. IMPORTANT: Beware that changing an allowance with this method brings the risk that someone may use both the old and the new allowance by unfortunate transaction ordering. One possible solution to mitigate this race condition is to first reduce the spender's allowance to 0 and set the desired value afterwards: https://github.com/ethereum/EIPs/issues/20#issuecomment-263524729 Emits an {Approval} event."
      },
      "balanceOf(address)": {
        "details": "Returns the amount of tokens owned by `account`."
      },
      "totalSupply()": {
        "details": "Returns the amount of tokens in existence."
      },
      "transfer(address,uint256)": {
        "details": "Moves `amount` tokens from the caller's account to `recipient`. Returns a boolean value indicating whether the operation succeeded. Emits a {Transfer} event."
      },
      "transferFrom(address,address,uint256)": {
        "details": "Moves `amount` tokens from `sender` to `recipient` using the allowance mechanism. `amount` is then deducted from the caller's allowance. Returns a boolean value indicating whether the operation succeeded. Emits a {Transfer} event."
      }
    },
    "version": 1
  },
  "userdoc": {
    "kind": "user",
    "methods": {},
    "version": 1
  }
}