{
  "contractName": "MysteryBox",
  "abi": [
    {
      "inputs": [],
      "stateMutability": "nonpayable",
      "type": "constructor"
    },
    {
      "anonymous": false,
      "inputs": [
        {
          "indexed": true,
          "internalType": "uint256",
          "name": "id",
          "type": "uint256"
        },
        {
          "indexed": true,
          "internalType": "uint256",
          "name": "factoryId",
          "type": "uint256"
        },
        {
          "indexed": false,
          "internalType": "address",
          "name": "to",
          "type": "address"
        }
      ],
      "name": "Minted",
      "type": "event"
    },
    {
      "anonymous": false,
      "inputs": [
        {
          "indexed": true,
          "internalType": "uint256",
          "name": "id",
          "type": "uint256"
        },
        {
          "indexed": true,
          "internalType": "address",
          "name": "nft",
          "type": "address"
        },
        {
          "indexed": false,
          "internalType": "uint256",
          "name": "boxId",
          "type": "uint256"
        },
        {
          "indexed": false,
          "internalType": "uint256",
          "name": "tokenId",
          "type": "uint256"
        }
      ],
      "name": "OpenBox",
      "type": "event"
    },
    {
      "anonymous": false,
      "inputs": [
        {
          "indexed": true,
          "internalType": "address",
          "name": "previousOwner",
          "type": "address"
        },
        {
          "indexed": true,
          "internalType": "address",
          "name": "newOwner",
          "type": "address"
        }
      ],
      "name": "OwnershipTransferred",
      "type": "event"
    },
    {
      "inputs": [
        {
          "internalType": "bytes32",
          "name": "",
          "type": "bytes32"
        }
      ],
      "name": "boxResults",
      "outputs": [
        {
          "internalType": "address",
          "name": "nft",
          "type": "address"
        },
        {
          "internalType": "uint256",
          "name": "level",
          "type": "uint256"
        }
      ],
      "stateMutability": "view",
      "type": "function",
      "constant": true
    },
    {
      "inputs": [
        {
          "internalType": "address",
          "name": "",
          "type": "address"
        }
      ],
      "name": "factoryMap",
      "outputs": [
        {
          "internalType": "contract Nft1155Factory",
          "name": "",
          "type": "address"
        }
      ],
      "stateMutability": "view",
      "type": "function",
      "constant": true
    },
    {
      "inputs": [],
      "name": "owner",
      "outputs": [
        {
          "internalType": "address",
          "name": "",
          "type": "address"
        }
      ],
      "stateMutability": "view",
      "type": "function",
      "constant": true
    },
    {
      "inputs": [],
      "name": "payToken",
      "outputs": [
        {
          "internalType": "contract IERC20",
          "name": "",
          "type": "address"
        }
      ],
      "stateMutability": "view",
      "type": "function",
      "constant": true
    },
    {
      "inputs": [],
      "name": "renounceOwnership",
      "outputs": [],
      "stateMutability": "nonpayable",
      "type": "function"
    },
    {
      "inputs": [
        {
          "internalType": "address",
          "name": "newOwner",
          "type": "address"
        }
      ],
      "name": "transferOwnership",
      "outputs": [],
      "stateMutability": "nonpayable",
      "type": "function"
    },
    {
      "inputs": [
        {
          "internalType": "address",
          "name": "_payToken",
          "type": "address"
        },
        {
          "internalType": "address",
          "name": "_ownerAddress",
          "type": "address"
        }
      ],
      "name": "initialize",
      "outputs": [],
      "stateMutability": "nonpayable",
      "type": "function"
    },
    {
      "inputs": [],
      "name": "getSupportNfts",
      "outputs": [
        {
          "internalType": "address[]",
          "name": "",
          "type": "address[]"
        }
      ],
      "stateMutability": "view",
      "type": "function",
      "constant": true
    },
    {
      "inputs": [
        {
          "internalType": "address",
          "name": "nft",
          "type": "address"
        }
      ],
      "name": "getNftSupportLevels",
      "outputs": [
        {
          "internalType": "uint256[]",
          "name": "",
          "type": "uint256[]"
        }
      ],
      "stateMutability": "view",
      "type": "function",
      "constant": true
    },
    {
      "inputs": [],
      "name": "getBoxs",
      "outputs": [
        {
          "components": [
            {
              "internalType": "uint256",
              "name": "id",
              "type": "uint256"
            },
            {
              "internalType": "string",
              "name": "name",
              "type": "string"
            },
            {
              "internalType": "uint256",
              "name": "total",
              "type": "uint256"
            },
            {
              "internalType": "uint256",
              "name": "price",
              "type": "uint256"
            },
            {
              "internalType": "address",
              "name": "currency",
              "type": "address"
            }
          ],
          "internalType": "struct MysteryBox.BoxView[]",
          "name": "boxs",
          "type": "tuple[]"
        }
      ],
      "stateMutability": "view",
      "type": "function",
      "constant": true
    },
    {
      "inputs": [
        {
          "internalType": "uint256",
          "name": "boxId",
          "type": "uint256"
        },
        {
          "internalType": "bytes32",
          "name": "flag",
          "type": "bytes32"
        }
      ],
      "name": "buyBox",
      "outputs": [],
      "stateMutability": "nonpayable",
      "type": "function"
    },
    {
      "inputs": [
        {
          "internalType": "address",
          "name": "nft",
          "type": "address"
        },
        {
          "internalType": "address",
          "name": "factory",
          "type": "address"
        }
      ],
      "name": "addSupportNft",
      "outputs": [],
      "stateMutability": "nonpayable",
      "type": "function"
    },
    {
      "inputs": [
        {
          "internalType": "string",
          "name": "_name",
          "type": "string"
        },
        {
          "internalType": "uint256",
          "name": "_price",
          "type": "uint256"
        },
        {
          "internalType": "address[]",
          "name": "nfts",
          "type": "address[]"
        },
        {
          "internalType": "uint256[][]",
          "name": "levelList",
          "type": "uint256[][]"
        },
        {
          "internalType": "uint256[][]",
          "name": "amountList",
          "type": "uint256[][]"
        }
      ],
      "name": "initBox",
      "outputs": [],
      "stateMutability": "nonpayable",
      "type": "function"
    },
    {
      "inputs": [
        {
          "internalType": "uint256",
          "name": "index",
          "type": "uint256"
        },
        {
          "internalType": "address",
          "name": "nft",
          "type": "address"
        },
        {
          "internalType": "uint256",
          "name": "level",
          "type": "uint256"
        },
        {
          "internalType": "uint256",
          "name": "amount",
          "type": "uint256"
        }
      ],
      "name": "addBox",
      "outputs": [],
      "stateMutability": "nonpayable",
      "type": "function"
    }
  ],
  "bytecode": "0x608060405234801561001057600080fd5b5061002161001c610026565b61002a565b610085565b3390565b600080546001600160a01b038381166201000081810262010000600160b01b0319851617855560405193049190911692909183917f8be0079c531659141344cd1fd0a4f28419497f9722a3daafe3b4186f6b6457e091a35050565b611a8e806100946000396000f3fe608060405234801561001057600080fd5b50600436106100ea5760003560e01c80638da5cb5b1161008c578063a84f772c11610066578063a84f772c146101c1578063a9a9c73e146101d4578063cfaf6e0d146101e7578063f2fde38b146101fc576100ea565b80638da5cb5b1461019157806396336b30146101995780639c8ff271146101a1576100ea565b8063547ee8d1116100c8578063547ee8d11461014357806356c9528314610156578063715018a61461016957806380e9f00b14610171576100ea565b806317729c31146100ef57806324dda95d14610119578063485cc9551461012e575b600080fd5b6101026100fd366004611494565b61020f565b6040516101109291906116bf565b60405180910390f35b610121610234565b60405161011091906116d8565b61014161013c3660046113b0565b610296565b005b610141610151366004611608565b6102fd565b6101416101643660046115c1565b610568565b61014161060d565b61018461017f36600461138e565b610658565b6040516101109190611666565b610184610673565b610184610688565b6101b46101af36600461138e565b610697565b60405161011091906117fb565b6101416101cf3660046114ac565b610703565b6101416101e23660046113b0565b6109e2565b6101ef610b50565b6040516101109190611725565b61014161020a36600461138e565b610d25565b600760205260009081526040902080546001909101546001600160a01b039091169082565b6060600280548060200260200160405190810160405280929190818152602001828054801561028c57602002820191906000526020600020905b81546001600160a01b0316815260019091019060200180831161026e575b5050505050905090565b600480546001600160a01b0393841673ffffffffffffffffffffffffffffffffffffffff19909116179055600080549190921662010000027fffffffffffffffffffff0000000000000000000000000000000000000000ffff909116179055612710600655565b61030633610d96565b15801561031257503233145b6103375760405162461bcd60e51b815260040161032e9061196a565b60405180910390fd5b60006005838154811061034657fe5b600091825260209091206007909102016002810154600480546040517f23b872dd00000000000000000000000000000000000000000000000000000000815293945091926001600160a01b03909216916323b872dd916103ac913391309187910161167a565b602060405180830381600087803b1580156103c657600080fd5b505af11580156103da573d6000803e3d6000fd5b505050506040513d601f19601f820116820180604052508101906103fe9190611474565b5060008260030154116104235760405162461bcd60e51b815260040161032e90611933565b6003820180547fffffffffffffffffffffffffffffffffffffffffffffffffffffffffffffffff01905560008061045984610d9c565b6001600160a01b038083166000908152600160208190526040918290205491517f156e29f6000000000000000000000000000000000000000000000000000000008152949650929450169163156e29f6916104ba913391869160040161169e565b602060405180830381600087803b1580156104d457600080fd5b505af11580156104e8573d6000803e3d6000fd5b505050506040513d601f19601f8201168201806040525081019061050c91906115a9565b506040805180820182526001600160a01b039384168152602080820193845260009788526007905295209451855473ffffffffffffffffffffffffffffffffffffffff1916921691909117845551600190930192909255505050565b610570610e8d565b6001600160a01b0316610581610673565b6001600160a01b0316146105a75760405162461bcd60e51b815260040161032e906118fe565b6000600585815481106105b657fe5b6000918252602080832060036007909302019182018054860190556001600160a01b039096168252600581018652604080832080548601905560069091018652808220948252939094525091208054909101905550565b610615610e8d565b6001600160a01b0316610626610673565b6001600160a01b03161461064c5760405162461bcd60e51b815260040161032e906118fe565b6106566000610e91565b565b6001602052600090815260409020546001600160a01b031681565b6000546201000090046001600160a01b031690565b6004546001600160a01b031681565b6001600160a01b0381166000908152600360209081526040918290208054835181840281018401909452808452606093928301828280156106f757602002820191906000526020600020905b8154815260200190600101908083116106e3575b50505050509050919050565b61070b610e8d565b6001600160a01b031661071c610673565b6001600160a01b0316146107425760405162461bcd60e51b815260040161032e906118fe565b600580546040805160a08101825282815260208082018a81528284018a905260006060840181905284518181528084019095526080840194909452600185018655949092528051600784027f036b6384b5eca791c62761152d0c79bb0604c104a5fb6f4eb0703f3154bb3db08101918255945180519495929491936107ec937f036b6384b5eca791c62761152d0c79bb0604c104a5fb6f4eb0703f3154bb3db101929101906110a9565b5060408201516002820155606082015160038201556080820151805161081c916004840191602090910190611127565b50505060006005828154811061082e57fe5b6000918252602082208751600790920201925090805b828110156109cb57600088828151811061085a57fe5b6020908102919091018101516004870180546001810182556000918252929020909101805473ffffffffffffffffffffffffffffffffffffffff19166001600160a01b03831617905588519091506060908990849081106108b757fe5b6020026020010151905060608884815181106108cf57fe5b6020026020010151905080518251146108fa5760405162461bcd60e51b815260040161032e906118c7565b81516000805b828110156109995783818151811061091457fe5b60200260200101518a6006016000886001600160a01b03166001600160a01b03168152602001908152602001600020600087848151811061095157fe5b602002602001015181526020019081526020016000206000828254019250508190555083818151811061098057fe5b6020026020010151820191508080600101915050610900565b506001600160a01b03909416600090815260058901602052604090208054850190555050509190910190600101610844565b506003909201805490920190915550505050505050565b6109ea610e8d565b6001600160a01b03166109fb610673565b6001600160a01b031614610a215760405162461bcd60e51b815260040161032e906118fe565b6002805460018181019092557f405787fa12a823e0f2b7631cc41b3ba8828b3321ca811111fa75cd3aa3bb5ace0180546001600160a01b0380861673ffffffffffffffffffffffffffffffffffffffff19928316811790935560009283526020939093526040808320805494861694909216841790915580517fb4579d60000000000000000000000000000000000000000000000000000000008152905163b4579d6092600480840193919291829003018186803b158015610ae257600080fd5b505afa158015610af6573d6000803e3d6000fd5b505050506040513d6000823e601f3d908101601f19168201604052610b1e91908101906113e4565b6001600160a01b03831660009081526003602090815260409091208251610b4b9391929190910190611195565b505050565b6005546060908067ffffffffffffffff81118015610b6d57600080fd5b50604051908082528060200260200182016040528015610ba757816020015b610b946111cf565b815260200190600190039081610b8c5790505b50915060005b81811015610d2057610bbd6111cf565b60058281548110610bca57fe5b600091825260209091206007909102015481526005805483908110610beb57fe5b90600052602060002090600702016001018054600181600116156101000203166002900480601f016020809104026020016040519081016040528092919081815260200182805460018160011615610100020316600290048015610c905780601f10610c6557610100808354040283529160200191610c90565b820191906000526020600020905b815481529060010190602001808311610c7357829003601f168201915b5050505050816020018190525060058281548110610caa57fe5b90600052602060002090600702016002015481606001818152505060058281548110610cd257fe5b600091825260209091206003600790920201015460408201526004546001600160a01b0316608082015283518190859084908110610d0c57fe5b602090810291909101015250600101610bad565b505090565b610d2d610e8d565b6001600160a01b0316610d3e610673565b6001600160a01b031614610d645760405162461bcd60e51b815260040161032e906118fe565b6001600160a01b038116610d8a5760405162461bcd60e51b815260040161032e90611833565b610d9381610e91565b50565b3b151590565b60008060004142600654604051602001610db893929190611629565b6040516020818303038152906040528051906020012060001c9050600084600301548281610de257fe5b069050610def8582610f02565b93506001600160a01b038416610e175760405162461bcd60e51b815260040161032e906119a1565b6001600160a01b038416600090815260058601602052604081205490818481610e3c57fe5b069050610e4a868883610ffb565b945084610e695760405162461bcd60e51b815260040161032e90611890565b6006548481610e7457fe5b0660066000828254019250508190555050505050915091565b3390565b600080546001600160a01b03838116620100008181027fffffffffffffffffffff0000000000000000000000000000000000000000ffff851617855560405193049190911692909183917f8be0079c531659141344cd1fd0a4f28419497f9722a3daafe3b4186f6b6457e091a35050565b6000606083600401805480602002602001604051908101604052809291908181526020018280548015610f5e57602002820191906000526020600020905b81546001600160a01b03168152600190910190602001808311610f40575b505050505090506000815190506000805b82811015610ff157866005016000858381518110610f8957fe5b60200260200101516001600160a01b03166001600160a01b031681526020019081526020016000205482019150818611158015610fcd57506001600160a01b038516155b15610fe957838181518110610fde57fe5b602002602001015194505b600101610f6f565b5050505092915050565b6001600160a01b0383166000908152600360205260408120805482805b8281101561109e576001600160a01b03881660009081526006880160205260408120855490919086908490811061104b57fe5b906000526020600020015481526020019081526020016000205482019150818611158015611077575084155b156110965783818154811061108857fe5b906000526020600020015494505b600101611018565b505050509392505050565b828054600181600116156101000203166002900490600052602060002090601f016020900481019282601f106110ea57805160ff1916838001178555611117565b82800160010185558215611117579182015b828111156111175782518255916020019190600101906110fc565b50611123929150611207565b5090565b828054828255906000526020600020908101928215611189579160200282015b82811115611189578251825473ffffffffffffffffffffffffffffffffffffffff19166001600160a01b03909116178255602090920191600190910190611147565b5061112392915061121c565b82805482825590600052602060002090810192821561111757916020028201828111156111175782518255916020019190600101906110fc565b6040518060a001604052806000815260200160608152602001600081526020016000815260200160006001600160a01b031681525090565b5b808211156111235760008155600101611208565b5b8082111561112357805473ffffffffffffffffffffffffffffffffffffffff1916815560010161121d565b80356001600160a01b038116811461125f57600080fd5b92915050565b600082601f830112611275578081fd5b8135611288611283826119ff565b6119d8565b8181529150602080830190848101818402860182018710156112a957600080fd5b60005b848110156112d0576112be8883611248565b845292820192908201906001016112ac565b505050505092915050565b600082601f8301126112eb578081fd5b81356112f9611283826119ff565b818152915060208083019084810160005b848110156112d0578135870188603f82011261132557600080fd5b83810135611335611283826119ff565b818152858101906040848101888502860182018e101561135457600080fd5b600095505b84861015611377578035845260019590950194928801928801611359565b50508752505050928201929082019060010161130a565b60006020828403121561139f578081fd5b6113a98383611248565b9392505050565b600080604083850312156113c2578081fd5b6113cc8484611248565b91506113db8460208501611248565b90509250929050565b600060208083850312156113f6578182fd5b825167ffffffffffffffff81111561140c578283fd5b8301601f8101851361141c578283fd5b805161142a611283826119ff565b8181528381019083850185840285018601891015611446578687fd5b8694505b8385101561146857805183526001949094019391850191850161144a565b50979650505050505050565b600060208284031215611485578081fd5b815180151581146113a9578182fd5b6000602082840312156114a5578081fd5b5035919050565b600080600080600060a086880312156114c3578081fd5b853567ffffffffffffffff808211156114da578283fd5b818801915088601f8301126114ed578283fd5b8135818111156114fb578384fd5b602061150f81601f19601f850116016119d8565b8281528b82848701011115611522578586fd5b828286018383013791820181018590529097508801359550604088013591508082111561154d578283fd5b61155989838a01611265565b9450606088013591508082111561156e578283fd5b61157a89838a016112db565b9350608088013591508082111561158f578283fd5b5061159c888289016112db565b9150509295509295909350565b6000602082840312156115ba578081fd5b5051919050565b600080600080608085870312156115d6578384fd5b8435935060208501356001600160a01b03811681146115f3578384fd5b93969395505050506040820135916060013590565b6000806040838503121561161a578182fd5b50508035926020909101359150565b60609390931b7fffffffffffffffffffffffffffffffffffffffff0000000000000000000000001683526014830191909152603482015260540190565b6001600160a01b0391909116815260200190565b6001600160a01b039384168152919092166020820152604081019190915260600190565b6001600160a01b039390931683526020830191909152604082015260600190565b6001600160a01b03929092168252602082015260400190565b6020808252825182820181905260009190848201906040850190845b818110156117195783516001600160a01b0316835292840192918401916001016116f4565b50909695505050505050565b60208082528251828201819052600091906040908185019080840286018301878501865b838110156117ed577fffffffffffffffffffffffffffffffffffffffffffffffffffffffffffffffc0898403018552815160a08151855288820151818a870152805161179781848901611a1f565b92506117a681848d8501611a28565b89840151878b0152606080850151908801526080938401516001600160a01b0316939096019290925295880195601f909401601f1916909301925090860190600101611749565b509098975050505050505050565b6020808252825182820181905260009190848201906040850190845b8181101561171957835183529284019291840191600101611817565b60208082526026908201527f4f776e61626c653a206e6577206f776e657220697320746865207a65726f206160408201527f6464726573730000000000000000000000000000000000000000000000000000606082015260800190565b60208082526012908201527f6c6576656c2072616e646f6d206572726f720000000000000000000000000000604082015260600190565b6020808252600c908201527f706172616d73206572726f720000000000000000000000000000000000000000604082015260600190565b6020808252818101527f4f776e61626c653a2063616c6c6572206973206e6f7420746865206f776e6572604082015260600190565b6020808252600b908201527f616d6f756e74206c6f636b000000000000000000000000000000000000000000604082015260600190565b60208082526017908201527f50726f686962697420636f6e74726163742063616c6c73000000000000000000604082015260600190565b60208082526011908201527f747970652072616e646f6d206572726f72000000000000000000000000000000604082015260600190565b60405181810167ffffffffffffffff811182821017156119f757600080fd5b604052919050565b600067ffffffffffffffff821115611a15578081fd5b5060209081020190565b90815260200190565b60005b83811015611a43578181015183820152602001611a2b565b83811115611a52576000848401525b5050505056fea26469706673582212204e4f39d6697462bfe09a255547e8d8305998d6a0d74c26a741afec8632f1079164736f6c634300060c0033",
  "immutableReferences": {},
  "source": "// SPDX-License-Identifier: MIT\r\npragma solidity >=0.6.12;\r\npragma experimental ABIEncoderV2;\r\n\r\nimport \"../open/token/ERC721/ERC721.sol\";\r\nimport \"../open/token/ERC20/IERC20.sol\";\r\nimport \"../open/utils/SafeMath.sol\";\r\nimport \"../open/utils/Strings.sol\";\r\nimport \"../open/utils/Address.sol\";\r\nimport \"../open/utils/Initializable.sol\";\r\nimport \"../open/utils/Ownable.sol\";\r\nimport \"../libraries/Random.sol\";\r\nimport \"../nftLib/FishNftFactory.sol\";\r\n\r\ninterface Factory{\r\n    function getTypes() external view returns(uint[] memory);\r\n}\r\n\r\n// interface IPancakeRouter02{\r\n//     function getAmountsOut(uint amountIn, address[] calldata path)\r\n//         external\r\n//         view\r\n//         returns (uint[] memory amounts);\r\n// }\r\n\r\ncontract MysteryBox is  Initializable,Ownable {\r\n\r\n    event OpenBox(uint256 indexed id, address indexed nft, uint256 boxId, uint256 tokenId);\r\n    event Minted(uint256 indexed id, uint256 indexed factoryId, address to);\r\n\r\n    using SafeMath for uint256;\r\n\r\n    mapping(address => Nft1155Factory) public factoryMap;\r\n\r\n    address[] supportNftList;\r\n\r\n    mapping(address => uint[]) nftSupportLevels;\r\n\r\n    struct Box {\r\n        uint256 id;\r\n        string name;\r\n        uint256 price;\r\n        uint256 total;\r\n        address[] suppoutNfts;\r\n        mapping(address => uint) nft2Surplus;\r\n        mapping(address => mapping(uint => uint)) nft2Level2Surplus;\r\n    }\r\n\r\n    struct BoxView {\r\n        uint256 id;         //id\r\n        string name;        //\r\n        uint total;         //\r\n        uint price;         //\r\n        address currency;   //\r\n    }\r\n\r\n    IERC20 public payToken;\r\n\r\n    Box[] internal boxList;\r\n\r\n    uint accSeed;\r\n\r\n    struct BoxResult{\r\n        address nft;    \r\n        uint level;\r\n    }\r\n\r\n    mapping( bytes32 => BoxResult) public boxResults;\r\n\r\n    constructor() public {}\r\n\r\n    function initialize(\r\n            address _payToken,\r\n            address _ownerAddress\r\n            ) public {\r\n        payToken = IERC20(_payToken);\r\n        _owner = _ownerAddress;\r\n        accSeed = 10000;\r\n    }\r\n\r\n    function getSupportNfts()external view returns(address[] memory){\r\n        return supportNftList;\r\n    }\r\n\r\n    function getNftSupportLevels(address nft)external view returns(uint[] memory){\r\n        return nftSupportLevels[nft];\r\n    }\r\n\r\n    function getBoxs()public view returns(BoxView[] memory boxs){\r\n\r\n        uint len = boxList.length;\r\n        boxs = new BoxView[](len);\r\n        for( uint i = 0; i< len; i++ ){\r\n            BoxView memory box;\r\n            box.id  = boxList[i].id;\r\n            box.name  = boxList[i].name;\r\n            box.price  = boxList[i].price;\r\n            box.total  = boxList[i].total;\r\n            box.currency  = address(payToken);\r\n            boxs[i] = box;\r\n        }\r\n    }\r\n\r\n    // function _equivalent(address token1,uint amount1,address token2)internal view returns(uint){\r\n\r\n    //     address[] memory path = new address[](2);\r\n    //     path[0] = token1;\r\n    //     path[1] = token2;\r\n    //     uint[] memory amountOuts = route.getAmountsOut(amount1, path);\r\n\r\n    //     require(amountOuts.length == path.length,\"getAmountsOut error\");\r\n    //     return amountOuts[1];\r\n    // }\r\n    \r\n    function buyBox(uint256 boxId,bytes32 flag) external {\r\n\r\n        require(isContract(msg.sender) == false && tx.origin == msg.sender, \"Prohibit contract calls\");\r\n\r\n        Box storage box = boxList[boxId];\r\n\r\n        uint needAmount = box.price;\r\n\r\n        payToken.transferFrom(msg.sender, address(this), needAmount);\r\n        \r\n        require(box.total > 0,\"amount lock\");\r\n\r\n        box.total --;\r\n\r\n        (address nft,uint level) = _random(box);\r\n\r\n        factoryMap[nft].mint(msg.sender,level,1);\r\n\r\n        boxResults[flag] = BoxResult( nft,level);\r\n    }\r\n\r\n    function _random(Box storage box)internal returns(address nft,uint  level) {\r\n        \r\n        uint256 seed = uint256(keccak256(abi.encodePacked(block.coinbase,block.timestamp,accSeed)));\r\n\r\n        uint seed1 = seed % box.total;\r\n\r\n        nft = _getNft(box,seed1);\r\n        require(nft != address(0),\"type random error\");\r\n\r\n        uint nft2Sruplus = box.nft2Surplus[nft];\r\n\r\n        uint seed2 = seed % nft2Sruplus;\r\n        level = _getLevel(nft,box,seed2);\r\n        require(level != 0,\"level random error\");\r\n\r\n        accSeed += (seed % accSeed); \r\n    }\r\n\r\n    function _getNft(Box storage box,uint seed)internal view returns(address nft){\r\n\r\n        address[] memory nfts = box.suppoutNfts;\r\n\r\n        uint len = nfts.length;\r\n\r\n        uint256 sum = 0;\r\n        for( uint256 i = 0; i < len ; i++){\r\n            \r\n            sum += box.nft2Surplus[nfts[i]];\r\n\r\n            if( seed <= sum && nft == address(0) ){\r\n                nft = nfts[i];\r\n            }\r\n        }\r\n    }\r\n\r\n    function _getLevel(address nft,Box storage box,uint seed)internal view returns(uint level){\r\n\r\n        uint[] storage levels = nftSupportLevels[nft];\r\n\r\n        uint len = levels.length;\r\n\r\n        uint256 sum = 0;\r\n        for( uint256 i = 0; i < len ; i++){\r\n\r\n            sum += box.nft2Level2Surplus[nft][levels[i]];\r\n\r\n            if( seed <= sum && level == 0){\r\n                level = levels[i];\r\n            }\r\n        }\r\n    }\r\n\r\n    \r\n    function isContract(address addr) internal view returns (bool) {\r\n        uint size;\r\n        assembly { size := extcodesize(addr) }\r\n        return size > 0;\r\n    }\r\n\r\n    function addSupportNft(address nft,address factory)external onlyOwner{\r\n        supportNftList.push(nft);\r\n        factoryMap[nft] = Nft1155Factory(factory);\r\n        nftSupportLevels[nft] = Factory(factory).getTypes();\r\n    }\r\n\r\n    function initBox(\r\n        string memory _name,\r\n        uint256 _price,\r\n        address[] memory nfts,\r\n        uint[][] memory levelList,\r\n        uint[][] memory amountList)external onlyOwner{\r\n\r\n            uint id = boxList.length;\r\n\r\n            boxList.push(Box(\r\n                id,\r\n                _name,\r\n                _price,\r\n                0,\r\n                new address[](0)\r\n            )) ;\r\n\r\n            Box storage box  = boxList[id];\r\n\r\n            uint len = nfts.length;\r\n\r\n            uint sum = 0;\r\n            for( uint i = 0; i < len; i++ ){\r\n                address nft = nfts[i];\r\n\r\n                box.suppoutNfts.push(nft);\r\n\r\n                uint[] memory levels = levelList[i];\r\n                uint[] memory amounts = amountList[i];\r\n\r\n                require(levels.length == amounts.length,\"params error\");\r\n\r\n                uint l = levels.length;\r\n\r\n                uint s1 = 0;\r\n                for( uint k = 0; k < l; k++ ){\r\n                    box.nft2Level2Surplus[nft][levels[k]] += amounts[k];\r\n                    s1 += amounts[k];\r\n                }\r\n                box.nft2Surplus[nft] += s1;\r\n                sum += s1;\r\n            }\r\n            box.total += sum;\r\n    }\r\n\r\n    function addBox(uint index,address nft,uint level,uint amount)external onlyOwner{\r\n        Box storage box  = boxList[index];\r\n        box.total += amount;\r\n        box.nft2Surplus[nft] += amount;\r\n        box.nft2Level2Surplus[nft][level] += amount;\r\n    }\r\n}\r\n",
  "sourcePath": "/Users/jie/Desktop/CC/fist/nft/contracts/nft/MysteryBox.sol",
  "compiler": {
    "name": "solc",
    "version": "0.6.12+commit.27d51765.Emscripten.clang"
  },
  "schemaVersion": "3.4.4",
  "updatedAt": "2022-01-17T14:18:43.181Z",
  "networkType": "ethereum",
  "devdoc": {
    "kind": "dev",
    "methods": {
      "owner()": {
        "details": "Returns the address of the current owner."
      },
      "renounceOwnership()": {
        "details": "Leaves the contract without owner. It will not be possible to call `onlyOwner` functions anymore. Can only be called by the current owner. NOTE: Renouncing ownership will leave the contract without an owner, thereby removing any functionality that is only available to the owner."
      },
      "transferOwnership(address)": {
        "details": "Transfers ownership of the contract to a new account (`newOwner`). Can only be called by the current owner."
      }
    },
    "version": 1
  },
  "userdoc": {
    "kind": "user",
    "methods": {},
    "version": 1
  }
}