{
  "contractName": "MysteryBox",
  "abi": [
    {
      "inputs": [],
      "stateMutability": "nonpayable",
      "type": "constructor"
    },
    {
      "anonymous": false,
      "inputs": [
        {
          "indexed": true,
          "internalType": "uint256",
          "name": "id",
          "type": "uint256"
        },
        {
          "indexed": true,
          "internalType": "uint256",
          "name": "factoryId",
          "type": "uint256"
        },
        {
          "indexed": false,
          "internalType": "address",
          "name": "to",
          "type": "address"
        }
      ],
      "name": "Minted",
      "type": "event"
    },
    {
      "anonymous": false,
      "inputs": [
        {
          "indexed": true,
          "internalType": "uint256",
          "name": "id",
          "type": "uint256"
        },
        {
          "indexed": true,
          "internalType": "address",
          "name": "nft",
          "type": "address"
        },
        {
          "indexed": false,
          "internalType": "uint256",
          "name": "boxId",
          "type": "uint256"
        },
        {
          "indexed": false,
          "internalType": "uint256",
          "name": "tokenId",
          "type": "uint256"
        }
      ],
      "name": "OpenBox",
      "type": "event"
    },
    {
      "anonymous": false,
      "inputs": [
        {
          "indexed": true,
          "internalType": "address",
          "name": "previousOwner",
          "type": "address"
        },
        {
          "indexed": true,
          "internalType": "address",
          "name": "newOwner",
          "type": "address"
        }
      ],
      "name": "OwnershipTransferred",
      "type": "event"
    },
    {
      "inputs": [
        {
          "internalType": "bytes32",
          "name": "",
          "type": "bytes32"
        }
      ],
      "name": "boxResults",
      "outputs": [
        {
          "internalType": "address",
          "name": "nft",
          "type": "address"
        },
        {
          "internalType": "uint256",
          "name": "level",
          "type": "uint256"
        }
      ],
      "stateMutability": "view",
      "type": "function"
    },
    {
      "inputs": [
        {
          "internalType": "address",
          "name": "",
          "type": "address"
        }
      ],
      "name": "factoryMap",
      "outputs": [
        {
          "internalType": "contract Nft1155Factory",
          "name": "",
          "type": "address"
        }
      ],
      "stateMutability": "view",
      "type": "function"
    },
    {
      "inputs": [],
      "name": "owner",
      "outputs": [
        {
          "internalType": "address",
          "name": "",
          "type": "address"
        }
      ],
      "stateMutability": "view",
      "type": "function"
    },
    {
      "inputs": [],
      "name": "payToken",
      "outputs": [
        {
          "internalType": "contract IERC20",
          "name": "",
          "type": "address"
        }
      ],
      "stateMutability": "view",
      "type": "function"
    },
    {
      "inputs": [],
      "name": "renounceOwnership",
      "outputs": [],
      "stateMutability": "nonpayable",
      "type": "function"
    },
    {
      "inputs": [
        {
          "internalType": "address",
          "name": "newOwner",
          "type": "address"
        }
      ],
      "name": "transferOwnership",
      "outputs": [],
      "stateMutability": "nonpayable",
      "type": "function"
    },
    {
      "inputs": [
        {
          "internalType": "address",
          "name": "_payToken",
          "type": "address"
        },
        {
          "internalType": "address",
          "name": "_ownerAddress",
          "type": "address"
        }
      ],
      "name": "initialize",
      "outputs": [],
      "stateMutability": "nonpayable",
      "type": "function"
    },
    {
      "inputs": [
        {
          "internalType": "uint256",
          "name": "index",
          "type": "uint256"
        },
        {
          "internalType": "uint256",
          "name": "price",
          "type": "uint256"
        }
      ],
      "name": "setBoxPrice",
      "outputs": [],
      "stateMutability": "nonpayable",
      "type": "function"
    },
    {
      "inputs": [
        {
          "internalType": "uint256",
          "name": "index",
          "type": "uint256"
        }
      ],
      "name": "getBoxPrice",
      "outputs": [
        {
          "internalType": "uint256",
          "name": "",
          "type": "uint256"
        }
      ],
      "stateMutability": "view",
      "type": "function"
    },
    {
      "inputs": [],
      "name": "getBoxLength",
      "outputs": [
        {
          "internalType": "uint256",
          "name": "",
          "type": "uint256"
        }
      ],
      "stateMutability": "view",
      "type": "function"
    },
    {
      "inputs": [],
      "name": "getSupportNfts",
      "outputs": [
        {
          "internalType": "address[]",
          "name": "",
          "type": "address[]"
        }
      ],
      "stateMutability": "view",
      "type": "function"
    },
    {
      "inputs": [
        {
          "internalType": "address",
          "name": "nft",
          "type": "address"
        }
      ],
      "name": "getNftSupportLevels",
      "outputs": [
        {
          "internalType": "uint256[]",
          "name": "",
          "type": "uint256[]"
        }
      ],
      "stateMutability": "view",
      "type": "function"
    },
    {
      "inputs": [],
      "name": "getBoxs",
      "outputs": [
        {
          "components": [
            {
              "internalType": "uint256",
              "name": "id",
              "type": "uint256"
            },
            {
              "internalType": "string",
              "name": "name",
              "type": "string"
            },
            {
              "internalType": "uint256",
              "name": "total",
              "type": "uint256"
            },
            {
              "internalType": "uint256",
              "name": "price",
              "type": "uint256"
            },
            {
              "internalType": "address",
              "name": "currency",
              "type": "address"
            }
          ],
          "internalType": "struct MysteryBox.BoxView[]",
          "name": "boxs",
          "type": "tuple[]"
        }
      ],
      "stateMutability": "view",
      "type": "function"
    },
    {
      "inputs": [
        {
          "internalType": "uint256",
          "name": "boxId",
          "type": "uint256"
        },
        {
          "internalType": "bytes32",
          "name": "flag",
          "type": "bytes32"
        }
      ],
      "name": "buyBox",
      "outputs": [],
      "stateMutability": "nonpayable",
      "type": "function"
    },
    {
      "inputs": [
        {
          "internalType": "address",
          "name": "nft",
          "type": "address"
        },
        {
          "internalType": "address",
          "name": "factory",
          "type": "address"
        }
      ],
      "name": "addSupportNft",
      "outputs": [],
      "stateMutability": "nonpayable",
      "type": "function"
    },
    {
      "inputs": [
        {
          "internalType": "address[]",
          "name": "nfts",
          "type": "address[]"
        }
      ],
      "name": "initLevels",
      "outputs": [],
      "stateMutability": "nonpayable",
      "type": "function"
    },
    {
      "inputs": [
        {
          "internalType": "uint256",
          "name": "index",
          "type": "uint256"
        },
        {
          "internalType": "address",
          "name": "nft",
          "type": "address"
        }
      ],
      "name": "getNft2Sruplus",
      "outputs": [
        {
          "internalType": "uint256",
          "name": "amount",
          "type": "uint256"
        },
        {
          "internalType": "address[]",
          "name": "supportNfts",
          "type": "address[]"
        },
        {
          "internalType": "uint256[]",
          "name": "levels",
          "type": "uint256[]"
        }
      ],
      "stateMutability": "view",
      "type": "function"
    },
    {
      "inputs": [
        {
          "internalType": "uint256",
          "name": "index",
          "type": "uint256"
        },
        {
          "internalType": "address",
          "name": "nft",
          "type": "address"
        },
        {
          "internalType": "uint256",
          "name": "level",
          "type": "uint256"
        }
      ],
      "name": "getNft2Level2Surplus",
      "outputs": [
        {
          "internalType": "uint256",
          "name": "",
          "type": "uint256"
        }
      ],
      "stateMutability": "view",
      "type": "function"
    },
    {
      "inputs": [
        {
          "internalType": "string",
          "name": "_name",
          "type": "string"
        },
        {
          "internalType": "uint256",
          "name": "_price",
          "type": "uint256"
        },
        {
          "internalType": "address[]",
          "name": "nfts",
          "type": "address[]"
        },
        {
          "internalType": "uint256[][]",
          "name": "levelList",
          "type": "uint256[][]"
        },
        {
          "internalType": "uint256[][]",
          "name": "amountList",
          "type": "uint256[][]"
        }
      ],
      "name": "initBox",
      "outputs": [],
      "stateMutability": "nonpayable",
      "type": "function"
    },
    {
      "inputs": [
        {
          "internalType": "uint256",
          "name": "index",
          "type": "uint256"
        },
        {
          "internalType": "address",
          "name": "nft",
          "type": "address"
        },
        {
          "internalType": "uint256",
          "name": "level",
          "type": "uint256"
        },
        {
          "internalType": "uint256",
          "name": "amount",
          "type": "uint256"
        }
      ],
      "name": "addBox",
      "outputs": [],
      "stateMutability": "nonpayable",
      "type": "function"
    }
  ],
  "bytecode": "0x608060405234801561001057600080fd5b5061002161001c610026565b61002a565b610085565b3390565b600080546001600160a01b038381166201000081810262010000600160b01b0319851617855560405193049190911692909183917f8be0079c531659141344cd1fd0a4f28419497f9722a3daafe3b4186f6b6457e091a35050565b611f73806100946000396000f3fe608060405234801561001057600080fd5b506004361061016c5760003560e01c806380e9f00b116100cd578063a980deff11610081578063ab4c1e8711610066578063ab4c1e87146102d9578063cfaf6e0d146102ec578063f2fde38b146103015761016c565b8063a980deff146102be578063a9a9c73e146102c65761016c565b806396336b30116100b257806396336b30146102835780639c8ff2711461028b578063a84f772c146102ab5761016c565b806380e9f00b1461025b5780638da5cb5b1461027b5761016c565b8063466978bd11610124578063547ee8d111610109578063547ee8d11461022d57806356c9528314610240578063715018a6146102535761016c565b8063466978bd146101f8578063485cc9551461021a5761016c565b80631ee19537116101555780631ee19537146101b057806324b61b86146101c357806324dda95d146101e35761016c565b806306a87dc01461017157806317729c3114610186575b600080fd5b61018461017f366004611aa5565b610314565b005b6101996101943660046118d9565b610383565b6040516101a7929190611bce565b60405180910390f35b6101846101be3660046117ee565b6103a8565b6101d66101d13660046118d9565b610475565b6040516101a79190611e88565b6101eb61049d565b6040516101a79190611be7565b61020b610206366004611a06565b6104ff565b6040516101a793929190611e91565b6101846102283660046117ba565b610617565b61018461023b366004611aa5565b61067e565b61018461024e366004611a5e565b6108e0565b610184610985565b61026e610269366004611798565b6109d0565b6040516101a79190611b75565b61026e6109eb565b61026e610a00565b61029e610299366004611798565b610a0f565b6040516101a79190611cd0565b6101846102b93660046118f1565b610a7b565b6101d6610d5a565b6101846102d43660046117ba565b610d60565b6101d66102e7366004611a29565b610ece565b6102f4610f1a565b6040516101a79190611bfa565b61018461030f366004611798565b6110ef565b61031c611160565b6001600160a01b031661032d6109eb565b6001600160a01b03161461035c5760405162461bcd60e51b815260040161035390611dae565b60405180910390fd5b806005838154811061036a57fe5b9060005260206000209060070201600201819055505050565b600760205260009081526040902080546001909101546001600160a01b039091169082565b6103b0611160565b6001600160a01b03166103c16109eb565b6001600160a01b0316146103e75760405162461bcd60e51b815260040161035390611dae565b60005b8151811015610471576040805160a081018252600181526002602082015260039181018290526004606082015260056080820152835190919060009085908590811061043257fe5b60200260200101516001600160a01b03166001600160a01b03168152602001908152602001600020906005610468929190611473565b506001016103ea565b5050565b60006005828154811061048457fe5b9060005260206000209060070201600201549050919050565b606060028054806020026020016040519081016040528092919081815260200182805480156104f557602002820191906000526020600020905b81546001600160a01b031681526001909101906020018083116104d7575b5050505050905090565b600060608060006005868154811061051357fe5b600091825260208083206001600160a01b038916845260056007909302019182018152604092839020546004830180548551818502810185019096528086529198509294509083018282801561059257602002820191906000526020600020905b81546001600160a01b03168152600190910190602001808311610574575b5050505050925060036000866001600160a01b03166001600160a01b0316815260200190815260200160002080548060200260200160405190810160405280929190818152602001828054801561060857602002820191906000526020600020905b8154815260200190600101908083116105f4575b50505050509150509250925092565b600480546001600160a01b0393841673ffffffffffffffffffffffffffffffffffffffff19909116179055600080549190921662010000027fffffffffffffffffffff0000000000000000000000000000000000000000ffff909116179055612710600655565b61068733611164565b15801561069357503233145b6106af5760405162461bcd60e51b815260040161035390611e1a565b6000600583815481106106be57fe5b600091825260209091206007909102016002810154600480546040517f23b872dd00000000000000000000000000000000000000000000000000000000815293945091926001600160a01b03909216916323b872dd916107249133913091879101611b89565b602060405180830381600087803b15801561073e57600080fd5b505af1158015610752573d6000803e3d6000fd5b505050506040513d601f19601f8201168201806040525081019061077691906118b9565b50600082600301541161079b5760405162461bcd60e51b815260040161035390611de3565b6003820180547fffffffffffffffffffffffffffffffffffffffffffffffffffffffffffffffff0190556000806107d18461116a565b6001600160a01b038083166000908152600160208190526040918290205491517f156e29f6000000000000000000000000000000000000000000000000000000008152949650929450169163156e29f6916108329133918691600401611bad565b602060405180830381600087803b15801561084c57600080fd5b505af1158015610860573d6000803e3d6000fd5b505050506040513d601f19601f8201168201806040525081019061088491906119ee565b506040805180820182526001600160a01b039384168152602080820193845260009788526007905295209451855473ffffffffffffffffffffffffffffffffffffffff1916921691909117845551600190930192909255505050565b6108e8611160565b6001600160a01b03166108f96109eb565b6001600160a01b03161461091f5760405162461bcd60e51b815260040161035390611dae565b60006005858154811061092e57fe5b6000918252602080832060036007909302019182018054860190556001600160a01b039096168252600581018652604080832080548601905560069091018652808220948252939094525091208054909101905550565b61098d611160565b6001600160a01b031661099e6109eb565b6001600160a01b0316146109c45760405162461bcd60e51b815260040161035390611dae565b6109ce600061125b565b565b6001602052600090815260409020546001600160a01b031681565b6000546201000090046001600160a01b031690565b6004546001600160a01b031681565b6001600160a01b038116600090815260036020908152604091829020805483518184028101840190945280845260609392830182828015610a6f57602002820191906000526020600020905b815481526020019060010190808311610a5b575b50505050509050919050565b610a83611160565b6001600160a01b0316610a946109eb565b6001600160a01b031614610aba5760405162461bcd60e51b815260040161035390611dae565b600580546040805160a08101825282815260208082018a81528284018a905260006060840181905284518181528084019095526080840194909452600185018655949092528051600784027f036b6384b5eca791c62761152d0c79bb0604c104a5fb6f4eb0703f3154bb3db0810191825594518051949592949193610b64937f036b6384b5eca791c62761152d0c79bb0604c104a5fb6f4eb0703f3154bb3db101929101906114c3565b50604082015160028201556060820151600382015560808201518051610b94916004840191602090910190611531565b505050600060058281548110610ba657fe5b6000918252602082208751600790920201925090805b82811015610d43576000888281518110610bd257fe5b6020908102919091018101516004870180546001810182556000918252929020909101805473ffffffffffffffffffffffffffffffffffffffff19166001600160a01b0383161790558851909150606090899084908110610c2f57fe5b602002602001015190506060888481518110610c4757fe5b602002602001015190508051825114610c725760405162461bcd60e51b815260040161035390611d77565b81516000805b82811015610d1157838181518110610c8c57fe5b60200260200101518a6006016000886001600160a01b03166001600160a01b031681526020019081526020016000206000878481518110610cc957fe5b6020026020010151815260200190815260200160002060008282540192505081905550838181518110610cf857fe5b6020026020010151820191508080600101915050610c78565b506001600160a01b03909416600090815260058901602052604090208054850190555050509190910190600101610bbc565b506003909201805490920190915550505050505050565b60055490565b610d68611160565b6001600160a01b0316610d796109eb565b6001600160a01b031614610d9f5760405162461bcd60e51b815260040161035390611dae565b6002805460018181019092557f405787fa12a823e0f2b7631cc41b3ba8828b3321ca811111fa75cd3aa3bb5ace0180546001600160a01b0380861673ffffffffffffffffffffffffffffffffffffffff19928316811790935560009283526020939093526040808320805494861694909216841790915580517fb4579d60000000000000000000000000000000000000000000000000000000008152905163b4579d6092600480840193919291829003018186803b158015610e6057600080fd5b505afa158015610e74573d6000803e3d6000fd5b505050506040513d6000823e601f3d908101601f19168201604052610e9c9190810190611829565b6001600160a01b03831660009081526003602090815260409091208251610ec9939192919091019061159f565b505050565b60008060058581548110610ede57fe5b600091825260208083206001600160a01b0388168452600660079093020191909101815260408083208684529091529020549150509392505050565b6005546060908067ffffffffffffffff81118015610f3757600080fd5b50604051908082528060200260200182016040528015610f7157816020015b610f5e6115d9565b815260200190600190039081610f565790505b50915060005b818110156110ea57610f876115d9565b60058281548110610f9457fe5b600091825260209091206007909102015481526005805483908110610fb557fe5b90600052602060002090600702016001018054600181600116156101000203166002900480601f01602080910402602001604051908101604052809291908181526020018280546001816001161561010002031660029004801561105a5780601f1061102f5761010080835404028352916020019161105a565b820191906000526020600020905b81548152906001019060200180831161103d57829003601f168201915b505050505081602001819052506005828154811061107457fe5b9060005260206000209060070201600201548160600181815250506005828154811061109c57fe5b600091825260209091206003600790920201015460408201526004546001600160a01b03166080820152835181908590849081106110d657fe5b602090810291909101015250600101610f77565b505090565b6110f7611160565b6001600160a01b03166111086109eb565b6001600160a01b03161461112e5760405162461bcd60e51b815260040161035390611dae565b6001600160a01b0381166111545760405162461bcd60e51b815260040161035390611ce3565b61115d8161125b565b50565b3390565b3b151590565b6000806000414260065460405160200161118693929190611b38565b6040516020818303038152906040528051906020012060001c90506000846003015482816111b057fe5b0690506111bd85826112cc565b93506001600160a01b0384166111e55760405162461bcd60e51b815260040161035390611e51565b6001600160a01b03841660009081526005860160205260408120549081848161120a57fe5b0690506112188688836113c5565b9450846112375760405162461bcd60e51b815260040161035390611d40565b600654848161124257fe5b0660066000828254019250508190555050505050915091565b600080546001600160a01b03838116620100008181027fffffffffffffffffffff0000000000000000000000000000000000000000ffff851617855560405193049190911692909183917f8be0079c531659141344cd1fd0a4f28419497f9722a3daafe3b4186f6b6457e091a35050565b600060608360040180548060200260200160405190810160405280929190818152602001828054801561132857602002820191906000526020600020905b81546001600160a01b0316815260019091019060200180831161130a575b505050505090506000815190506000805b828110156113bb5786600501600085838151811061135357fe5b60200260200101516001600160a01b03166001600160a01b03168152602001908152602001600020548201915081861115801561139757506001600160a01b038516155b156113b3578381815181106113a857fe5b602002602001015194505b600101611339565b5050505092915050565b6001600160a01b0383166000908152600360205260408120805482805b82811015611468576001600160a01b03881660009081526006880160205260408120855490919086908490811061141557fe5b906000526020600020015481526020019081526020016000205482019150818611158015611441575084155b156114605783818154811061145257fe5b906000526020600020015494505b6001016113e2565b505050509392505050565b8280548282559060005260206000209081019282156114b3579160200282015b828111156114b3578251829060ff16905591602001919060010190611493565b506114bf929150611611565b5090565b828054600181600116156101000203166002900490600052602060002090601f016020900481019282601f1061150457805160ff19168380011785556114b3565b828001600101855582156114b3579182015b828111156114b3578251825591602001919060010190611516565b828054828255906000526020600020908101928215611593579160200282015b82811115611593578251825473ffffffffffffffffffffffffffffffffffffffff19166001600160a01b03909116178255602090920191600190910190611551565b506114bf929150611626565b8280548282559060005260206000209081019282156114b357916020028201828111156114b3578251825591602001919060010190611516565b6040518060a001604052806000815260200160608152602001600081526020016000815260200160006001600160a01b031681525090565b5b808211156114bf5760008155600101611612565b5b808211156114bf57805473ffffffffffffffffffffffffffffffffffffffff19168155600101611627565b80356001600160a01b038116811461166957600080fd5b92915050565b600082601f83011261167f578081fd5b813561169261168d82611eed565b611ec6565b8181529150602080830190848101818402860182018710156116b357600080fd5b60005b848110156116da576116c88883611652565b845292820192908201906001016116b6565b505050505092915050565b600082601f8301126116f5578081fd5b813561170361168d82611eed565b818152915060208083019084810160005b848110156116da578135870188603f82011261172f57600080fd5b8381013561173f61168d82611eed565b818152858101906040848101888502860182018e101561175e57600080fd5b600095505b84861015611781578035845260019590950194928801928801611763565b505087525050509282019290820190600101611714565b6000602082840312156117a9578081fd5b6117b38383611652565b9392505050565b600080604083850312156117cc578081fd5b6117d68484611652565b91506117e58460208501611652565b90509250929050565b6000602082840312156117ff578081fd5b813567ffffffffffffffff811115611815578182fd5b6118218482850161166f565b949350505050565b6000602080838503121561183b578182fd5b825167ffffffffffffffff811115611851578283fd5b8301601f81018513611861578283fd5b805161186f61168d82611eed565b818152838101908385018584028501860189101561188b578687fd5b8694505b838510156118ad57805183526001949094019391850191850161188f565b50979650505050505050565b6000602082840312156118ca578081fd5b815180151581146117b3578182fd5b6000602082840312156118ea578081fd5b5035919050565b600080600080600060a08688031215611908578081fd5b853567ffffffffffffffff8082111561191f578283fd5b818801915088601f830112611932578283fd5b813581811115611940578384fd5b602061195481601f19601f85011601611ec6565b8281528b82848701011115611967578586fd5b8282860183830137918201810185905290975088013595506040880135915080821115611992578283fd5b61199e89838a0161166f565b945060608801359150808211156119b3578283fd5b6119bf89838a016116e5565b935060808801359150808211156119d4578283fd5b506119e1888289016116e5565b9150509295509295909350565b6000602082840312156119ff578081fd5b5051919050565b60008060408385031215611a18578182fd5b823591506117e58460208501611652565b600080600060608486031215611a3d578283fd5b83359250611a4e8560208601611652565b9150604084013590509250925092565b60008060008060808587031215611a73578182fd5b8435935060208501356001600160a01b0381168114611a90578283fd5b93969395505050506040820135916060013590565b60008060408385031215611ab7578182fd5b50508035926020909101359150565b6000815180845260208085019450808401835b83811015611afe5781516001600160a01b031687529582019590820190600101611ad9565b509495945050505050565b6000815180845260208085019450808401835b83811015611afe57815187529582019590820190600101611b1c565b60609390931b7fffffffffffffffffffffffffffffffffffffffff0000000000000000000000001683526014830191909152603482015260540190565b6001600160a01b0391909116815260200190565b6001600160a01b039384168152919092166020820152604081019190915260600190565b6001600160a01b039390931683526020830191909152604082015260600190565b6001600160a01b03929092168252602082015260400190565b6000602082526117b36020830184611ac6565b60208082528251828201819052600091906040908185019080840286018301878501865b83811015611cc2577fffffffffffffffffffffffffffffffffffffffffffffffffffffffffffffffc0898403018552815160a08151855288820151818a8701528051611c6c81848901611e88565b9250611c7b81848d8501611f0d565b89840151878b0152606080850151908801526080938401516001600160a01b0316939096019290925295880195601f909401601f1916909301925090860190600101611c1e565b509098975050505050505050565b6000602082526117b36020830184611b09565b60208082526026908201527f4f776e61626c653a206e6577206f776e657220697320746865207a65726f206160408201527f6464726573730000000000000000000000000000000000000000000000000000606082015260800190565b60208082526012908201527f6c6576656c2072616e646f6d206572726f720000000000000000000000000000604082015260600190565b6020808252600c908201527f706172616d73206572726f720000000000000000000000000000000000000000604082015260600190565b6020808252818101527f4f776e61626c653a2063616c6c6572206973206e6f7420746865206f776e6572604082015260600190565b6020808252600b908201527f616d6f756e74206c6f636b000000000000000000000000000000000000000000604082015260600190565b60208082526017908201527f50726f686962697420636f6e74726163742063616c6c73000000000000000000604082015260600190565b60208082526011908201527f747970652072616e646f6d206572726f72000000000000000000000000000000604082015260600190565b90815260200190565b600084825260606020830152611eaa6060830185611ac6565b8281036040840152611ebc8185611b09565b9695505050505050565b60405181810167ffffffffffffffff81118282101715611ee557600080fd5b604052919050565b600067ffffffffffffffff821115611f03578081fd5b5060209081020190565b60005b83811015611f28578181015183820152602001611f10565b83811115611f37576000848401525b5050505056fea26469706673582212201f0ebd8f33c8585459925a599c523605e85372f4c7b8e764df8264670652698f64736f6c634300060c0033",
  "immutableReferences": {},
  "source": "// SPDX-License-Identifier: MIT\r\npragma solidity >=0.6.12;\r\npragma experimental ABIEncoderV2;\r\n\r\nimport \"../open/token/ERC721/ERC721.sol\";\r\nimport \"../open/token/ERC20/IERC20.sol\";\r\nimport \"../open/utils/SafeMath.sol\";\r\nimport \"../open/utils/Strings.sol\";\r\nimport \"../open/utils/Address.sol\";\r\nimport \"../open/utils/Initializable.sol\";\r\nimport \"../open/utils/Ownable.sol\";\r\nimport \"../libraries/Random.sol\";\r\nimport \"../nftLib/FishNftFactory.sol\";\r\n\r\ninterface Factory{\r\n    function getTypes() external view returns(uint[] memory);\r\n}\r\n\r\n// interface IPancakeRouter02{\r\n//     function getAmountsOut(uint amountIn, address[] calldata path)\r\n//         external\r\n//         view\r\n//         returns (uint[] memory amounts);\r\n// }\r\n\r\ncontract MysteryBox is  Initializable,Ownable {\r\n\r\n    event OpenBox(uint256 indexed id, address indexed nft, uint256 boxId, uint256 tokenId);\r\n    event Minted(uint256 indexed id, uint256 indexed factoryId, address to);\r\n\r\n    using SafeMath for uint256;\r\n\r\n    mapping(address => Nft1155Factory) public factoryMap;\r\n\r\n    address[] supportNftList;\r\n\r\n    mapping(address => uint[]) nftSupportLevels;\r\n\r\n    struct Box {\r\n        uint256 id;\r\n        string name;\r\n        uint256 price;\r\n        uint256 total;\r\n        address[] suppoutNfts;\r\n        mapping(address => uint) nft2Surplus;\r\n        mapping(address => mapping(uint => uint)) nft2Level2Surplus;\r\n    }\r\n\r\n    struct BoxView {\r\n        uint256 id;         //id\r\n        string name;        //\r\n        uint total;         //\r\n        uint price;         //\r\n        address currency;   //\r\n    }\r\n\r\n    IERC20 public payToken;\r\n\r\n    Box[] internal boxList;\r\n\r\n    uint accSeed;\r\n\r\n    struct BoxResult{\r\n        address nft;    \r\n        uint level;\r\n    }\r\n\r\n    mapping( bytes32 => BoxResult) public boxResults;\r\n\r\n    constructor() public {}\r\n\r\n    function initialize(\r\n            address _payToken,\r\n            address _ownerAddress\r\n            ) public {\r\n        payToken = IERC20(_payToken);\r\n        _owner = _ownerAddress;\r\n        accSeed = 10000;\r\n    }\r\n\r\n    function setBoxPrice(uint index,uint price)external onlyOwner{\r\n        boxList[index].price = price;\r\n    }\r\n\r\n    function getBoxPrice(uint index)external view returns(uint){\r\n        return boxList[index].price;\r\n    }\r\n\r\n    function getBoxLength()external view returns(uint){\r\n        return boxList.length;\r\n    }\r\n\r\n    function getSupportNfts()external view returns(address[] memory){\r\n        return supportNftList;\r\n    }\r\n\r\n    function getNftSupportLevels(address nft)external view returns(uint[] memory){\r\n        return nftSupportLevels[nft];\r\n    }\r\n\r\n    function getBoxs()public view returns(BoxView[] memory boxs){\r\n\r\n        uint len = boxList.length;\r\n        boxs = new BoxView[](len);\r\n        for( uint i = 0; i< len; i++ ){\r\n            BoxView memory box;\r\n            box.id  = boxList[i].id;\r\n            box.name  = boxList[i].name;\r\n            box.price  = boxList[i].price;\r\n            box.total  = boxList[i].total;\r\n            box.currency  = address(payToken);\r\n            boxs[i] = box;\r\n        }\r\n    }\r\n\r\n    // function _equivalent(address token1,uint amount1,address token2)internal view returns(uint){\r\n\r\n    //     address[] memory path = new address[](2);\r\n    //     path[0] = token1;\r\n    //     path[1] = token2;\r\n    //     uint[] memory amountOuts = route.getAmountsOut(amount1, path);\r\n\r\n    //     require(amountOuts.length == path.length,\"getAmountsOut error\");\r\n    //     return amountOuts[1];\r\n    // }\r\n    \r\n    function buyBox(uint256 boxId,bytes32 flag) external {\r\n\r\n        require(isContract(msg.sender) == false && tx.origin == msg.sender, \"Prohibit contract calls\");\r\n\r\n        Box storage box = boxList[boxId];\r\n\r\n        uint needAmount = box.price;\r\n\r\n        payToken.transferFrom(msg.sender, address(this), needAmount);\r\n        \r\n        require(box.total > 0,\"amount lock\");\r\n\r\n        box.total --;\r\n\r\n        (address nft,uint level) = _random(box);\r\n\r\n        factoryMap[nft].mint(msg.sender,level,1);\r\n\r\n        boxResults[flag] = BoxResult( nft,level);\r\n    }\r\n\r\n    function _random(Box storage box)internal returns(address nft,uint  level) {\r\n        \r\n        uint256 seed = uint256(keccak256(abi.encodePacked(block.coinbase,block.timestamp,accSeed)));\r\n\r\n        uint seed1 = seed % box.total;\r\n\r\n        nft = _getNft(box,seed1);\r\n        require(nft != address(0),\"type random error\");\r\n\r\n        uint nft2Sruplus = box.nft2Surplus[nft];\r\n\r\n        uint seed2 = seed % nft2Sruplus;\r\n        level = _getLevel(nft,box,seed2);\r\n        require(level != 0,\"level random error\");\r\n\r\n        accSeed += (seed % accSeed); \r\n    }\r\n\r\n    function _getNft(Box storage box,uint seed)internal view returns(address nft){\r\n\r\n        address[] memory nfts = box.suppoutNfts;\r\n\r\n        uint len = nfts.length;\r\n\r\n        uint256 sum = 0;\r\n        for( uint256 i = 0; i < len ; i++){\r\n            \r\n            sum += box.nft2Surplus[nfts[i]];\r\n\r\n            if( seed <= sum && nft == address(0) ){\r\n                nft = nfts[i];\r\n            }\r\n        }\r\n    }\r\n\r\n    function _getLevel(address nft,Box storage box,uint seed)internal view returns(uint level){\r\n\r\n        uint[] storage levels = nftSupportLevels[nft];\r\n\r\n        uint len = levels.length;\r\n\r\n        uint256 sum = 0;\r\n        for( uint256 i = 0; i < len ; i++){\r\n\r\n            sum += box.nft2Level2Surplus[nft][levels[i]];\r\n\r\n            if( seed <= sum && level == 0){\r\n                level = levels[i];\r\n            }\r\n        }\r\n    }\r\n\r\n    \r\n    function isContract(address addr) internal view returns (bool) {\r\n        uint size;\r\n        assembly { size := extcodesize(addr) }\r\n        return size > 0;\r\n    }\r\n\r\n    function addSupportNft(address nft,address factory)external onlyOwner{\r\n        supportNftList.push(nft);\r\n        factoryMap[nft] = Nft1155Factory(factory);\r\n        nftSupportLevels[nft] = Factory(factory).getTypes();\r\n    }\r\n\r\n    function initLevels(address[] memory nfts)external onlyOwner{\r\n        for( uint i = 0; i < nfts.length; i ++ ){\r\n            nftSupportLevels[nfts[i]] = [1,2,3,4,5];\r\n        }\r\n    }\r\n\r\n    function getNft2Sruplus(uint index,address nft)external view returns(\r\n            uint amount,\r\n            address[] memory supportNfts,\r\n            uint[] memory levels ){\r\n\r\n\r\n        Box storage box  = boxList[index];\r\n\r\n        amount = box.nft2Surplus[nft];\r\n        supportNfts = box.suppoutNfts;\r\n        levels = nftSupportLevels[nft];\r\n    }\r\n\r\n\r\n    function getNft2Level2Surplus(uint index,address nft,uint level)external view returns(uint){\r\n        Box storage box  = boxList[index];\r\n\r\n        return box.nft2Level2Surplus[nft][level];\r\n    }\r\n    \r\n    \r\n    \r\n    function initBox(\r\n        string memory _name,\r\n        uint256 _price,\r\n        address[] memory nfts,\r\n        uint[][] memory levelList,\r\n        uint[][] memory amountList)external onlyOwner{\r\n\r\n            uint id = boxList.length;\r\n\r\n            boxList.push(Box(\r\n                id,\r\n                _name,\r\n                _price,\r\n                0,\r\n                new address[](0)\r\n            )) ;\r\n\r\n            Box storage box  = boxList[id];\r\n\r\n            uint len = nfts.length;\r\n\r\n            uint sum = 0;\r\n            for( uint i = 0; i < len; i++ ){\r\n                address nft = nfts[i];\r\n\r\n                box.suppoutNfts.push(nft);\r\n\r\n                uint[] memory levels = levelList[i];\r\n                uint[] memory amounts = amountList[i];\r\n\r\n                require(levels.length == amounts.length,\"params error\");\r\n\r\n                uint l = levels.length;\r\n\r\n                uint s1 = 0;\r\n                for( uint k = 0; k < l; k++ ){\r\n                    box.nft2Level2Surplus[nft][levels[k]] += amounts[k];\r\n                    s1 += amounts[k];\r\n                }\r\n                box.nft2Surplus[nft] += s1;\r\n                sum += s1;\r\n            }\r\n            box.total += sum;\r\n    }\r\n\r\n    function addBox(uint index,address nft,uint level,uint amount)external onlyOwner{\r\n        Box storage box  = boxList[index];\r\n        box.total += amount;\r\n        box.nft2Surplus[nft] += amount;\r\n        box.nft2Level2Surplus[nft][level] += amount;\r\n    }\r\n}\r\n",
  "sourcePath": "/Users/jie/Desktop/CC/fist/nft/contracts/nft/MysteryBox.sol",
  "compiler": {
    "name": "solc",
    "version": "0.6.12+commit.27d51765.Emscripten.clang"
  },
  "schemaVersion": "3.4.4",
  "updatedAt": "2022-01-23T17:02:27.789Z",
  "devdoc": {
    "kind": "dev",
    "methods": {
      "owner()": {
        "details": "Returns the address of the current owner."
      },
      "renounceOwnership()": {
        "details": "Leaves the contract without owner. It will not be possible to call `onlyOwner` functions anymore. Can only be called by the current owner. NOTE: Renouncing ownership will leave the contract without an owner, thereby removing any functionality that is only available to the owner."
      },
      "transferOwnership(address)": {
        "details": "Transfers ownership of the contract to a new account (`newOwner`). Can only be called by the current owner."
      }
    },
    "version": 1
  },
  "userdoc": {
    "kind": "user",
    "methods": {},
    "version": 1
  }
}