{
  "contractName": "Nadmin",
  "abi": [
    {
      "inputs": [],
      "stateMutability": "nonpayable",
      "type": "constructor"
    },
    {
      "anonymous": false,
      "inputs": [
        {
          "indexed": true,
          "internalType": "address",
          "name": "previousOwner",
          "type": "address"
        },
        {
          "indexed": true,
          "internalType": "address",
          "name": "newOwner",
          "type": "address"
        }
      ],
      "name": "OwnershipTransferred",
      "type": "event"
    },
    {
      "inputs": [
        {
          "internalType": "address",
          "name": "",
          "type": "address"
        }
      ],
      "name": "nft1155Factorys",
      "outputs": [
        {
          "internalType": "address",
          "name": "",
          "type": "address"
        }
      ],
      "stateMutability": "view",
      "type": "function",
      "constant": true
    },
    {
      "inputs": [
        {
          "internalType": "address",
          "name": "",
          "type": "address"
        }
      ],
      "name": "nft721Factorys",
      "outputs": [
        {
          "internalType": "address",
          "name": "",
          "type": "address"
        }
      ],
      "stateMutability": "view",
      "type": "function",
      "constant": true
    },
    {
      "inputs": [],
      "name": "owner",
      "outputs": [
        {
          "internalType": "address",
          "name": "",
          "type": "address"
        }
      ],
      "stateMutability": "view",
      "type": "function",
      "constant": true
    },
    {
      "inputs": [],
      "name": "renounceOwnership",
      "outputs": [],
      "stateMutability": "nonpayable",
      "type": "function"
    },
    {
      "inputs": [
        {
          "internalType": "address",
          "name": "newOwner",
          "type": "address"
        }
      ],
      "name": "transferOwnership",
      "outputs": [],
      "stateMutability": "nonpayable",
      "type": "function"
    },
    {
      "inputs": [
        {
          "internalType": "address",
          "name": "_ownerAddress",
          "type": "address"
        }
      ],
      "name": "initialize",
      "outputs": [],
      "stateMutability": "nonpayable",
      "type": "function"
    },
    {
      "inputs": [
        {
          "internalType": "address[]",
          "name": "nfts",
          "type": "address[]"
        },
        {
          "internalType": "address[]",
          "name": "factorys",
          "type": "address[]"
        }
      ],
      "name": "set1155NftAndFactory",
      "outputs": [],
      "stateMutability": "nonpayable",
      "type": "function"
    },
    {
      "inputs": [
        {
          "internalType": "address",
          "name": "nft",
          "type": "address"
        },
        {
          "internalType": "address",
          "name": "factory",
          "type": "address"
        }
      ],
      "name": "set721NftAndFactory",
      "outputs": [],
      "stateMutability": "nonpayable",
      "type": "function"
    },
    {
      "inputs": [
        {
          "internalType": "address",
          "name": "factory",
          "type": "address"
        },
        {
          "internalType": "address",
          "name": "owner",
          "type": "address"
        },
        {
          "internalType": "uint256",
          "name": "level",
          "type": "uint256"
        },
        {
          "internalType": "uint256",
          "name": "amount",
          "type": "uint256"
        }
      ],
      "name": "send1155Nft",
      "outputs": [],
      "stateMutability": "nonpayable",
      "type": "function"
    },
    {
      "inputs": [
        {
          "internalType": "address",
          "name": "factory",
          "type": "address"
        },
        {
          "internalType": "address",
          "name": "owner",
          "type": "address"
        },
        {
          "internalType": "uint256",
          "name": "level",
          "type": "uint256"
        }
      ],
      "name": "send721Nft",
      "outputs": [],
      "stateMutability": "nonpayable",
      "type": "function"
    },
    {
      "inputs": [
        {
          "internalType": "address",
          "name": "nft",
          "type": "address"
        },
        {
          "internalType": "uint256",
          "name": "level",
          "type": "uint256"
        }
      ],
      "name": "getFishFryInfo",
      "outputs": [
        {
          "components": [
            {
              "internalType": "string",
              "name": "name",
              "type": "string"
            },
            {
              "internalType": "uint256",
              "name": "growthCycle",
              "type": "uint256"
            },
            {
              "internalType": "uint256",
              "name": "occupySpace",
              "type": "uint256"
            }
          ],
          "internalType": "struct FishPart.FishFryConfig",
          "name": "",
          "type": "tuple"
        }
      ],
      "stateMutability": "view",
      "type": "function",
      "constant": true
    },
    {
      "inputs": [
        {
          "internalType": "address",
          "name": "nft",
          "type": "address"
        },
        {
          "internalType": "uint256",
          "name": "level",
          "type": "uint256"
        }
      ],
      "name": "getFishFoodInfo",
      "outputs": [
        {
          "components": [
            {
              "internalType": "string",
              "name": "name",
              "type": "string"
            },
            {
              "internalType": "uint256",
              "name": "speedGrowth",
              "type": "uint256"
            }
          ],
          "internalType": "struct FishPart.FoodConfig",
          "name": "",
          "type": "tuple"
        }
      ],
      "stateMutability": "view",
      "type": "function",
      "constant": true
    },
    {
      "inputs": [
        {
          "internalType": "address",
          "name": "nft",
          "type": "address"
        },
        {
          "internalType": "uint256",
          "name": "level",
          "type": "uint256"
        }
      ],
      "name": "getFishSpaceInfo",
      "outputs": [
        {
          "components": [
            {
              "internalType": "string",
              "name": "name",
              "type": "string"
            },
            {
              "internalType": "uint256",
              "name": "spaceValue",
              "type": "uint256"
            }
          ],
          "internalType": "struct FishPart.SpaceConfig",
          "name": "",
          "type": "tuple"
        }
      ],
      "stateMutability": "view",
      "type": "function",
      "constant": true
    },
    {
      "inputs": [
        {
          "internalType": "address",
          "name": "nft",
          "type": "address"
        },
        {
          "internalType": "uint256",
          "name": "level",
          "type": "uint256"
        }
      ],
      "name": "getFishOxygenInfo",
      "outputs": [
        {
          "components": [
            {
              "internalType": "uint256",
              "name": "speedGrowth",
              "type": "uint256"
            }
          ],
          "internalType": "struct FishPart.OxygenConfig",
          "name": "",
          "type": "tuple"
        }
      ],
      "stateMutability": "view",
      "type": "function",
      "constant": true
    },
    {
      "inputs": [
        {
          "internalType": "address",
          "name": "nft",
          "type": "address"
        },
        {
          "internalType": "uint256[]",
          "name": "ids",
          "type": "uint256[]"
        }
      ],
      "name": "get721NftInfo",
      "outputs": [
        {
          "internalType": "uint256[]",
          "name": "levels",
          "type": "uint256[]"
        },
        {
          "internalType": "uint256[]",
          "name": "powers",
          "type": "uint256[]"
        }
      ],
      "stateMutability": "view",
      "type": "function",
      "constant": true
    },
    {
      "inputs": [
        {
          "internalType": "address",
          "name": "nft",
          "type": "address"
        }
      ],
      "name": "get1155Types",
      "outputs": [
        {
          "internalType": "uint256[]",
          "name": "",
          "type": "uint256[]"
        }
      ],
      "stateMutability": "view",
      "type": "function",
      "constant": true
    },
    {
      "inputs": [
        {
          "internalType": "address",
          "name": "nft",
          "type": "address"
        }
      ],
      "name": "get721Types",
      "outputs": [
        {
          "internalType": "uint256[]",
          "name": "",
          "type": "uint256[]"
        }
      ],
      "stateMutability": "view",
      "type": "function",
      "constant": true
    }
  ],
  "bytecode": "0x608060405234801561001057600080fd5b5061002161001c610026565b61002a565b610085565b3390565b600080546001600160a01b038381166201000081810262010000600160b01b0319851617855560405193049190911692909183917f8be0079c531659141344cd1fd0a4f28419497f9722a3daafe3b4186f6b6457e091a35050565b61144c806100946000396000f3fe608060405234801561001057600080fd5b506004361061011b5760003560e01c8063817120e7116100b2578063c4d66de811610081578063d4f744ad11610066578063d4f744ad1461025b578063e50997cb1461026e578063f2fde38b146102815761011b565b8063c4d66de814610248578063c4eb1076146101495761011b565b8063817120e7146101ec5780638da5cb5b146101ff578063b0de27b514610207578063b99780ed146102275761011b565b80635d21ba4c116100ee5780635d21ba4c146101a9578063667348bd146101be578063715018a6146101d157806377ea8417146101d95761011b565b80631ba840d61461012057806327c506fc14610149578063440bb49414610169578063474e847214610189575b600080fd5b61013361012e366004610d9a565b610294565b60405161014091906111ae565b60405180910390f35b61015c610157366004610f10565b6102af565b6040516101409190611368565b61017c610177366004610f10565b610353565b604051610140919061137b565b61019c610197366004610d9a565b6103ea565b60405161014091906111fc565b6101bc6101b7366004610f3a565b610491565b005b6101bc6101cc366004610db5565b61057a565b6101bc6105ff565b61019c6101e7366004610d9a565b61064a565b6101bc6101fa366004610de9565b6106b5565b61013361078d565b61021a610215366004610f10565b6107a2565b604051610140919061132c565b61023a610235366004610e6c565b61083d565b60405161014092919061120f565b6101bc610256366004610d9a565b6108f8565b6101bc610269366004610e29565b6109c4565b61013361027c366004610d9a565b610aa5565b6101bc61028f366004610d9a565b610ac0565b6001602052600090815260409020546001600160a01b031681565b6102b7610ba6565b6001600160a01b038084166000908152600160205260409081902054905163a81b2f8d60e01b815291169063a81b2f8d906102f6908590600401611385565b60006040518083038186803b15801561030e57600080fd5b505afa158015610322573d6000803e3d6000fd5b505050506040513d6000823e601f3d908101601f1916820160405261034a91908101906110af565b90505b92915050565b61035b610bc0565b6001600160a01b038084166000908152600160205260409081902054905163a81b2f8d60e01b815291169063a81b2f8d9061039a908590600401611385565b60206040518083038186803b1580156103b257600080fd5b505afa1580156103c6573d6000803e3d6000fd5b505050506040513d601f19601f8201168201806040525081019061034a91906110e2565b6001600160a01b038082166000908152600260205260408082205481517fb4579d600000000000000000000000000000000000000000000000000000000081529151606094919091169263b4579d609260048082019391829003018186803b15801561045557600080fd5b505afa158015610469573d6000803e3d6000fd5b505050506040513d6000823e601f3d908101601f1916820160405261034d9190810190610f9b565b610499610b31565b6001600160a01b03166104aa61078d565b6001600160a01b0316146104d95760405162461bcd60e51b81526004016104d0906112f7565b60405180910390fd5b80518251146104e757600080fd5b815160005b818110156105745782818151811061050057fe5b60200260200101516001600086848151811061051857fe5b6020908102919091018101516001600160a01b0390811683529082019290925260400160002080547fffffffffffffffffffffffff000000000000000000000000000000000000000016929091169190911790556001016104ec565b50505050565b610582610b31565b6001600160a01b031661059361078d565b6001600160a01b0316146105b95760405162461bcd60e51b81526004016104d0906112f7565b6001600160a01b03918216600090815260026020526040902080547fffffffffffffffffffffffff00000000000000000000000000000000000000001691909216179055565b610607610b31565b6001600160a01b031661061861078d565b6001600160a01b03161461063e5760405162461bcd60e51b81526004016104d0906112f7565b6106486000610b35565b565b6001600160a01b038082166000908152600160205260408082205481517fb4579d600000000000000000000000000000000000000000000000000000000081529151606094919091169263b4579d609260048082019391829003018186803b15801561045557600080fd5b6106bd610b31565b6001600160a01b03166106ce61078d565b6001600160a01b0316146106f45760405162461bcd60e51b81526004016104d0906112f7565b6040517f40c10f190000000000000000000000000000000000000000000000000000000081526001600160a01b038416906340c10f199061073b90859085906004016111c2565b602060405180830381600087803b15801561075557600080fd5b505af1158015610769573d6000803e3d6000fd5b505050506040513d601f19601f820116820180604052508101906105749190611107565b6000546201000090046001600160a01b031690565b6107aa610bd3565b6001600160a01b038084166000908152600160205260409081902054905163a81b2f8d60e01b815291169063a81b2f8d906107e9908590600401611385565b60006040518083038186803b15801561080157600080fd5b505afa158015610815573d6000803e3d6000fd5b505050506040513d6000823e601f3d908101601f1916820160405261034a919081019061102d565b6001600160a01b03808316600090815260026020526040908190205490517f4f8c888400000000000000000000000000000000000000000000000000000000815260609283921690634f8c8884906108999086906004016111fc565b60006040518083038186803b1580156108b157600080fd5b505afa1580156108c5573d6000803e3d6000fd5b505050506040513d6000823e601f3d908101601f191682016040526108ed9190810190610fd6565b915091509250929050565b600054610100900460ff1680610911575060005460ff16155b61092d5760405162461bcd60e51b81526004016104d09061129a565b600054610100900460ff1615801561097657600080547fffffffffffffffffffffffffffffffffffffffffffffffffffffffffffffff0061ff0019909116610100171660011790555b600080547fffffffffffffffffffff0000000000000000000000000000000000000000ffff16620100006001600160a01b0385160217905580156109c0576000805461ff00191690555b5050565b6109cc610b31565b6001600160a01b03166109dd61078d565b6001600160a01b031614610a035760405162461bcd60e51b81526004016104d0906112f7565b6040517f156e29f60000000000000000000000000000000000000000000000000000000081526001600160a01b0385169063156e29f690610a4c908690869086906004016111db565b602060405180830381600087803b158015610a6657600080fd5b505af1158015610a7a573d6000803e3d6000fd5b505050506040513d601f19601f82011682018060405250810190610a9e9190611107565b5050505050565b6002602052600090815260409020546001600160a01b031681565b610ac8610b31565b6001600160a01b0316610ad961078d565b6001600160a01b031614610aff5760405162461bcd60e51b81526004016104d0906112f7565b6001600160a01b038116610b255760405162461bcd60e51b81526004016104d09061123d565b610b2e81610b35565b50565b3390565b600080546001600160a01b03838116620100008181027fffffffffffffffffffff0000000000000000000000000000000000000000ffff851617855560405193049190911692909183917f8be0079c531659141344cd1fd0a4f28419497f9722a3daafe3b4186f6b6457e091a35050565b604051806040016040528060608152602001600081525090565b6040518060200160405280600081525090565b60405180606001604052806060815260200160008152602001600081525090565b80356001600160a01b038116811461034d57600080fd5b600082601f830112610c1b578081fd5b8135610c2e610c29826113b5565b61138e565b818152915060208083019084810181840286018201871015610c4f57600080fd5b60005b84811015610c7657610c648883610bf4565b84529282019290820190600101610c52565b505050505092915050565b600082601f830112610c91578081fd5b8151610c9f610c29826113b5565b818152915060208083019084810181840286018201871015610cc057600080fd5b60005b84811015610c7657815184529282019290820190600101610cc3565b600082601f830112610cef578081fd5b815167ffffffffffffffff811115610d05578182fd5b610d186020601f19601f8401160161138e565b9150808252836020828501011115610d2f57600080fd5b610d408160208401602086016113d5565b5092915050565b600060408284031215610d58578081fd5b610d62604061138e565b9050815167ffffffffffffffff811115610d7b57600080fd5b610d8784828501610cdf565b8252506020820151602082015292915050565b600060208284031215610dab578081fd5b61034a8383610bf4565b60008060408385031215610dc7578081fd5b610dd18484610bf4565b9150610de08460208501610bf4565b90509250929050565b600080600060608486031215610dfd578081fd5b8335610e0881611401565b92506020840135610e1881611401565b929592945050506040919091013590565b60008060008060808587031215610e3e578081fd5b610e488686610bf4565b9350610e578660208701610bf4565b93969395505050506040820135916060013590565b60008060408385031215610e7e578182fd5b610e888484610bf4565b915060208084013567ffffffffffffffff811115610ea4578283fd5b8401601f81018613610eb4578283fd5b8035610ec2610c29826113b5565b81815283810190838501858402850186018a1015610ede578687fd5b8694505b83851015610f00578035835260019490940193918501918501610ee2565b5080955050505050509250929050565b60008060408385031215610f22578182fd5b610f2c8484610bf4565b946020939093013593505050565b60008060408385031215610f4c578182fd5b823567ffffffffffffffff80821115610f63578384fd5b610f6f86838701610c0b565b93506020850135915080821115610f84578283fd5b50610f9185828601610c0b565b9150509250929050565b600060208284031215610fac578081fd5b815167ffffffffffffffff811115610fc2578182fd5b610fce84828501610c81565b949350505050565b60008060408385031215610fe8578182fd5b825167ffffffffffffffff80821115610fff578384fd5b61100b86838701610c81565b93506020850151915080821115611020578283fd5b50610f9185828601610c81565b60006020828403121561103e578081fd5b815167ffffffffffffffff80821115611055578283fd5b9083019060608286031215611068578283fd5b611072606061138e565b825182811115611080578485fd5b61108c87828601610cdf565b825250602083015160208201526040830151604082015280935050505092915050565b6000602082840312156110c0578081fd5b815167ffffffffffffffff8111156110d6578182fd5b610fce84828501610d47565b6000602082840312156110f3578081fd5b6110fd602061138e565b9151825250919050565b600060208284031215611118578081fd5b5051919050565b6000815180845260208085019450808401835b8381101561114e57815187529582019590820190600101611132565b509495945050505050565b600081518084526111718160208601602086016113d5565b601f01601f19169290920160200192915050565b600081516040845261119a6040850182611159565b602093840151949093019390935250919050565b6001600160a01b0391909116815260200190565b6001600160a01b03929092168252602082015260400190565b6001600160a01b039390931683526020830191909152604082015260600190565b60006020825261034a602083018461111f565b600060408252611222604083018561111f565b8281036020840152611234818561111f565b95945050505050565b60208082526026908201527f4f776e61626c653a206e6577206f776e657220697320746865207a65726f206160408201527f6464726573730000000000000000000000000000000000000000000000000000606082015260800190565b6020808252602e908201527f496e697469616c697a61626c653a20636f6e747261637420697320616c72656160408201527f647920696e697469616c697a6564000000000000000000000000000000000000606082015260800190565b6020808252818101527f4f776e61626c653a2063616c6c6572206973206e6f7420746865206f776e6572604082015260600190565b6000602082528251606060208401526113486080840182611159565b905060208401516040840152604084015160608401528091505092915050565b60006020825261034a6020830184611185565b9051815260200190565b90815260200190565b60405181810167ffffffffffffffff811182821017156113ad57600080fd5b604052919050565b600067ffffffffffffffff8211156113cb578081fd5b5060209081020190565b60005b838110156113f05781810151838201526020016113d8565b838111156105745750506000910152565b6001600160a01b0381168114610b2e57600080fdfea2646970667358221220b62c07a17ff1a5977cd06eb056d3abf9940169534c269a354708bab060cfb91b64736f6c634300060c0033",
  "immutableReferences": {},
  "source": "// SPDX-License-Identifier: Unlicensed\npragma solidity >=0.5.0;\npragma experimental ABIEncoderV2;\n\nimport \"../open/utils/Initializable.sol\";\nimport \"../open/utils/Ownable.sol\";\nimport \"../nftLib/FishNftFactory.sol\";\nimport \"../nftLib/FishPart.sol\";\n\n\n\ncontract Nadmin is Initializable,Ownable{\n\n    mapping(address => address) public nft1155Factorys;\n\n    mapping(address => address) public nft721Factorys;\n\n    constructor() public {}\n\n    function initialize(\n        address _ownerAddress\n    ) public initializer {\n        _owner = _ownerAddress;\n    }\n\n    function set1155NftAndFactory(address[] memory nfts,address[] memory factorys)external onlyOwner{\n        require(nfts.length == factorys.length);\n\n        uint len = nfts.length;\n\n        for( uint i = 0; i < len; i++){\n            nft1155Factorys[nfts[i]] = factorys[i];\n        }\n    }\n\n    function set721NftAndFactory(address nft,address factory)external onlyOwner{\n        nft721Factorys[nft] = factory;\n    }\n\n    function send1155Nft(address factory,address owner,uint level,uint amount)external onlyOwner{\n        Nft1155Factory(factory).mint(owner, level, amount);\n    }\n\n    function send721Nft(address factory,address owner,uint level)external onlyOwner{\n        FishNftFactory(factory).mint(owner, level);\n    }\n\n    function getFishFryInfo(address nft,uint level)external view returns(FishPart.FishFryConfig memory){\n        return FishFryNftFactory(nft1155Factorys[nft]).getConfig(level);\n    }\n\n    function getFishFoodInfo(address nft,uint level)external view returns(FishPart.FoodConfig memory){\n        return FoodNftFactory(nft1155Factorys[nft]).getConfig(level);\n    }\n\n    function getFishSpaceInfo(address nft,uint level)external view returns(FishPart.SpaceConfig memory){\n        return SpaceNftFactory(nft1155Factorys[nft]).getConfig(level);\n    }\n\n    function getFishOxygenInfo(address nft,uint level)external view returns(FishPart.OxygenConfig memory){\n        return OxygenNftFactory(nft1155Factorys[nft]).getConfig(level);\n    }\n\n    function get721NftInfo(address nft,uint[] memory ids)external view returns(uint[] memory levels,uint[] memory powers) {\n        return FishNftFactory(nft721Factorys[nft]).getConfig(ids);\n    }\n\n    function get1155Types(address nft)external view returns(uint[] memory){\n        return NftFactory(nft1155Factorys[nft]).getTypes();\n    }\n\n    function get721Types(address nft)external view returns(uint[] memory){\n        return NftFactory(nft721Factorys[nft]).getTypes();\n    }\n}",
  "sourcePath": "/Users/jie/Desktop/CC/fist/nft/contracts/nft/Nadmin.sol",
  "compiler": {
    "name": "solc",
    "version": "0.6.12+commit.27d51765.Emscripten.clang"
  },
  "schemaVersion": "3.4.4",
  "updatedAt": "2022-01-17T14:18:43.191Z",
  "networkType": "ethereum",
  "devdoc": {
    "kind": "dev",
    "methods": {
      "owner()": {
        "details": "Returns the address of the current owner."
      },
      "renounceOwnership()": {
        "details": "Leaves the contract without owner. It will not be possible to call `onlyOwner` functions anymore. Can only be called by the current owner. NOTE: Renouncing ownership will leave the contract without an owner, thereby removing any functionality that is only available to the owner."
      },
      "transferOwnership(address)": {
        "details": "Transfers ownership of the contract to a new account (`newOwner`). Can only be called by the current owner."
      }
    },
    "version": 1
  },
  "userdoc": {
    "kind": "user",
    "methods": {},
    "version": 1
  }
}