{
  "contractName": "Ncomp",
  "abi": [
    {
      "inputs": [],
      "stateMutability": "nonpayable",
      "type": "constructor"
    },
    {
      "anonymous": false,
      "inputs": [
        {
          "indexed": true,
          "internalType": "address",
          "name": "previousOwner",
          "type": "address"
        },
        {
          "indexed": true,
          "internalType": "address",
          "name": "newOwner",
          "type": "address"
        }
      ],
      "name": "OwnershipTransferred",
      "type": "event"
    },
    {
      "inputs": [
        {
          "internalType": "bytes32",
          "name": "",
          "type": "bytes32"
        }
      ],
      "name": "boxResults",
      "outputs": [
        {
          "internalType": "address",
          "name": "nft",
          "type": "address"
        },
        {
          "internalType": "uint256",
          "name": "level",
          "type": "uint256"
        }
      ],
      "stateMutability": "view",
      "type": "function"
    },
    {
      "inputs": [],
      "name": "compNToken",
      "outputs": [
        {
          "internalType": "contract IERC1155",
          "name": "",
          "type": "address"
        }
      ],
      "stateMutability": "view",
      "type": "function"
    },
    {
      "inputs": [],
      "name": "compNftFactory",
      "outputs": [
        {
          "internalType": "contract Nft1155Factory",
          "name": "",
          "type": "address"
        }
      ],
      "stateMutability": "view",
      "type": "function"
    },
    {
      "inputs": [],
      "name": "needNToken",
      "outputs": [
        {
          "internalType": "contract IERC1155",
          "name": "",
          "type": "address"
        }
      ],
      "stateMutability": "view",
      "type": "function"
    },
    {
      "inputs": [],
      "name": "needNftFactory",
      "outputs": [
        {
          "internalType": "contract Nft1155Factory",
          "name": "",
          "type": "address"
        }
      ],
      "stateMutability": "view",
      "type": "function"
    },
    {
      "inputs": [
        {
          "internalType": "address",
          "name": "",
          "type": "address"
        },
        {
          "internalType": "address",
          "name": "",
          "type": "address"
        },
        {
          "internalType": "uint256[]",
          "name": "",
          "type": "uint256[]"
        },
        {
          "internalType": "uint256[]",
          "name": "",
          "type": "uint256[]"
        },
        {
          "internalType": "bytes",
          "name": "",
          "type": "bytes"
        }
      ],
      "name": "onERC1155BatchReceived",
      "outputs": [
        {
          "internalType": "bytes4",
          "name": "",
          "type": "bytes4"
        }
      ],
      "stateMutability": "nonpayable",
      "type": "function"
    },
    {
      "inputs": [
        {
          "internalType": "address",
          "name": "",
          "type": "address"
        },
        {
          "internalType": "address",
          "name": "",
          "type": "address"
        },
        {
          "internalType": "uint256",
          "name": "",
          "type": "uint256"
        },
        {
          "internalType": "uint256",
          "name": "",
          "type": "uint256"
        },
        {
          "internalType": "bytes",
          "name": "",
          "type": "bytes"
        }
      ],
      "name": "onERC1155Received",
      "outputs": [
        {
          "internalType": "bytes4",
          "name": "",
          "type": "bytes4"
        }
      ],
      "stateMutability": "nonpayable",
      "type": "function"
    },
    {
      "inputs": [
        {
          "internalType": "address",
          "name": "",
          "type": "address"
        },
        {
          "internalType": "address",
          "name": "",
          "type": "address"
        },
        {
          "internalType": "uint256",
          "name": "",
          "type": "uint256"
        },
        {
          "internalType": "bytes",
          "name": "",
          "type": "bytes"
        }
      ],
      "name": "onERC721Received",
      "outputs": [
        {
          "internalType": "bytes4",
          "name": "",
          "type": "bytes4"
        }
      ],
      "stateMutability": "nonpayable",
      "type": "function"
    },
    {
      "inputs": [],
      "name": "owner",
      "outputs": [
        {
          "internalType": "address",
          "name": "",
          "type": "address"
        }
      ],
      "stateMutability": "view",
      "type": "function"
    },
    {
      "inputs": [],
      "name": "renounceOwnership",
      "outputs": [],
      "stateMutability": "nonpayable",
      "type": "function"
    },
    {
      "inputs": [
        {
          "internalType": "bytes4",
          "name": "interfaceId",
          "type": "bytes4"
        }
      ],
      "name": "supportsInterface",
      "outputs": [
        {
          "internalType": "bool",
          "name": "",
          "type": "bool"
        }
      ],
      "stateMutability": "view",
      "type": "function"
    },
    {
      "inputs": [
        {
          "internalType": "address",
          "name": "newOwner",
          "type": "address"
        }
      ],
      "name": "transferOwnership",
      "outputs": [],
      "stateMutability": "nonpayable",
      "type": "function"
    },
    {
      "inputs": [
        {
          "internalType": "address",
          "name": "_needNToken",
          "type": "address"
        },
        {
          "internalType": "address",
          "name": "_compNToken",
          "type": "address"
        },
        {
          "internalType": "address",
          "name": "_needNftFactory",
          "type": "address"
        },
        {
          "internalType": "address",
          "name": "_compNftFactory",
          "type": "address"
        },
        {
          "internalType": "address",
          "name": "_ownerAddress",
          "type": "address"
        }
      ],
      "name": "initialize",
      "outputs": [],
      "stateMutability": "nonpayable",
      "type": "function"
    },
    {
      "inputs": [
        {
          "internalType": "uint256[]",
          "name": "ids",
          "type": "uint256[]"
        },
        {
          "internalType": "bytes32",
          "name": "flag",
          "type": "bytes32"
        }
      ],
      "name": "comp",
      "outputs": [],
      "stateMutability": "nonpayable",
      "type": "function"
    }
  ],
  "bytecode": "0x60806040526018600755600a60085534801561001a57600080fd5b5061002b610026610030565b610034565b61008f565b3390565b600080546001600160a01b038381166201000081810262010000600160b01b0319851617855560405193049190911692909183917f8be0079c531659141344cd1fd0a4f28419497f9722a3daafe3b4186f6b6457e091a35050565b610f968061009e6000396000f3fe608060405234801561001057600080fd5b50600436106100ea5760003560e01c80635fa1ae321161008c578063a1615e5311610066578063a1615e53146101b6578063bc197c81146101be578063f23a6e61146101d1578063f2fde38b146101e4576100ea565b80635fa1ae321461019e578063715018a6146101a65780638da5cb5b146101ae576100ea565b806317729c31116100c857806317729c311461014d57806323b86ca61461016e5780635a9a7b26146101815780635b5e43c914610196576100ea565b806301ffc9a7146100ef5780631459457a14610118578063150b7a021461012d575b600080fd5b6101026100fd366004610c1a565b6101f7565b60405161010f9190610d86565b60405180910390f35b61012b6101263660046109ad565b610253565b005b61014061013b366004610ac0565b610398565b60405161010f9190610d91565b61016061015b366004610c02565b6103c1565b60405161010f929190610d6d565b61012b61017c366004610b8d565b6103e6565b61018961064d565b60405161010f9190610c72565b61018961065c565b61018961066b565b61012b61067a565b6101896106c5565b6101896106da565b6101406101cc366004610a16565b6106e9565b6101406101df366004610b28565b610713565b61012b6101f236600461098b565b61073d565b60007fffffffff0000000000000000000000000000000000000000000000000000000082167f4e2312e000000000000000000000000000000000000000000000000000000000148061024d575061024d826107ae565b92915050565b600054610100900460ff168061026c575060005460ff16155b6102915760405162461bcd60e51b815260040161028890610e1b565b60405180910390fd5b600054610100900460ff161580156102da57600080547fffffffffffffffffffffffffffffffffffffffffffffffffffffffffffffff0061ff0019909116610100171660011790555b600180546001600160a01b038089167fffffffffffffffffffffffff00000000000000000000000000000000000000009283161790925560028054888416908316179055600380548784169083161790556004805486841692169190911790556018600755600a600855600580556000805491841662010000027fffffffffffffffffffff0000000000000000000000000000000000000000ffff9092169190911790558015610390576000805461ff00191690555b505050505050565b7f150b7a0200000000000000000000000000000000000000000000000000000000949350505050565b600660205260009081526040902080546001909101546001600160a01b039091169082565b81600481146104075760405162461bcd60e51b815260040161028890610ee4565b60408051600480825260a082019092526001916000916060916020820160808036833701905050905060005b8481101561048a5787878281811061044757fe5b905060200201358402935087878281811061045e57fe5b9050602002013583019250600182828151811061047757fe5b6020908102919091010152600101610433565b506007548314801561049d575060085482145b6104b95760405162461bcd60e51b815260040161028890610e78565b600180546040517f2eb2c2d60000000000000000000000000000000000000000000000000000000081526001600160a01b0390911691632eb2c2d6916105099133918c908c908890600401610c86565b600060405180830381600087803b15801561052357600080fd5b505af1158015610537573d6000803e3d6000fd5b5050600480546005546040517f156e29f60000000000000000000000000000000000000000000000000000000081526001600160a01b03909216945063156e29f6935061058992339260019101610d4c565b602060405180830381600087803b1580156105a357600080fd5b505af11580156105b7573d6000803e3d6000fd5b505050506040513d601f19601f820116820180604052508101906105db9190610c5a565b50506040805180820182526002546001600160a01b039081168252600554602080840191825260009889526006905292909620905181547fffffffffffffffffffffffff0000000000000000000000000000000000000000169616959095178555516001909401939093555050505050565b6002546001600160a01b031681565b6004546001600160a01b031681565b6003546001600160a01b031681565b6106826107f8565b6001600160a01b03166106936106c5565b6001600160a01b0316146106b95760405162461bcd60e51b815260040161028890610eaf565b6106c360006107fc565b565b6000546201000090046001600160a01b031690565b6001546001600160a01b031681565b7fbc197c810000000000000000000000000000000000000000000000000000000095945050505050565b7ff23a6e610000000000000000000000000000000000000000000000000000000095945050505050565b6107456107f8565b6001600160a01b03166107566106c5565b6001600160a01b03161461077c5760405162461bcd60e51b815260040161028890610eaf565b6001600160a01b0381166107a25760405162461bcd60e51b815260040161028890610dbe565b6107ab816107fc565b50565b7fffffffff0000000000000000000000000000000000000000000000000000000081167f01ffc9a70000000000000000000000000000000000000000000000000000000014919050565b3390565b600080546001600160a01b03838116620100008181027fffffffffffffffffffff0000000000000000000000000000000000000000ffff851617855560405193049190911692909183917f8be0079c531659141344cd1fd0a4f28419497f9722a3daafe3b4186f6b6457e091a35050565b80356001600160a01b038116811461024d57600080fd5b600082601f830112610894578081fd5b813567ffffffffffffffff8111156108aa578182fd5b60208082026108ba828201610f1b565b838152935081840185830182870184018810156108d657600080fd5b600092505b848310156108f95780358252600192909201919083019083016108db565b505050505092915050565b600082601f830112610914578081fd5b813567ffffffffffffffff81111561092a578182fd5b61095b60207fffffffffffffffffffffffffffffffffffffffffffffffffffffffffffffffe0601f84011601610f1b565b915080825283602082850101111561097257600080fd5b8060208401602084013760009082016020015292915050565b60006020828403121561099c578081fd5b6109a6838361086d565b9392505050565b600080600080600060a086880312156109c4578081fd5b6109ce878761086d565b94506109dd876020880161086d565b93506109ec876040880161086d565b92506109fb876060880161086d565b9150610a0a876080880161086d565b90509295509295909350565b600080600080600060a08688031215610a2d578081fd5b8535610a3881610f4b565b94506020860135610a4881610f4b565b9350604086013567ffffffffffffffff80821115610a64578283fd5b610a7089838a01610884565b94506060880135915080821115610a85578283fd5b610a9189838a01610884565b93506080880135915080821115610aa6578283fd5b50610ab388828901610904565b9150509295509295909350565b60008060008060808587031215610ad5578384fd5b610adf868661086d565b9350610aee866020870161086d565b925060408501359150606085013567ffffffffffffffff811115610b10578182fd5b610b1c87828801610904565b91505092959194509250565b600080600080600060a08688031215610b3f578081fd5b610b49878761086d565b9450610b58876020880161086d565b93506040860135925060608601359150608086013567ffffffffffffffff811115610b81578182fd5b610ab388828901610904565b600080600060408486031215610ba1578283fd5b833567ffffffffffffffff80821115610bb8578485fd5b818601915086601f830112610bcb578485fd5b813581811115610bd9578586fd5b8760208083028501011115610bec578586fd5b6020928301989097509590910135949350505050565b600060208284031215610c13578081fd5b5035919050565b600060208284031215610c2b578081fd5b81357fffffffff00000000000000000000000000000000000000000000000000000000811681146109a6578182fd5b600060208284031215610c6b578081fd5b5051919050565b6001600160a01b0391909116815260200190565b60006001600160a01b03808816835260208188168185015260a060408501528560a08501527f07ffffffffffffffffffffffffffffffffffffffffffffffffffffffffffffff861115610cd7578283fd5b8086029150818760c086013760c0918401828101848152858203909301606086015285519283905281860192849160e001905b80831015610d2a5784518252938301936001929092019190830190610d0a565b508581036080870152610d3d8582610f42565b9b9a5050505050505050505050565b6001600160a01b039390931683526020830191909152604082015260600190565b6001600160a01b03929092168252602082015260400190565b901515815260200190565b7fffffffff0000000000000000000000000000000000000000000000000000000091909116815260200190565b60208082526026908201527f4f776e61626c653a206e6577206f776e657220697320746865207a65726f206160408201527f6464726573730000000000000000000000000000000000000000000000000000606082015260800190565b6020808252602e908201527f496e697469616c697a61626c653a20636f6e747261637420697320616c72656160408201527f647920696e697469616c697a6564000000000000000000000000000000000000606082015260800190565b60208082526009908201527f6e6f7420616c6c6f770000000000000000000000000000000000000000000000604082015260600190565b6020808252818101527f4f776e61626c653a2063616c6c6572206973206e6f7420746865206f776e6572604082015260600190565b60208082526008908201527f6e6674206c6f636b000000000000000000000000000000000000000000000000604082015260600190565b60405181810167ffffffffffffffff81118282101715610f3a57600080fd5b604052919050565b90815260200190565b6001600160a01b03811681146107ab57600080fdfea2646970667358221220c5b51a5bc86933c0d02ef87ada5d942e6a40f6c53d8a85ed94242e156b2b555d64736f6c634300060c0033",
  "immutableReferences": {},
  "source": "// SPDX-License-Identifier: Unlicensed\npragma solidity >=0.5.0;\npragma experimental ABIEncoderV2;\n\nimport '../interfaces/IERC20.sol';\nimport \"../open/utils/Initializable.sol\";\nimport \"../open/token/ERC721/IERC721.sol\";\nimport \"../open/token/ERC721/utils/ERC721Holder.sol\";\nimport \"../open/token/ERC1155/IERC1155.sol\";\nimport \"../open/token/ERC1155/utils/ERC1155Holder.sol\";\nimport \"../open/utils/Ownable.sol\";\nimport \"../nftLib/FishNftFactory.sol\";\n\n\ncontract Ncomp is ERC721Holder,ERC1155Holder,Initializable,Ownable{\n\n    IERC1155 public needNToken;\n    \n    IERC1155 public compNToken;\n\n    Nft1155Factory public needNftFactory;\n\n    Nft1155Factory public compNftFactory;\n\n    uint internal compNftLevel;\n\n    struct BoxResult{\n        address nft;    \n        uint level;\n    }\n\n    mapping( bytes32 => BoxResult) public boxResults;\n\n    uint internal product = 24;\n    uint internal sum = 10;\n\n    constructor() public {}\n\n\n    function initialize(\n        address _needNToken,\n        address _compNToken,\n        address _needNftFactory,\n        address _compNftFactory,\n        address _ownerAddress\n    ) public initializer {\n        needNToken = IERC1155(_needNToken);\n        compNToken = IERC1155(_compNToken);\n        needNftFactory = Nft1155Factory(_needNftFactory);\n        compNftFactory = Nft1155Factory(_compNftFactory);\n        product = 24;\n        sum = 10;\n        compNftLevel = 5;\n        _owner = _ownerAddress;\n    }\n\n    function comp(uint[] calldata ids,bytes32 flag)external {\n\n        uint len = ids.length;\n\n        require(len == 4,\"nft lock\");\n\n        uint _product = 1;\n        uint _sum = 0;\n        uint[] memory amounts = new uint[](4);\n        for( uint i = 0; i < len; i++ ){\n            _product *= ids[i];\n            _sum += ids[i];\n            amounts[i] = 1;\n        }\n\n        require( _product == product && _sum == sum,\"not allow\" );\n\n        //前期先放合约，后期燃烧掉\n        needNToken.safeBatchTransferFrom(msg.sender, address(0x1), ids, amounts, \"\");\n        \n\n        compNftFactory.mint(msg.sender, compNftLevel, 1);\n\n        boxResults[flag] = BoxResult(\n            address(compNToken),\n            compNftLevel\n        );\n    }\n}",
  "sourcePath": "/Users/jie/Desktop/CC/fist/nft/contracts/nft/Ncomp.sol",
  "compiler": {
    "name": "solc",
    "version": "0.6.12+commit.27d51765.Emscripten.clang"
  },
  "schemaVersion": "3.4.4",
  "updatedAt": "2022-01-17T14:17:24.291Z",
  "devdoc": {
    "kind": "dev",
    "methods": {
      "onERC721Received(address,address,uint256,bytes)": {
        "details": "See {IERC721Receiver-onERC721Received}. Always returns `IERC721Receiver.onERC721Received.selector`."
      },
      "owner()": {
        "details": "Returns the address of the current owner."
      },
      "renounceOwnership()": {
        "details": "Leaves the contract without owner. It will not be possible to call `onlyOwner` functions anymore. Can only be called by the current owner. NOTE: Renouncing ownership will leave the contract without an owner, thereby removing any functionality that is only available to the owner."
      },
      "supportsInterface(bytes4)": {
        "details": "See {IERC165-supportsInterface}."
      },
      "transferOwnership(address)": {
        "details": "Transfers ownership of the contract to a new account (`newOwner`). Can only be called by the current owner."
      }
    },
    "version": 1
  },
  "userdoc": {
    "kind": "user",
    "methods": {},
    "version": 1
  }
}