{
  "contractName": "Ngrowth",
  "abi": [
    {
      "inputs": [],
      "stateMutability": "nonpayable",
      "type": "constructor"
    },
    {
      "anonymous": false,
      "inputs": [
        {
          "indexed": true,
          "internalType": "address",
          "name": "previousOwner",
          "type": "address"
        },
        {
          "indexed": true,
          "internalType": "address",
          "name": "newOwner",
          "type": "address"
        }
      ],
      "name": "OwnershipTransferred",
      "type": "event"
    },
    {
      "inputs": [],
      "name": "addGrowthCycle",
      "outputs": [
        {
          "internalType": "uint256",
          "name": "",
          "type": "uint256"
        }
      ],
      "stateMutability": "view",
      "type": "function",
      "constant": true
    },
    {
      "inputs": [],
      "name": "fishAddress",
      "outputs": [
        {
          "internalType": "contract IERC721",
          "name": "",
          "type": "address"
        }
      ],
      "stateMutability": "view",
      "type": "function",
      "constant": true
    },
    {
      "inputs": [],
      "name": "fishFactory",
      "outputs": [
        {
          "internalType": "contract FishNftFactory",
          "name": "",
          "type": "address"
        }
      ],
      "stateMutability": "view",
      "type": "function",
      "constant": true
    },
    {
      "inputs": [],
      "name": "fishFryAddress",
      "outputs": [
        {
          "internalType": "contract IERC1155",
          "name": "",
          "type": "address"
        }
      ],
      "stateMutability": "view",
      "type": "function",
      "constant": true
    },
    {
      "inputs": [],
      "name": "fishFryFactory",
      "outputs": [
        {
          "internalType": "contract FishFryNftFactory",
          "name": "",
          "type": "address"
        }
      ],
      "stateMutability": "view",
      "type": "function",
      "constant": true
    },
    {
      "inputs": [],
      "name": "foodAddress",
      "outputs": [
        {
          "internalType": "contract IERC1155",
          "name": "",
          "type": "address"
        }
      ],
      "stateMutability": "view",
      "type": "function",
      "constant": true
    },
    {
      "inputs": [],
      "name": "foodFactory",
      "outputs": [
        {
          "internalType": "contract FoodNftFactory",
          "name": "",
          "type": "address"
        }
      ],
      "stateMutability": "view",
      "type": "function",
      "constant": true
    },
    {
      "inputs": [
        {
          "internalType": "uint256",
          "name": "",
          "type": "uint256"
        }
      ],
      "name": "fryMap",
      "outputs": [
        {
          "internalType": "uint256",
          "name": "id",
          "type": "uint256"
        },
        {
          "internalType": "uint256",
          "name": "startTime",
          "type": "uint256"
        },
        {
          "internalType": "address",
          "name": "feeder",
          "type": "address"
        },
        {
          "internalType": "uint256",
          "name": "level",
          "type": "uint256"
        },
        {
          "internalType": "uint256",
          "name": "surplusgCycle",
          "type": "uint256"
        }
      ],
      "stateMutability": "view",
      "type": "function",
      "constant": true
    },
    {
      "inputs": [
        {
          "internalType": "bytes32",
          "name": "",
          "type": "bytes32"
        }
      ],
      "name": "harvestResults",
      "outputs": [
        {
          "internalType": "address",
          "name": "nft",
          "type": "address"
        },
        {
          "internalType": "uint256",
          "name": "id",
          "type": "uint256"
        },
        {
          "internalType": "uint256",
          "name": "amount",
          "type": "uint256"
        }
      ],
      "stateMutability": "view",
      "type": "function",
      "constant": true
    },
    {
      "inputs": [
        {
          "internalType": "address",
          "name": "",
          "type": "address"
        },
        {
          "internalType": "address",
          "name": "",
          "type": "address"
        },
        {
          "internalType": "uint256[]",
          "name": "",
          "type": "uint256[]"
        },
        {
          "internalType": "uint256[]",
          "name": "",
          "type": "uint256[]"
        },
        {
          "internalType": "bytes",
          "name": "",
          "type": "bytes"
        }
      ],
      "name": "onERC1155BatchReceived",
      "outputs": [
        {
          "internalType": "bytes4",
          "name": "",
          "type": "bytes4"
        }
      ],
      "stateMutability": "nonpayable",
      "type": "function"
    },
    {
      "inputs": [
        {
          "internalType": "address",
          "name": "",
          "type": "address"
        },
        {
          "internalType": "address",
          "name": "",
          "type": "address"
        },
        {
          "internalType": "uint256",
          "name": "",
          "type": "uint256"
        },
        {
          "internalType": "uint256",
          "name": "",
          "type": "uint256"
        },
        {
          "internalType": "bytes",
          "name": "",
          "type": "bytes"
        }
      ],
      "name": "onERC1155Received",
      "outputs": [
        {
          "internalType": "bytes4",
          "name": "",
          "type": "bytes4"
        }
      ],
      "stateMutability": "nonpayable",
      "type": "function"
    },
    {
      "inputs": [
        {
          "internalType": "address",
          "name": "",
          "type": "address"
        },
        {
          "internalType": "address",
          "name": "",
          "type": "address"
        },
        {
          "internalType": "uint256",
          "name": "",
          "type": "uint256"
        },
        {
          "internalType": "bytes",
          "name": "",
          "type": "bytes"
        }
      ],
      "name": "onERC721Received",
      "outputs": [
        {
          "internalType": "bytes4",
          "name": "",
          "type": "bytes4"
        }
      ],
      "stateMutability": "nonpayable",
      "type": "function"
    },
    {
      "inputs": [],
      "name": "owner",
      "outputs": [
        {
          "internalType": "address",
          "name": "",
          "type": "address"
        }
      ],
      "stateMutability": "view",
      "type": "function",
      "constant": true
    },
    {
      "inputs": [],
      "name": "oxygenAddress",
      "outputs": [
        {
          "internalType": "contract IERC1155",
          "name": "",
          "type": "address"
        }
      ],
      "stateMutability": "view",
      "type": "function",
      "constant": true
    },
    {
      "inputs": [],
      "name": "oxygenFactory",
      "outputs": [
        {
          "internalType": "contract OxygenNftFactory",
          "name": "",
          "type": "address"
        }
      ],
      "stateMutability": "view",
      "type": "function",
      "constant": true
    },
    {
      "inputs": [
        {
          "internalType": "address",
          "name": "",
          "type": "address"
        }
      ],
      "name": "pondMap",
      "outputs": [
        {
          "internalType": "uint256",
          "name": "totalSpace",
          "type": "uint256"
        },
        {
          "internalType": "uint256",
          "name": "surplusSpace",
          "type": "uint256"
        }
      ],
      "stateMutability": "view",
      "type": "function",
      "constant": true
    },
    {
      "inputs": [],
      "name": "renounceOwnership",
      "outputs": [],
      "stateMutability": "nonpayable",
      "type": "function"
    },
    {
      "inputs": [],
      "name": "spaceAddress",
      "outputs": [
        {
          "internalType": "contract IERC1155",
          "name": "",
          "type": "address"
        }
      ],
      "stateMutability": "view",
      "type": "function",
      "constant": true
    },
    {
      "inputs": [],
      "name": "spaceFactory",
      "outputs": [
        {
          "internalType": "contract SpaceNftFactory",
          "name": "",
          "type": "address"
        }
      ],
      "stateMutability": "view",
      "type": "function",
      "constant": true
    },
    {
      "inputs": [
        {
          "internalType": "bytes4",
          "name": "interfaceId",
          "type": "bytes4"
        }
      ],
      "name": "supportsInterface",
      "outputs": [
        {
          "internalType": "bool",
          "name": "",
          "type": "bool"
        }
      ],
      "stateMutability": "view",
      "type": "function",
      "constant": true
    },
    {
      "inputs": [
        {
          "internalType": "address",
          "name": "newOwner",
          "type": "address"
        }
      ],
      "name": "transferOwnership",
      "outputs": [],
      "stateMutability": "nonpayable",
      "type": "function"
    },
    {
      "inputs": [
        {
          "internalType": "address",
          "name": "_fishFactory",
          "type": "address"
        },
        {
          "internalType": "address",
          "name": "_fishAddress",
          "type": "address"
        },
        {
          "internalType": "address",
          "name": "_foodFactory",
          "type": "address"
        },
        {
          "internalType": "address",
          "name": "_foodAddress",
          "type": "address"
        },
        {
          "internalType": "address",
          "name": "_spaceFactory",
          "type": "address"
        },
        {
          "internalType": "address",
          "name": "_spaceAddress",
          "type": "address"
        },
        {
          "internalType": "address",
          "name": "_fishFryFactory",
          "type": "address"
        },
        {
          "internalType": "address",
          "name": "_fishFryAddress",
          "type": "address"
        },
        {
          "internalType": "address",
          "name": "_oxygenFactory",
          "type": "address"
        },
        {
          "internalType": "address",
          "name": "_oxygenAddress",
          "type": "address"
        },
        {
          "internalType": "address",
          "name": "_ownerAddress",
          "type": "address"
        }
      ],
      "name": "initialize",
      "outputs": [],
      "stateMutability": "nonpayable",
      "type": "function"
    },
    {
      "inputs": [],
      "name": "getUserFryInfos",
      "outputs": [
        {
          "components": [
            {
              "internalType": "uint256",
              "name": "id",
              "type": "uint256"
            },
            {
              "internalType": "uint256",
              "name": "level",
              "type": "uint256"
            },
            {
              "internalType": "uint256",
              "name": "startTime",
              "type": "uint256"
            },
            {
              "internalType": "uint256",
              "name": "surplusgCycle",
              "type": "uint256"
            },
            {
              "internalType": "uint256",
              "name": "surplusFoodLimit",
              "type": "uint256"
            },
            {
              "internalType": "uint256",
              "name": "surplusOxygenLimit",
              "type": "uint256"
            }
          ],
          "internalType": "struct Ngrowth.FryInfo[]",
          "name": "_infos",
          "type": "tuple[]"
        }
      ],
      "stateMutability": "view",
      "type": "function",
      "constant": true
    },
    {
      "inputs": [
        {
          "internalType": "address",
          "name": "owner",
          "type": "address"
        }
      ],
      "name": "getOrderInfo",
      "outputs": [
        {
          "internalType": "uint256[]",
          "name": "ids",
          "type": "uint256[]"
        },
        {
          "internalType": "uint256[]",
          "name": "myIds",
          "type": "uint256[]"
        }
      ],
      "stateMutability": "view",
      "type": "function",
      "constant": true
    },
    {
      "inputs": [
        {
          "internalType": "uint256",
          "name": "id",
          "type": "uint256"
        }
      ],
      "name": "getId2Index",
      "outputs": [
        {
          "internalType": "uint256",
          "name": "index",
          "type": "uint256"
        },
        {
          "internalType": "uint256",
          "name": "myIndex",
          "type": "uint256"
        }
      ],
      "stateMutability": "view",
      "type": "function",
      "constant": true
    },
    {
      "inputs": [
        {
          "internalType": "uint256",
          "name": "nftId",
          "type": "uint256"
        }
      ],
      "name": "feeding",
      "outputs": [],
      "stateMutability": "nonpayable",
      "type": "function"
    },
    {
      "inputs": [
        {
          "internalType": "uint256",
          "name": "id",
          "type": "uint256"
        },
        {
          "internalType": "uint256",
          "name": "amount",
          "type": "uint256"
        }
      ],
      "name": "addSpace",
      "outputs": [],
      "stateMutability": "nonpayable",
      "type": "function"
    },
    {
      "inputs": [
        {
          "internalType": "uint256",
          "name": "foodId",
          "type": "uint256"
        },
        {
          "internalType": "uint256",
          "name": "foodAmount",
          "type": "uint256"
        },
        {
          "internalType": "uint256",
          "name": "fryId",
          "type": "uint256"
        }
      ],
      "name": "feed",
      "outputs": [],
      "stateMutability": "nonpayable",
      "type": "function"
    },
    {
      "inputs": [
        {
          "internalType": "uint256",
          "name": "oxyId",
          "type": "uint256"
        },
        {
          "internalType": "uint256",
          "name": "oxyAmount",
          "type": "uint256"
        },
        {
          "internalType": "uint256",
          "name": "fryId",
          "type": "uint256"
        }
      ],
      "name": "oxygen",
      "outputs": [],
      "stateMutability": "nonpayable",
      "type": "function"
    },
    {
      "inputs": [
        {
          "internalType": "uint256",
          "name": "fryId",
          "type": "uint256"
        },
        {
          "internalType": "bytes32",
          "name": "flag",
          "type": "bytes32"
        }
      ],
      "name": "harvest",
      "outputs": [],
      "stateMutability": "nonpayable",
      "type": "function"
    }
  ],
  "bytecode": "0x608060405234801561001057600080fd5b5061002161001c610026565b61002a565b610085565b3390565b600080546001600160a01b038381166201000081810262010000600160b01b0319851617855560405193049190911692909183917f8be0079c531659141344cd1fd0a4f28419497f9722a3daafe3b4186f6b6457e091a35050565b6120dc80620000956000396000f3fe608060405234801561001057600080fd5b50600436106101d95760003560e01c80637a0dedf611610104578063bc197c81116100a2578063ec54f5bb11610071578063ec54f5bb146103b6578063ef19d3f1146103be578063f23a6e61146103e0578063f2fde38b146103f3576101d9565b8063bc197c8114610375578063d661d20f14610388578063e09fc5d714610390578063ea770d08146103a3576101d9565b80638da5cb5b116100de5780638da5cb5b1461034857806397a86a75146103505780639872317f14610365578063b61a71d21461036d576101d9565b80637a0dedf614610318578063857bee5f1461032b578063877b595814610333576101d9565b8063372a6d281161017c578063705cd9b41161014b578063705cd9b4146102e2578063715018a6146102ea57806371ae72fc146102f257806376902b8314610305576101d9565b8063372a6d281461029e57806346da888e146102a65780635ccb5a28146102ae578063619fd448146102c1576101d9565b80630d7d0b80116101b85780630d7d0b801461023d578063150b7a02146102525780632576b6fe14610272578063357172c41461027a576101d9565b8062e00064146101de57806301ffc9a7146101f35780630d20c7501461021c575b600080fd5b6101f16101ec366004611ac5565b610406565b005b610206610201366004611add565b6106d0565b6040516102139190611dc9565b60405180910390f35b61022f61022a366004611851565b61072c565b604051610213929190611d9b565b6102456107fd565b6040516102139190611c9d565b6102656102603660046119f8565b61080c565b6040516102139190611dd4565b610245610835565b61028d610288366004611ac5565b610844565b60405161021395949392919061201a565b61024561087e565b61024561088d565b6101f16102bc366004611c38565b61089c565b6102d46102cf366004611ac5565b610a2a565b60405161021392919061200c565b610245610a49565b6101f1610a58565b6101f1610300366004611c17565b610aa3565b6101f1610313366004611873565b610c0b565b6101f1610326366004611c38565b610d8b565b610245610f10565b61033b610f1f565b6040516102139190611d23565b6102456110c6565b6103586110db565b6040516102139190612003565b6102456110e1565b6102456110f0565b61026561038336600461194e565b6110ff565b610245611129565b6102d461039e366004611851565b611138565b6101f16103b1366004611c17565b611151565b610245611275565b6103d16103cc366004611ac5565b611284565b60405161021393929190611d02565b6102656103ee366004611a60565b6112af565b6101f1610401366004611851565b6112d9565b600f54604051637921219560e11b81526001600160a01b039091169063f242432a9061043d90339030908690600190600401611cb1565b600060405180830381600087803b15801561045757600080fd5b505af115801561046b573d6000803e3d6000fd5b50505050610477611622565b600e5460405163a81b2f8d60e01b81526001600160a01b039091169063a81b2f8d906104a7908590600401612003565b60006040518083038186803b1580156104bf57600080fd5b505afa1580156104d3573d6000803e3d6000fd5b505050506040513d6000823e601f3d908101601f191682016040526104fb9190810190611b1d565b336000908152600160208190526040918290209183015190820154929350909110156105425760405162461bcd60e51b815260040161053990611e5e565b60405180910390fd5b604082810151600183810180549290920390915560028054835160a08101855281815242602080830191825233838801908152606084018b8152601354838c01510160808601908152600087815260039485905299909920945185559251968401969096559451938201805473ffffffffffffffffffffffffffffffffffffffff19166001600160a01b0390951694909417909355915192820192909255915160049283015590548061062957600480546001818101835560009283527f8a35acfbc15ff81a39ae7d344fd709f28e8600b4aa8c65c6b64bfe7fe36bd19b90910191909155015b60048054600181019091557f8a35acfbc15ff81a39ae7d344fd709f28e8600b4aa8c65c6b64bfe7fe36bd19b0182905560008281526005602090815260408083209390935533825260069052208054908161069d578054600181810183556000838152602081209092019190915591909101905b80546001818101835560009283526020808420909201859055938252600790526040902055600280549091019055505050565b60007fffffffff0000000000000000000000000000000000000000000000000000000082167f4e2312e000000000000000000000000000000000000000000000000000000000148061072657506107268261134a565b92915050565b606080600480548060200260200160405190810160405280929190818152602001828054801561077b57602002820191906000526020600020905b815481526020019060010190808311610767575b5050505050915060066000846001600160a01b03166001600160a01b031681526020019081526020016000208054806020026020016040519081016040528092919081815260200182805480156107f157602002820191906000526020600020905b8154815260200190600101908083116107dd575b50505050509050915091565b6008546001600160a01b031681565b7f150b7a0200000000000000000000000000000000000000000000000000000000949350505050565b600d546001600160a01b031681565b600360208190526000918252604090912080546001820154600283015493830154600490930154919390926001600160a01b039091169185565b6011546001600160a01b031681565b6010546001600160a01b031681565b601154604051637921219560e11b81526001600160a01b039091169063f242432a906108d2903390309088908890600401611cb1565b600060405180830381600087803b1580156108ec57600080fd5b505af1158015610900573d6000803e3d6000fd5b5050505061090c611643565b60105460405163a81b2f8d60e01b81526001600160a01b039091169063a81b2f8d9061093c908790600401612003565b60206040518083038186803b15801561095457600080fd5b505afa158015610968573d6000803e3d6000fd5b505050506040513d601f19601f8201168201806040525081019061098c9190611bda565b600083815260036020526040812091925062015180420462015180029050600a858360060160008481526020019081526020016000205401106109e15760405162461bcd60e51b815260040161053990611e95565b600081815260068301602052604090208054860190558251600483015490860290811015610a19576004830180548290039055610a21565b600060048401555b50505050505050565b6000908152600560209081526040808320546007909252909120549091565b600b546001600160a01b031681565b610a60611394565b6001600160a01b0316610a716110c6565b6001600160a01b031614610a975760405162461bcd60e51b815260040161053990611f97565b610aa16000611398565b565b600082815260036020526040902060048101541580610ac65750610ac681611409565b610ae25760405162461bcd60e51b815260040161053990611f03565b600854600282015460038301546040517f40c10f190000000000000000000000000000000000000000000000000000000081526000936001600160a01b03908116936340c10f1993610b3b939290911691600401611ce9565b602060405180830381600087803b158015610b5557600080fd5b505af1158015610b69573d6000803e3d6000fd5b505050506040513d601f19601f82011682018060405250810190610b8d9190611bff565b604080516060810182526009546001600160a01b039081168252602080830185815260008486018181528a82526012909352949094209251835473ffffffffffffffffffffffffffffffffffffffff1916908316178355925160018301559151600291820155840154919250610c059186911661141c565b50505050565b600054610100900460ff1680610c24575060005460ff16155b610c405760405162461bcd60e51b815260040161053990611f3a565b600054610100900460ff16158015610c8957600080547fffffffffffffffffffffffffffffffffffffffffffffffffffffffffffffff0061ff0019909116610100171660011790555b6305f5e1006002556008805473ffffffffffffffffffffffffffffffffffffffff199081166001600160a01b038f8116919091179092556009805482168e8416179055600a805482168d8416179055600b805482168c8416179055600c805482168b8416179055600d805482168a8416179055600e80548216898416179055600f8054821688841617905560108054821687841617905560118054909116858316179055621e5280601355600080547fffffffffffffffffffff0000000000000000000000000000000000000000ffff1662010000928516929092029190911790558015610d7d576000805461ff00191690555b505050505050505050505050565b600b54604051637921219560e11b81526001600160a01b039091169063f242432a90610dc1903390309088908890600401611cb1565b600060405180830381600087803b158015610ddb57600080fd5b505af1158015610def573d6000803e3d6000fd5b50505050610dfb611656565b600a5460405163a81b2f8d60e01b81526001600160a01b039091169063a81b2f8d90610e2b908790600401612003565b60006040518083038186803b158015610e4357600080fd5b505afa158015610e57573d6000803e3d6000fd5b505050506040513d6000823e601f3d908101601f19168201604052610e7f9190810190611b9f565b600083815260036020526040812091925062015180420462015180029050600a85836005016000848152602001908152602001600020540110610ed45760405162461bcd60e51b815260040161053990611e95565b60008181526005830160209081526040909120805487019055830151600483015490860290811015610a19576004830180548290039055610a21565b600c546001600160a01b031681565b3360009081526006602052604090208054606091908067ffffffffffffffff81118015610f4b57600080fd5b50604051908082528060200260200182016040528015610f8557816020015b610f72611670565b815260200190600190039081610f6a5790505b50925062015180428190040260005b828110156110bf57600060036000868481548110610fae57fe5b9060005260206000200154815260200190815260200160002090508060000154868381518110610fda57fe5b602002602001015160000181815250508060030154868381518110610ffb57fe5b60200260200101516020018181525050806001015486838151811061101c57fe5b60200260200101516040018181525050806004015486838151811061103d57fe5b6020026020010151606001818152505080600501600084815260200190815260200160002054600a0386838151811061107257fe5b6020026020010151608001818152505080600601600084815260200190815260200160002054600a038683815181106110a757fe5b602090810291909101015160a0015250600101610f94565b5050505090565b6000546201000090046001600160a01b031690565b60135481565b6009546001600160a01b031681565b600e546001600160a01b031681565b7fbc197c810000000000000000000000000000000000000000000000000000000095945050505050565b600f546001600160a01b031681565b6001602081905260009182526040909120805491015482565b600d54604051637921219560e11b81526001600160a01b039091169063f242432a90611187903390309087908790600401611cb1565b600060405180830381600087803b1580156111a157600080fd5b505af11580156111b5573d6000803e3d6000fd5b505050506111c1611656565b600c5460405163a81b2f8d60e01b81526001600160a01b039091169063a81b2f8d906111f1908690600401612003565b60006040518083038186803b15801561120957600080fd5b505afa15801561121d573d6000803e3d6000fd5b505050506040513d6000823e601f3d908101601f191682016040526112459190810190611b9f565b33600090815260016020818152604090922091909201519181018054929094029182019093558254019091555050565b600a546001600160a01b031681565b6012602052600090815260409020805460018201546002909201546001600160a01b03909116919083565b7ff23a6e610000000000000000000000000000000000000000000000000000000095945050505050565b6112e1611394565b6001600160a01b03166112f26110c6565b6001600160a01b0316146113185760405162461bcd60e51b815260040161053990611f97565b6001600160a01b03811661133e5760405162461bcd60e51b815260040161053990611e01565b61134781611398565b50565b7fffffffff0000000000000000000000000000000000000000000000000000000081167f01ffc9a70000000000000000000000000000000000000000000000000000000014919050565b3390565b600080546001600160a01b03838116620100008181027fffffffffffffffffffff0000000000000000000000000000000000000000ffff851617855560405193049190911692909183917f8be0079c531659141344cd1fd0a4f28419497f9722a3daafe3b4186f6b6457e091a35050565b6004810154600190910154429101111590565b6004546000838152600560205260409020548061144b5760405162461bcd60e51b815260040161053990611ecc565b6004600183038154811061145b57fe5b90600052602060002001546004828154811061147357fe5b90600052602060002001819055506004600183038154811061149157fe5b600091825260208220015560048054806114a757fe5b600190038181906000526020600020016000905590556001820381146114df5760008181526005602052604080822054825290208190555b6001600160a01b038316600090815260066020908152604080832080548885526007909352922054806115245760405162461bcd60e51b815260040161053990611fcc565b82600183038154811061153357fe5b906000526020600020015483828154811061154a57fe5b60009182526020808320909101929092556001600160a01b038816815260069091526040902080547fffffffffffffffffffffffffffffffffffffffffffffffffffffffffffffffff840190811061159e57fe5b600091825260208083209091018290556001600160a01b038816825260069052604090208054806115cb57fe5b60019003818190600052602060002001600090559055600182038114610a215780600760008584815481106115fc57fe5b906000526020600020015481526020019081526020016000208190555050505050505050565b60405180606001604052806060815260200160008152602001600081525090565b6040518060200160405280600081525090565b604051806040016040528060608152602001600081525090565b6040518060c001604052806000815260200160008152602001600081526020016000815260200160008152602001600081525090565b80356001600160a01b038116811461072657600080fd5b600082601f8301126116cd578081fd5b813567ffffffffffffffff8111156116e3578182fd5b60208082026116f3828201612046565b8381529350818401858301828701840188101561170f57600080fd5b600092505b84831015611732578035825260019290920191908301908301611714565b505050505092915050565b600082601f83011261174d578081fd5b813561176061175b8261206d565b612046565b915080825283602082850101111561177757600080fd5b8060208401602084013760009082016020015292915050565b600082601f8301126117a0578081fd5b81516117ae61175b8261206d565b9150808252602084818386010111156117c657600080fd5b60005b828110156117e45784810182015184820183015281016117c9565b828111156117f55760008284860101525b50505092915050565b60006040828403121561180f578081fd5b6118196040612046565b9050815167ffffffffffffffff81111561183257600080fd5b61183e84828501611790565b8252506020820151602082015292915050565b600060208284031215611862578081fd5b61186c83836116a6565b9392505050565b60008060008060008060008060008060006101608c8e031215611894578687fd5b8b3561189f81612091565b9a5060208c01356118af81612091565b995060408c01356118bf81612091565b985060608c01356118cf81612091565b975060808c01356118df81612091565b96506118ee8d60a08e016116a6565b95506118fd8d60c08e016116a6565b945061190c8d60e08e016116a6565b935061191c8d6101008e016116a6565b925061192c8d6101208e016116a6565b915061193c8d6101408e016116a6565b90509295989b509295989b9093969950565b600080600080600060a08688031215611965578081fd5b853561197081612091565b9450602086013561198081612091565b9350604086013567ffffffffffffffff8082111561199c578283fd5b6119a889838a016116bd565b945060608801359150808211156119bd578283fd5b6119c989838a016116bd565b935060808801359150808211156119de578283fd5b506119eb8882890161173d565b9150509295509295909350565b60008060008060808587031215611a0d578384fd5b611a1786866116a6565b9350611a2686602087016116a6565b925060408501359150606085013567ffffffffffffffff811115611a48578182fd5b611a548782880161173d565b91505092959194509250565b600080600080600060a08688031215611a77578081fd5b611a8187876116a6565b9450611a9087602088016116a6565b93506040860135925060608601359150608086013567ffffffffffffffff811115611ab9578182fd5b6119eb8882890161173d565b600060208284031215611ad6578081fd5b5035919050565b600060208284031215611aee578081fd5b81357fffffffff000000000000000000000000000000000000000000000000000000008116811461186c578182fd5b600060208284031215611b2e578081fd5b815167ffffffffffffffff80821115611b45578283fd5b9083019060608286031215611b58578283fd5b611b626060612046565b825182811115611b70578485fd5b611b7c87828601611790565b825250602083015160208201526040830151604082015280935050505092915050565b600060208284031215611bb0578081fd5b815167ffffffffffffffff811115611bc6578182fd5b611bd2848285016117fe565b949350505050565b600060208284031215611beb578081fd5b611bf56020612046565b9151825250919050565b600060208284031215611c10578081fd5b5051919050565b60008060408385031215611c29578182fd5b50508035926020909101359150565b600080600060608486031215611c4c578081fd5b505081359360208301359350604090920135919050565b6000815180845260208085019450808401835b83811015611c9257815187529582019590820190600101611c76565b509495945050505050565b6001600160a01b0391909116815260200190565b6001600160a01b0394851681529290931660208301526040820152606081019190915260a06080820181905260009082015260c00190565b6001600160a01b03929092168252602082015260400190565b6001600160a01b039390931683526020830191909152604082015260600190565b602080825282518282018190526000919060409081850190868401855b82811015611d8e5781518051855286810151878601528581015186860152606080820151908601526080808201519086015260a0908101519085015260c09093019290850190600101611d40565b5091979650505050505050565b600060408252611dae6040830185611c63565b8281036020840152611dc08185611c63565b95945050505050565b901515815260200190565b7fffffffff0000000000000000000000000000000000000000000000000000000091909116815260200190565b60208082526026908201527f4f776e61626c653a206e6577206f776e657220697320746865207a65726f206160408201527f6464726573730000000000000000000000000000000000000000000000000000606082015260800190565b6020808252600a908201527f7370616365206c6f636b00000000000000000000000000000000000000000000604082015260600190565b6020808252600c908201527f657863656564206c696d69740000000000000000000000000000000000000000604082015260600190565b60208082526009908201527f6e6f742065786973740000000000000000000000000000000000000000000000604082015260600190565b6020808252600a908201527f6e6f742066696e69736800000000000000000000000000000000000000000000604082015260600190565b6020808252602e908201527f496e697469616c697a61626c653a20636f6e747261637420697320616c72656160408201527f647920696e697469616c697a6564000000000000000000000000000000000000606082015260800190565b6020808252818101527f4f776e61626c653a2063616c6c6572206973206e6f7420746865206f776e6572604082015260600190565b60208082526009908201527f6e6f74206f776e65720000000000000000000000000000000000000000000000604082015260600190565b90815260200190565b918252602082015260400190565b94855260208501939093526001600160a01b039190911660408401526060830152608082015260a00190565b60405181810167ffffffffffffffff8111828210171561206557600080fd5b604052919050565b600067ffffffffffffffff821115612083578081fd5b50601f01601f191660200190565b6001600160a01b038116811461134757600080fdfea26469706673582212205c75cb2d4381855c128e748240308e7f35d8b149b52f209654c7ff49d796cb4f64736f6c634300060c0033",
  "immutableReferences": {},
  "source": "pragma solidity >= 0.5.6;\npragma experimental ABIEncoderV2;\n\nimport \"../open/utils/Initializable.sol\";\nimport \"../open/utils/Ownable.sol\";\nimport \"../nftLib/FishNftFactory.sol\";\nimport \"../open/token/ERC721/IERC721.sol\";\nimport \"../open/token/ERC721/utils/ERC721Holder.sol\";\nimport \"../open/token/ERC1155/IERC1155.sol\";\nimport \"../open/token/ERC1155/utils/ERC1155Holder.sol\";\n\n\ncontract Ngrowth is Initializable,Ownable,ERC721Holder,ERC1155Holder{\n\n    ///////\n   struct Pond{\n       uint totalSpace;     //\n       uint surplusSpace;   //\n   }\n\n   mapping(address => Pond) public pondMap;\n\n   uint internal ORDER_ID;\n\n   struct FishFry{\n       uint id;             //ID\n       uint startTime;\n       address feeder;\n       uint level;          //  \n       uint surplusgCycle;  //\n       mapping(uint => uint) feedLimitMap;  //\n       mapping(uint => uint) ogxgenLimitMap;//\n   }\n\n    mapping( uint => FishFry) public fryMap;  //\n\n    uint[] fryIds;      //\n\n    //id => index\n    mapping( uint => uint) internal fryId2Indexs;\n\n    mapping(address => uint[]) userFryIds;  //\n\n    //id = > index\n    mapping( uint => uint) internal userFryId2Indexs;\n\n    ///////\n    FishNftFactory public fishFactory;\n    IERC721 public fishAddress;\n    \n    //////\n    FoodNftFactory public foodFactory;\n    IERC1155 public foodAddress;\n\n    /////\n    SpaceNftFactory public spaceFactory;\n    IERC1155 public spaceAddress;\n\n    /////\n    FishFryNftFactory public fishFryFactory;  \n    IERC1155 public fishFryAddress;\n\n    /////\n    OxygenNftFactory public oxygenFactory;  \n    IERC1155 public oxygenAddress;\n\n    struct Result{\n        address nft;        //nft\n        uint id;            //Id\n        uint amount;        //\n    }\n    mapping(bytes32 => Result) public harvestResults;\n\n    uint public addGrowthCycle;\n\n    struct FryInfo{\n       uint id;                 //ID\n       uint level;              //\n       uint startTime;          //\n       uint surplusgCycle;      //\n       uint surplusFoodLimit;   //\n       uint surplusOxygenLimit; //\n    }\n    constructor() public {}\n\n    function initialize(\n        address _fishFactory,\n        address _fishAddress,\n        address _foodFactory,\n        address _foodAddress,\n        address _spaceFactory,\n        address _spaceAddress,\n        address _fishFryFactory,\n        address _fishFryAddress,\n        address _oxygenFactory,\n        address _oxygenAddress,\n        address _ownerAddress\n    ) public initializer {\n        ORDER_ID = 100000000;\n        fishFactory = FishNftFactory(_fishFactory);\n        fishAddress = IERC721(_fishAddress);\n        foodFactory = FoodNftFactory(_foodFactory);\n        foodAddress = IERC1155(_foodAddress);\n        spaceFactory = SpaceNftFactory(_spaceFactory);\n        spaceAddress = IERC1155(_spaceAddress);\n        fishFryFactory = FishFryNftFactory(_fishFryFactory);\n        fishFryAddress = IERC1155(_fishFryAddress);\n        oxygenFactory = OxygenNftFactory(_oxygenFactory);\n        oxygenAddress = IERC1155(_oxygenAddress);\n        addGrowthCycle = 1987200;\n        _owner = _ownerAddress;\n    }\n\n    //\n    function getUserFryInfos() external view returns(FryInfo[] memory _infos) {\n        \n        uint[] storage ids  = userFryIds[msg.sender];\n\n        uint len = ids.length;\n\n        _infos = new FryInfo[](len);\n\n        uint time = block.timestamp / 1 days * 1 days;\n\n        for( uint i = 0; i < len; i++ ){\n\n            FishFry storage fry = fryMap[ids[i]];\n\n            _infos[i].id = fry.id;\n            _infos[i].level = fry.level;\n            _infos[i].startTime = fry.startTime;\n            _infos[i].surplusgCycle = fry.surplusgCycle;\n            _infos[i].surplusFoodLimit = 10 - fry.feedLimitMap[time];\n            _infos[i].surplusOxygenLimit = 10 - fry.ogxgenLimitMap[time];\n        }\n    }\n\n    function getOrderInfo(address owner)external view returns(uint[] memory ids,uint[] memory myIds){\n        ids = fryIds;\n        myIds = userFryIds[owner];\n    }\n\n    function getId2Index(uint id)external view returns(uint index,uint myIndex){\n        index = fryId2Indexs[id];\n        myIndex = userFryId2Indexs[id];\n    }\n\n    //\n    function feeding(uint nftId)external{\n\n        fishFryAddress.safeTransferFrom(msg.sender, address(this), nftId, 1, \"\");\n\n        FishPart.FishFryConfig memory config = fishFryFactory.getConfig(nftId);\n\n        Pond storage pond = pondMap[msg.sender];\n\n        require( pond.surplusSpace >= config.occupySpace,\"space lock\");\n        pond.surplusSpace -= config.occupySpace;\n\n        uint id =  ORDER_ID;\n        \n        fryMap[id] =  FishFry(\n            id,\n            block.timestamp,\n            msg.sender,\n            nftId,\n            config.growthCycle + addGrowthCycle\n        );\n\n        //\n        uint len = fryIds.length;\n\n        if( len == 0 ){\n            fryIds.push(0);\n            len += 1;\n        }\n\n        fryIds.push(id);\n        fryId2Indexs[id] = len;\n\n        uint[] storage myIds = userFryIds[msg.sender];\n\n        //\n        len = myIds.length;\n        \n        if( len == 0 ){\n            myIds.push(0);\n            len += 1;\n        }\n\n        myIds.push(id);\n        userFryId2Indexs[id] = len;\n\n        ORDER_ID ++;\n    }\n\n    //\n    function addSpace(uint id,uint amount)external{\n\n        spaceAddress.safeTransferFrom(msg.sender, address(this), id, amount, \"\");\n\n        FishPart.SpaceConfig memory config =  spaceFactory.getConfig(id);\n\n        Pond storage pond = pondMap[msg.sender];\n\n        pond.surplusSpace += config.spaceValue * amount;\n        pond.totalSpace += config.spaceValue * amount;\n    }\n\n    //\n    function feed(uint foodId,uint foodAmount,uint fryId)external{\n\n        foodAddress.safeTransferFrom(msg.sender, address(this), foodId, foodAmount, \"\");\n\n        FishPart.FoodConfig memory config = foodFactory.getConfig(foodId);\n\n        FishFry storage fry = fryMap[fryId];\n\n        uint time = block.timestamp / 1 days * 1 days;\n\n        require(fry.feedLimitMap[time] + foodAmount < 10,\"exceed limit\");\n\n        fry.feedLimitMap[time] += foodAmount;\n\n        uint subCycle = config.speedGrowth * foodAmount;\n\n        if( fry.surplusgCycle > subCycle ){\n            fry.surplusgCycle -= subCycle;\n        }else{\n            fry.surplusgCycle = 0;\n        }\n    }\n\n    //\n    function oxygen(uint oxyId,uint oxyAmount,uint fryId)external{\n        oxygenAddress.safeTransferFrom(msg.sender, address(this), oxyId, oxyAmount, \"\");\n\n        FishPart.OxygenConfig memory config = oxygenFactory.getConfig(oxyId);\n\n        FishFry storage fry = fryMap[fryId];\n\n        uint time = block.timestamp / 1 days * 1 days;\n        require(fry.ogxgenLimitMap[time] + oxyAmount< 10,\"exceed limit\");\n\n        fry.ogxgenLimitMap[time] += oxyAmount;\n\n        uint subCycle = config.speedGrowth * oxyAmount;\n\n        if( fry.surplusgCycle > subCycle ){\n            fry.surplusgCycle -= subCycle;\n        }else{\n            fry.surplusgCycle = 0;\n        }\n    }\n\n    function _checkIsFinish(FishFry storage fry)internal view returns(bool){\n        uint time = block.timestamp;\n        return fry.startTime + fry.surplusgCycle <= time;\n    }\n    //\n    function harvest(uint fryId,bytes32 flag)external{\n\n        FishFry storage fry = fryMap[fryId];\n\n        require( fry.surplusgCycle == 0 || _checkIsFinish(fry) ,\"not finish\" );\n\n        uint tokenId = fishFactory.mint(fry.feeder,fry.level);\n\n        harvestResults[flag] = Result(\n            address(fishAddress),tokenId,0\n        );\n       \n        _updateAcutionOrder(fryId,fry.feeder);\n    }\n\n     function _updateAcutionOrder(uint orderId,address owner)internal{\n\n        uint len1 = fryIds.length;\n        uint index1 = fryId2Indexs[orderId];\n\n        require(index1 > 0 ,\"not exist\");\n\n        fryIds[index1] = fryIds[len1-1];\n        delete fryIds[len1 - 1];\n        fryIds.pop();\n\n        if( index1 != len1 - 1 ){\n            fryId2Indexs[fryId2Indexs[index1]] = index1;\n        }\n\n        uint[] storage ids = userFryIds[owner];\n\n        uint len2 = ids.length;\n\n        uint index2 = userFryId2Indexs[orderId];\n        require(index2 > 0 ,\"not owner\");\n\n        ids[index2] = ids[len2 - 1];\n        delete userFryIds[owner][len2 - 1];\n        userFryIds[owner].pop();\n\n        if( index2 != len2 - 1){\n            userFryId2Indexs[ids[index2]] = index2;\n        }\n    }\n\n}",
  "sourcePath": "/Users/jie/Desktop/CC/fist/nft/contracts/nft/Ngrowth.sol",
  "compiler": {
    "name": "solc",
    "version": "0.6.12+commit.27d51765.Emscripten.clang"
  },
  "schemaVersion": "3.4.4",
  "updatedAt": "2022-01-17T14:05:32.824Z",
  "networkType": "ethereum",
  "devdoc": {
    "kind": "dev",
    "methods": {
      "onERC721Received(address,address,uint256,bytes)": {
        "details": "See {IERC721Receiver-onERC721Received}. Always returns `IERC721Receiver.onERC721Received.selector`."
      },
      "owner()": {
        "details": "Returns the address of the current owner."
      },
      "renounceOwnership()": {
        "details": "Leaves the contract without owner. It will not be possible to call `onlyOwner` functions anymore. Can only be called by the current owner. NOTE: Renouncing ownership will leave the contract without an owner, thereby removing any functionality that is only available to the owner."
      },
      "supportsInterface(bytes4)": {
        "details": "See {IERC165-supportsInterface}."
      },
      "transferOwnership(address)": {
        "details": "Transfers ownership of the contract to a new account (`newOwner`). Can only be called by the current owner."
      }
    },
    "version": 1
  },
  "userdoc": {
    "kind": "user",
    "methods": {},
    "version": 1
  }
}