{
  "contractName": "Nmarket",
  "abi": [
    {
      "inputs": [],
      "stateMutability": "nonpayable",
      "type": "constructor"
    },
    {
      "anonymous": false,
      "inputs": [
        {
          "indexed": true,
          "internalType": "address",
          "name": "previousOwner",
          "type": "address"
        },
        {
          "indexed": true,
          "internalType": "address",
          "name": "newOwner",
          "type": "address"
        }
      ],
      "name": "OwnershipTransferred",
      "type": "event"
    },
    {
      "inputs": [],
      "name": "ORDER_ID",
      "outputs": [
        {
          "internalType": "uint256",
          "name": "",
          "type": "uint256"
        }
      ],
      "stateMutability": "view",
      "type": "function"
    },
    {
      "inputs": [
        {
          "internalType": "uint256",
          "name": "",
          "type": "uint256"
        }
      ],
      "name": "fixedId2Index",
      "outputs": [
        {
          "internalType": "uint256",
          "name": "",
          "type": "uint256"
        }
      ],
      "stateMutability": "view",
      "type": "function"
    },
    {
      "inputs": [],
      "name": "fixedOrderFee",
      "outputs": [
        {
          "internalType": "uint256",
          "name": "",
          "type": "uint256"
        }
      ],
      "stateMutability": "view",
      "type": "function"
    },
    {
      "inputs": [
        {
          "internalType": "uint256",
          "name": "",
          "type": "uint256"
        }
      ],
      "name": "fixedOrderMap",
      "outputs": [
        {
          "internalType": "uint256",
          "name": "id",
          "type": "uint256"
        },
        {
          "internalType": "address",
          "name": "seller",
          "type": "address"
        },
        {
          "internalType": "uint256",
          "name": "price",
          "type": "uint256"
        },
        {
          "internalType": "uint256",
          "name": "nftId",
          "type": "uint256"
        },
        {
          "internalType": "address",
          "name": "buyer",
          "type": "address"
        }
      ],
      "stateMutability": "view",
      "type": "function"
    },
    {
      "inputs": [],
      "name": "nToken",
      "outputs": [
        {
          "internalType": "contract IERC721",
          "name": "",
          "type": "address"
        }
      ],
      "stateMutability": "view",
      "type": "function"
    },
    {
      "inputs": [
        {
          "internalType": "address",
          "name": "",
          "type": "address"
        },
        {
          "internalType": "address",
          "name": "",
          "type": "address"
        },
        {
          "internalType": "uint256",
          "name": "",
          "type": "uint256"
        },
        {
          "internalType": "bytes",
          "name": "",
          "type": "bytes"
        }
      ],
      "name": "onERC721Received",
      "outputs": [
        {
          "internalType": "bytes4",
          "name": "",
          "type": "bytes4"
        }
      ],
      "stateMutability": "nonpayable",
      "type": "function"
    },
    {
      "inputs": [],
      "name": "owner",
      "outputs": [
        {
          "internalType": "address",
          "name": "",
          "type": "address"
        }
      ],
      "stateMutability": "view",
      "type": "function"
    },
    {
      "inputs": [],
      "name": "payToken",
      "outputs": [
        {
          "internalType": "contract IERC20",
          "name": "",
          "type": "address"
        }
      ],
      "stateMutability": "view",
      "type": "function"
    },
    {
      "inputs": [],
      "name": "renounceOwnership",
      "outputs": [],
      "stateMutability": "nonpayable",
      "type": "function"
    },
    {
      "inputs": [
        {
          "internalType": "address",
          "name": "newOwner",
          "type": "address"
        }
      ],
      "name": "transferOwnership",
      "outputs": [],
      "stateMutability": "nonpayable",
      "type": "function"
    },
    {
      "inputs": [
        {
          "internalType": "uint256",
          "name": "",
          "type": "uint256"
        }
      ],
      "name": "userFixedId2Index",
      "outputs": [
        {
          "internalType": "uint256",
          "name": "",
          "type": "uint256"
        }
      ],
      "stateMutability": "view",
      "type": "function"
    },
    {
      "inputs": [
        {
          "internalType": "address",
          "name": "_nToken",
          "type": "address"
        },
        {
          "internalType": "address",
          "name": "_payToken",
          "type": "address"
        },
        {
          "internalType": "address",
          "name": "_ownerAddress",
          "type": "address"
        }
      ],
      "name": "initialize",
      "outputs": [],
      "stateMutability": "nonpayable",
      "type": "function"
    },
    {
      "inputs": [],
      "name": "userFixedOrders",
      "outputs": [
        {
          "components": [
            {
              "internalType": "uint256",
              "name": "id",
              "type": "uint256"
            },
            {
              "internalType": "address",
              "name": "seller",
              "type": "address"
            },
            {
              "internalType": "uint256",
              "name": "price",
              "type": "uint256"
            },
            {
              "internalType": "uint256",
              "name": "nftId",
              "type": "uint256"
            },
            {
              "internalType": "address",
              "name": "buyer",
              "type": "address"
            }
          ],
          "internalType": "struct Nmarket.Order[]",
          "name": "_orders",
          "type": "tuple[]"
        }
      ],
      "stateMutability": "view",
      "type": "function"
    },
    {
      "inputs": [
        {
          "internalType": "uint256",
          "name": "start",
          "type": "uint256"
        },
        {
          "internalType": "uint256",
          "name": "end",
          "type": "uint256"
        }
      ],
      "name": "fixedOrders",
      "outputs": [
        {
          "components": [
            {
              "internalType": "uint256",
              "name": "id",
              "type": "uint256"
            },
            {
              "internalType": "address",
              "name": "seller",
              "type": "address"
            },
            {
              "internalType": "uint256",
              "name": "price",
              "type": "uint256"
            },
            {
              "internalType": "uint256",
              "name": "nftId",
              "type": "uint256"
            },
            {
              "internalType": "address",
              "name": "buyer",
              "type": "address"
            }
          ],
          "internalType": "struct Nmarket.Order[]",
          "name": "_orders",
          "type": "tuple[]"
        },
        {
          "internalType": "uint256",
          "name": "count",
          "type": "uint256"
        }
      ],
      "stateMutability": "view",
      "type": "function"
    },
    {
      "inputs": [
        {
          "internalType": "uint256",
          "name": "nftId",
          "type": "uint256"
        },
        {
          "internalType": "uint256",
          "name": "price",
          "type": "uint256"
        }
      ],
      "name": "sellFixedNft",
      "outputs": [],
      "stateMutability": "nonpayable",
      "type": "function"
    },
    {
      "inputs": [
        {
          "internalType": "uint256",
          "name": "orderId",
          "type": "uint256"
        }
      ],
      "name": "cancleFixedNft",
      "outputs": [],
      "stateMutability": "nonpayable",
      "type": "function"
    },
    {
      "inputs": [
        {
          "internalType": "uint256",
          "name": "orderId",
          "type": "uint256"
        }
      ],
      "name": "buyFixedNft",
      "outputs": [],
      "stateMutability": "nonpayable",
      "type": "function"
    }
  ],
  "bytecode": "0x6080604052620186a0600355600560095534801561001c57600080fd5b5061002d610028610032565b610036565b610091565b3390565b600080546001600160a01b038381166201000081810262010000600160b01b0319851617855560405193049190911692909183917f8be0079c531659141344cd1fd0a4f28419497f9722a3daafe3b4186f6b6457e091a35050565b61133d806100a06000396000f3fe608060405234801561001057600080fd5b506004361061011b5760003560e01c80638f5cf16f116100b2578063c0c53b8b11610081578063cf4fd5b111610066578063cf4fd5b114610246578063f2fde38b1461024e578063f40fe83a146102615761011b565b8063c0c53b8b14610220578063cc57dc6e146102335761011b565b80638f5cf16f146101dd57806396336b30146101f2578063aac1c4ab146101fa578063ba2f95791461020d5761011b565b80636cb4678a116100ee5780636cb4678a14610194578063715018a6146101b857806374baa655146101c05780638da5cb5b146101d55761011b565b80630ebe747414610120578063150b7a021461013e5780634ee028e51461015e578063644024e414610173575b600080fd5b610128610274565b60405161013591906112d2565b60405180910390f35b61015161014c366004610ef7565b61027a565b6040516101359190611111565b61017161016c366004610ffb565b6102a3565b005b610186610181366004611013565b61045e565b6040516101359291906110ef565b6101a76101a2366004610ffb565b610596565b6040516101359594939291906112db565b6101716105d3565b6101c861061e565b60405161013591906110a4565b6101c861062d565b6101e5610642565b60405161013591906110dc565b6101c8610750565b610128610208366004610ffb565b61075f565b61012861021b366004610ffb565b610771565b61017161022e366004610eb2565b610783565b610171610241366004610ffb565b610894565b61012861095e565b61017161025c366004610e90565b610964565b61017161026f366004611013565b6109d5565b60035481565b7f150b7a0200000000000000000000000000000000000000000000000000000000949350505050565b6000818152600460208190526040909120908101546001600160a01b0316156102e75760405162461bcd60e51b81526004016102de9061129b565b60405180910390fd5b60006064600954836002015402816102fb57fe5b600280850154905460018601546040517f23b872dd00000000000000000000000000000000000000000000000000000000815294909304945090849003926001600160a01b03918216926323b872dd9261035f9233929091169086906004016110b8565b602060405180830381600087803b15801561037957600080fd5b505af115801561038d573d6000803e3d6000fd5b505050506040513d601f19601f820116820180604052508101906103b19190610fdb565b506004808401805473ffffffffffffffffffffffffffffffffffffffff1916339081179091556001546003860154604051632142170760e11b81526001600160a01b0392909216936342842e0e9361040d9330939192016110b8565b600060405180830381600087803b15801561042757600080fd5b505af115801561043b573d6000803e3d6000fd5b5050506001840154610458915085906001600160a01b0316610bd9565b50505050565b600554606090801561058f5780831115610479576001810392505b83831061058f576001848403018067ffffffffffffffff8111801561049d57600080fd5b506040519080825280602002602001820160405280156104d757816020015b6104c4610e32565b8152602001906001900390816104bc5790505b5092508460005b8582111580156104ed57508281105b1561058b57600460006005848154811061050357fe5b600091825260208083209091015483528281019390935260409182019020815160a0810183528154815260018201546001600160a01b039081169482019490945260028201549281019290925260038101546060830152600401549091166080820152855186908390811061057457fe5b6020908102919091010152600191820191016104de565b5050505b9250929050565b60046020819052600091825260409091208054600182015460028301546003840154939094015491936001600160a01b0391821693909290911685565b6105db610dbd565b6001600160a01b03166105ec61062d565b6001600160a01b0316146106125760405162461bcd60e51b81526004016102de90611266565b61061c6000610dc1565b565b6001546001600160a01b031681565b6000546201000090046001600160a01b031690565b3360009081526007602052604090208054606091908067ffffffffffffffff8111801561066e57600080fd5b506040519080825280602002602001820160405280156106a857816020015b610695610e32565b81526020019060019003908161068d5790505b50925060005b8181101561074a57600460008483815481106106c657fe5b600091825260208083209091015483528281019390935260409182019020815160a0810183528154815260018201546001600160a01b039081169482019490945260028201549281019290925260038101546060830152600401549091166080820152845185908390811061073757fe5b60209081029190910101526001016106ae565b50505090565b6002546001600160a01b031681565b60086020526000908152604090205481565b60066020526000908152604090205481565b600054610100900460ff168061079c575060005460ff16155b6107b85760405162461bcd60e51b81526004016102de90611209565b600054610100900460ff1615801561080157600080547fffffffffffffffffffffffffffffffffffffffffffffffffffffffffffffff0061ff0019909116610100171660011790555b600180546001600160a01b0380871673ffffffffffffffffffffffffffffffffffffffff19928316179092556002805486841692169190911790556000805491841662010000027fffffffffffffffffffff0000000000000000000000000000000000000000ffff90921691909117905560056009556127106003558015610458576000805461ff001916905550505050565b6000818152600460208190526040909120908101546001600160a01b0316156108cf5760405162461bcd60e51b81526004016102de9061129b565b805460018201546108e991906001600160a01b0316610bd9565b60018054908201546003830154604051632142170760e11b81526001600160a01b03938416936342842e0e9361092893309392909116916004016110b8565b600060405180830381600087803b15801561094257600080fd5b505af1158015610956573d6000803e3d6000fd5b505050505050565b60095481565b61096c610dbd565b6001600160a01b031661097d61062d565b6001600160a01b0316146109a35760405162461bcd60e51b81526004016102de90611266565b6001600160a01b0381166109c95760405162461bcd60e51b81526004016102de90611175565b6109d281610dc1565b50565b600154604051632142170760e11b81526001600160a01b03909116906342842e0e90610a09903390309087906004016110b8565b600060405180830381600087803b158015610a2357600080fd5b505af1158015610a37573d6000803e3d6000fd5b50503360009081526007602052604090208054909250600510159050610a6f5760405162461bcd60e51b81526004016102de9061113e565b600380546040805160a081018252828152336020808301918252828401888152606084018a815260006080860181815288825260049485905296902094518555925160018501805473ffffffffffffffffffffffffffffffffffffffff199081166001600160a01b039384161790915591516002860155925196840196909655925191909201805490941691161790915560055480610b4257600580546001818101835560009283527f036b6384b5eca791c62761152d0c79bb0604c104a5fb6f4eb0703f3154bb3db090910191909155015b60058054600181019091557f036b6384b5eca791c62761152d0c79bb0604c104a5fb6f4eb0703f3154bb3db001829055600082815260066020526040902055815480610ba35782546001818101855560008581526020812090920191909155015b82546001818101855560009485526020808620909201849055928452600890526040909220919091556003805490910190555050565b60055460008381526006602052604090205480610c085760405162461bcd60e51b81526004016102de906111d2565b60056001830381548110610c1857fe5b906000526020600020015460058281548110610c3057fe5b906000526020600020018190555060056001830381548110610c4e57fe5b60009182526020822001556005805480610c6457fe5b60019003818190600052602060002001600090559055600182038114610cb457806006600060058481548110610c9657fe5b90600052602060002001548152602001908152602001600020819055505b6001600160a01b038316600090815260076020908152604080832080548885526008909352922054826000198301838110610ceb57fe5b9060005260206000200154838281548110610d0257fe5b60009182526020808320909101929092556001600160a01b038816815260079091526040902080546000198401908110610d3857fe5b600091825260208083209091018290556001600160a01b03881682526007905260409020805480610d6557fe5b60019003818190600052602060002001600090559055600182038114610db4578060086000858481548110610d9657fe5b90600052602060002001548152602001908152602001600020819055505b50505050505050565b3390565b600080546001600160a01b03838116620100008181027fffffffffffffffffffff0000000000000000000000000000000000000000ffff851617855560405193049190911692909183917f8be0079c531659141344cd1fd0a4f28419497f9722a3daafe3b4186f6b6457e091a35050565b6040518060a001604052806000815260200160006001600160a01b03168152602001600081526020016000815260200160006001600160a01b031681525090565b80356001600160a01b0381168114610e8a57600080fd5b92915050565b600060208284031215610ea1578081fd5b610eab8383610e73565b9392505050565b600080600060608486031215610ec6578182fd5b610ed08585610e73565b9250610edf8560208601610e73565b9150610eee8560408601610e73565b90509250925092565b60008060008060808587031215610f0c578081fd5b610f168686610e73565b93506020610f2687828801610e73565b935060408601359250606086013567ffffffffffffffff80821115610f49578384fd5b818801915088601f830112610f5c578384fd5b813581811115610f6a578485fd5b604051847fffffffffffffffffffffffffffffffffffffffffffffffffffffffffffffffe0601f8401168201018181108482111715610fa7578687fd5b60405281815283820185018b1015610fbd578586fd5b81858501868301379081019093019390935250939692955090935050565b600060208284031215610fec578081fd5b81518015158114610eab578182fd5b60006020828403121561100c578081fd5b5035919050565b60008060408385031215611025578182fd5b50508035926020909101359150565b6000815180845260208085019450808401835b8381101561109957815180518852838101516001600160a01b03908116858a0152604080830151908a0152606080830151908a0152608091820151169088015260a09096019590820190600101611047565b509495945050505050565b6001600160a01b0391909116815260200190565b6001600160a01b039384168152919092166020820152604081019190915260600190565b600060208252610eab6020830184611034565b6000604082526111026040830185611034565b90508260208301529392505050565b7fffffffff0000000000000000000000000000000000000000000000000000000091909116815260200190565b6020808252600e908201527f746f6f206d616e79206f72646572000000000000000000000000000000000000604082015260600190565b60208082526026908201527f4f776e61626c653a206e6577206f776e657220697320746865207a65726f206160408201527f6464726573730000000000000000000000000000000000000000000000000000606082015260800190565b60208082526009908201527f6e6f742065786973740000000000000000000000000000000000000000000000604082015260600190565b6020808252602e908201527f496e697469616c697a61626c653a20636f6e747261637420697320616c72656160408201527f647920696e697469616c697a6564000000000000000000000000000000000000606082015260800190565b6020808252818101527f4f776e61626c653a2063616c6c6572206973206e6f7420746865206f776e6572604082015260600190565b60208082526005908201527f6275796564000000000000000000000000000000000000000000000000000000604082015260600190565b90815260200190565b9485526001600160a01b0393841660208601526040850192909252606084015216608082015260a0019056fea26469706673582212207d63bbb2f49ca339c899094ab4be9fa7ca615a0dc3c59f7372e81c17b574e1c764736f6c634300060c0033",
  "immutableReferences": {},
  "source": "// SPDX-License-Identifier: Unlicensed\npragma solidity >=0.5.0;\npragma experimental ABIEncoderV2;\n\nimport '../interfaces/IERC20.sol';\nimport \"../open/utils/Initializable.sol\";\nimport \"../open/token/ERC721/IERC721.sol\";\nimport \"../open/token/ERC721/utils/ERC721Holder.sol\";\nimport \"../open/utils/Ownable.sol\";\n\n\ncontract Nmarket is ERC721Holder,Initializable,Ownable{\n\n    IERC721 public nToken;\n    IERC20 public payToken;\n\n    ////////////////////////////////一口价/////////////////////////\n\n    uint public ORDER_ID = 100000;\n\n    struct Order{\n        uint id;            //订单ID\n        address seller;     //卖家\n        uint price;         //价格\n        uint nftId;         //\n        address buyer;      //买家\n    }\n\n    mapping( uint => Order) public fixedOrderMap;  //订单信息\n\n    uint[] fixedIds;    //全网列表\n    // id =》 index\n    mapping(uint => uint) public fixedId2Index; \n\n    // owner => ids\n    mapping(address => uint[]) userFixedIds;    //我的列表\n\n    // id =》 index\n    mapping(uint => uint) public userFixedId2Index;\n\n    uint public fixedOrderFee =  5;\n\n    ////////////////////////////////竞拍/////////////////////////\n\n    constructor() public {}\n\n    function initialize(\n        address _nToken,\n        address _payToken,\n        address _ownerAddress\n    ) public initializer {\n        nToken = IERC721(_nToken);\n        payToken = IERC20(_payToken);\n        _owner = _ownerAddress;\n        fixedOrderFee = 5;\n        ORDER_ID = 10000;\n    }\n\n\n    //用户订单\n    function userFixedOrders()external view returns(Order[] memory _orders){\n\n        uint[] storage ids = userFixedIds[msg.sender];\n\n        uint len = ids.length;\n\n        _orders = new Order[](len);\n\n        for( uint i = 0; i < len; i++){\n            _orders[i] = fixedOrderMap[ids[i]];\n        }\n    }\n\n    //全网订单\n    function fixedOrders(uint start,uint end)external view returns(Order[] memory _orders,uint count){\n\n        count = fixedIds.length;\n\n        if( count > 0){\n            if( end > count ) end = count - 1;\n\n            if( end >= start ){\n\n                uint size = end - start + 1;\n\n                _orders = new Order[](size);\n\n                for( (uint i,uint k) = (start,0); i <= end && k < size; (i++,k ++) ){\n                    _orders[k] = fixedOrderMap[fixedIds[i]];\n                }\n            }\n        } \n    }\n\n    //卖出\n    function sellFixedNft(uint nftId,uint price)external{\n\n        nToken.safeTransferFrom(msg.sender,address(this),nftId);\n\n        uint[] storage myIds = userFixedIds[msg.sender];\n\n        require(myIds.length <= 5,\"too many order\");\n\n        uint id = ORDER_ID;\n\n        fixedOrderMap[id] = Order(id,msg.sender,price,nftId,address(0));\n        \n        //全局订单数据\n        uint len = fixedIds.length;\n        if( len == 0 ){\n            fixedIds.push(0);\n            len += 1;\n        }\n        fixedIds.push(id);\n        fixedId2Index[id] = len;\n\n        //个人订单数据\n        len = myIds.length;\n        if( len == 0 ){\n            myIds.push(0);\n            len += 1;\n        }\n        myIds.push(id);\n        userFixedId2Index[id] = len;\n\n        ORDER_ID ++;\n        return;\n    }\n\n    //修改订单\n    function cancleFixedNft(uint orderId)external{\n        \n        Order storage order = fixedOrderMap[orderId];\n\n        require(order.buyer == address(0),\"buyed\");\n\n        _updateOrder(order.id,order.seller);\n\n        nToken.safeTransferFrom(address(this),order.seller,order.nftId);\n    }\n\n    //购买\n    function buyFixedNft(uint orderId)external{\n        \n        Order storage order = fixedOrderMap[orderId];\n        require(order.buyer == address(0),\"buyed\");\n\n        uint fee = order.price * fixedOrderFee / 100;\n        uint v = order.price - fee;\n        payToken.transferFrom(msg.sender, order.seller, v);\n        \n        order.buyer = msg.sender;\n        \n        nToken.safeTransferFrom(address(this),msg.sender,order.nftId);\n        _updateOrder(orderId,order.seller);\n    }\n\n    function _updateOrder(uint orderId,address owner)internal{\n\n        uint len1 = fixedIds.length;\n        uint index1 = fixedId2Index[orderId];\n\n        require(index1 > 0,\"not exist\");\n\n        fixedIds[index1] = fixedIds[len1-1];\n        delete fixedIds[len1 - 1];\n        fixedIds.pop();\n\n        if( index1 != len1 - 1 ){\n            fixedId2Index[fixedIds[index1]] = index1;\n        }\n\n        uint[] storage ids = userFixedIds[owner];\n\n        uint len2 = ids.length;\n\n        uint index2 = userFixedId2Index[orderId];\n\n        ids[index2] = ids[len2 - 1];\n        delete userFixedIds[owner][len2 - 1];\n        userFixedIds[owner].pop();\n\n        if( index2 != len2 - 1){\n            userFixedId2Index[ids[index2]] = index2;\n        }\n    }\n}",
  "sourcePath": "/Users/jie/Desktop/CC/fist/nft/contracts/nft/Nmarket.sol",
  "compiler": {
    "name": "solc",
    "version": "0.6.12+commit.27d51765.Emscripten.clang"
  },
  "schemaVersion": "3.4.4",
  "updatedAt": "2022-01-17T14:17:24.299Z",
  "devdoc": {
    "kind": "dev",
    "methods": {
      "onERC721Received(address,address,uint256,bytes)": {
        "details": "See {IERC721Receiver-onERC721Received}. Always returns `IERC721Receiver.onERC721Received.selector`."
      },
      "owner()": {
        "details": "Returns the address of the current owner."
      },
      "renounceOwnership()": {
        "details": "Leaves the contract without owner. It will not be possible to call `onlyOwner` functions anymore. Can only be called by the current owner. NOTE: Renouncing ownership will leave the contract without an owner, thereby removing any functionality that is only available to the owner."
      },
      "transferOwnership(address)": {
        "details": "Transfers ownership of the contract to a new account (`newOwner`). Can only be called by the current owner."
      }
    },
    "version": 1
  },
  "userdoc": {
    "kind": "user",
    "methods": {},
    "version": 1
  }
}