{
  "contractName": "Nmarket",
  "abi": [
    {
      "inputs": [],
      "stateMutability": "nonpayable",
      "type": "constructor"
    },
    {
      "anonymous": false,
      "inputs": [
        {
          "indexed": true,
          "internalType": "address",
          "name": "previousOwner",
          "type": "address"
        },
        {
          "indexed": true,
          "internalType": "address",
          "name": "newOwner",
          "type": "address"
        }
      ],
      "name": "OwnershipTransferred",
      "type": "event"
    },
    {
      "inputs": [],
      "name": "ORDER_ID",
      "outputs": [
        {
          "internalType": "uint256",
          "name": "",
          "type": "uint256"
        }
      ],
      "stateMutability": "view",
      "type": "function"
    },
    {
      "inputs": [],
      "name": "fixedOrderFee",
      "outputs": [
        {
          "internalType": "uint256",
          "name": "",
          "type": "uint256"
        }
      ],
      "stateMutability": "view",
      "type": "function"
    },
    {
      "inputs": [
        {
          "internalType": "uint256",
          "name": "",
          "type": "uint256"
        }
      ],
      "name": "fixedOrderMap",
      "outputs": [
        {
          "internalType": "uint256",
          "name": "id",
          "type": "uint256"
        },
        {
          "internalType": "address",
          "name": "seller",
          "type": "address"
        },
        {
          "internalType": "uint256",
          "name": "price",
          "type": "uint256"
        },
        {
          "internalType": "address",
          "name": "nft",
          "type": "address"
        },
        {
          "internalType": "bool",
          "name": "is721",
          "type": "bool"
        },
        {
          "internalType": "uint256",
          "name": "nftId",
          "type": "uint256"
        },
        {
          "internalType": "uint256",
          "name": "amount",
          "type": "uint256"
        },
        {
          "internalType": "address",
          "name": "buyer",
          "type": "address"
        }
      ],
      "stateMutability": "view",
      "type": "function"
    },
    {
      "inputs": [
        {
          "internalType": "address",
          "name": "",
          "type": "address"
        },
        {
          "internalType": "address",
          "name": "",
          "type": "address"
        },
        {
          "internalType": "uint256[]",
          "name": "",
          "type": "uint256[]"
        },
        {
          "internalType": "uint256[]",
          "name": "",
          "type": "uint256[]"
        },
        {
          "internalType": "bytes",
          "name": "",
          "type": "bytes"
        }
      ],
      "name": "onERC1155BatchReceived",
      "outputs": [
        {
          "internalType": "bytes4",
          "name": "",
          "type": "bytes4"
        }
      ],
      "stateMutability": "nonpayable",
      "type": "function"
    },
    {
      "inputs": [
        {
          "internalType": "address",
          "name": "",
          "type": "address"
        },
        {
          "internalType": "address",
          "name": "",
          "type": "address"
        },
        {
          "internalType": "uint256",
          "name": "",
          "type": "uint256"
        },
        {
          "internalType": "uint256",
          "name": "",
          "type": "uint256"
        },
        {
          "internalType": "bytes",
          "name": "",
          "type": "bytes"
        }
      ],
      "name": "onERC1155Received",
      "outputs": [
        {
          "internalType": "bytes4",
          "name": "",
          "type": "bytes4"
        }
      ],
      "stateMutability": "nonpayable",
      "type": "function"
    },
    {
      "inputs": [
        {
          "internalType": "address",
          "name": "",
          "type": "address"
        },
        {
          "internalType": "address",
          "name": "",
          "type": "address"
        },
        {
          "internalType": "uint256",
          "name": "",
          "type": "uint256"
        },
        {
          "internalType": "bytes",
          "name": "",
          "type": "bytes"
        }
      ],
      "name": "onERC721Received",
      "outputs": [
        {
          "internalType": "bytes4",
          "name": "",
          "type": "bytes4"
        }
      ],
      "stateMutability": "nonpayable",
      "type": "function"
    },
    {
      "inputs": [],
      "name": "owner",
      "outputs": [
        {
          "internalType": "address",
          "name": "",
          "type": "address"
        }
      ],
      "stateMutability": "view",
      "type": "function"
    },
    {
      "inputs": [],
      "name": "payToken",
      "outputs": [
        {
          "internalType": "contract IERC20",
          "name": "",
          "type": "address"
        }
      ],
      "stateMutability": "view",
      "type": "function"
    },
    {
      "inputs": [],
      "name": "renounceOwnership",
      "outputs": [],
      "stateMutability": "nonpayable",
      "type": "function"
    },
    {
      "inputs": [
        {
          "internalType": "bytes4",
          "name": "interfaceId",
          "type": "bytes4"
        }
      ],
      "name": "supportsInterface",
      "outputs": [
        {
          "internalType": "bool",
          "name": "",
          "type": "bool"
        }
      ],
      "stateMutability": "view",
      "type": "function"
    },
    {
      "inputs": [
        {
          "internalType": "address",
          "name": "newOwner",
          "type": "address"
        }
      ],
      "name": "transferOwnership",
      "outputs": [],
      "stateMutability": "nonpayable",
      "type": "function"
    },
    {
      "inputs": [
        {
          "internalType": "address",
          "name": "_payToken",
          "type": "address"
        },
        {
          "internalType": "address",
          "name": "_ownerAddress",
          "type": "address"
        }
      ],
      "name": "initialize",
      "outputs": [],
      "stateMutability": "nonpayable",
      "type": "function"
    },
    {
      "inputs": [
        {
          "internalType": "address[]",
          "name": "nft721s",
          "type": "address[]"
        },
        {
          "internalType": "address[]",
          "name": "nft1155s",
          "type": "address[]"
        }
      ],
      "name": "addSupportSellNft",
      "outputs": [],
      "stateMutability": "nonpayable",
      "type": "function"
    },
    {
      "inputs": [
        {
          "internalType": "address",
          "name": "nft",
          "type": "address"
        }
      ],
      "name": "userFixedOrders",
      "outputs": [
        {
          "components": [
            {
              "internalType": "uint256",
              "name": "id",
              "type": "uint256"
            },
            {
              "internalType": "address",
              "name": "seller",
              "type": "address"
            },
            {
              "internalType": "uint256",
              "name": "price",
              "type": "uint256"
            },
            {
              "internalType": "address",
              "name": "nft",
              "type": "address"
            },
            {
              "internalType": "bool",
              "name": "is721",
              "type": "bool"
            },
            {
              "internalType": "uint256",
              "name": "nftId",
              "type": "uint256"
            },
            {
              "internalType": "uint256",
              "name": "amount",
              "type": "uint256"
            },
            {
              "internalType": "address",
              "name": "buyer",
              "type": "address"
            }
          ],
          "internalType": "struct Nmarket.Order[]",
          "name": "_orders",
          "type": "tuple[]"
        }
      ],
      "stateMutability": "view",
      "type": "function"
    },
    {
      "inputs": [
        {
          "internalType": "address",
          "name": "nft",
          "type": "address"
        },
        {
          "internalType": "uint256",
          "name": "start",
          "type": "uint256"
        },
        {
          "internalType": "uint256",
          "name": "end",
          "type": "uint256"
        }
      ],
      "name": "fixedOrders",
      "outputs": [
        {
          "components": [
            {
              "internalType": "uint256",
              "name": "id",
              "type": "uint256"
            },
            {
              "internalType": "address",
              "name": "seller",
              "type": "address"
            },
            {
              "internalType": "uint256",
              "name": "price",
              "type": "uint256"
            },
            {
              "internalType": "address",
              "name": "nft",
              "type": "address"
            },
            {
              "internalType": "bool",
              "name": "is721",
              "type": "bool"
            },
            {
              "internalType": "uint256",
              "name": "nftId",
              "type": "uint256"
            },
            {
              "internalType": "uint256",
              "name": "amount",
              "type": "uint256"
            },
            {
              "internalType": "address",
              "name": "buyer",
              "type": "address"
            }
          ],
          "internalType": "struct Nmarket.Order[]",
          "name": "_orders",
          "type": "tuple[]"
        },
        {
          "internalType": "uint256",
          "name": "count",
          "type": "uint256"
        }
      ],
      "stateMutability": "view",
      "type": "function"
    },
    {
      "inputs": [
        {
          "internalType": "address",
          "name": "nft",
          "type": "address"
        },
        {
          "internalType": "uint256",
          "name": "nftId",
          "type": "uint256"
        },
        {
          "internalType": "uint256",
          "name": "price",
          "type": "uint256"
        }
      ],
      "name": "setNft721",
      "outputs": [],
      "stateMutability": "nonpayable",
      "type": "function"
    },
    {
      "inputs": [
        {
          "internalType": "address",
          "name": "nft",
          "type": "address"
        },
        {
          "internalType": "uint256",
          "name": "nftId",
          "type": "uint256"
        },
        {
          "internalType": "uint256",
          "name": "price",
          "type": "uint256"
        },
        {
          "internalType": "uint256",
          "name": "amount",
          "type": "uint256"
        }
      ],
      "name": "sellNft1155",
      "outputs": [],
      "stateMutability": "nonpayable",
      "type": "function"
    },
    {
      "inputs": [
        {
          "internalType": "uint256",
          "name": "orderId",
          "type": "uint256"
        }
      ],
      "name": "cancleFixedNft",
      "outputs": [],
      "stateMutability": "nonpayable",
      "type": "function"
    },
    {
      "inputs": [
        {
          "internalType": "uint256",
          "name": "orderId",
          "type": "uint256"
        }
      ],
      "name": "buyNft",
      "outputs": [],
      "stateMutability": "nonpayable",
      "type": "function"
    }
  ],
  "bytecode": "0x6080604052620186a0600455600560075534801561001c57600080fd5b5061002d610028610032565b610036565b610091565b3390565b600080546001600160a01b038381166201000081810262010000600160b01b0319851617855560405193049190911692909183917f8be0079c531659141344cd1fd0a4f28419497f9722a3daafe3b4186f6b6457e091a35050565b61204080620000a16000396000f3fe608060405234801561001057600080fd5b50600436106101515760003560e01c80638da5cb5b116100cd578063cc57dc6e11610081578063f23a6e6111610066578063f23a6e61146102b0578063f2fde38b146102c3578063fddf489e146102d657610151565b8063cc57dc6e14610295578063cf4fd5b1146102a857610151565b8063bc197c81116100b2578063bc197c811461024e578063c062adfb14610261578063c712efc21461027457610151565b80638da5cb5b1461023157806396336b301461024657610151565b806346c3ad041161012457806368d7ddde1161010957806368d7ddde146101ef5780636cb4678a14610202578063715018a61461022957610151565b806346c3ad04146101c9578063485cc955146101dc57610151565b806301ffc9a7146101565780630ebe74741461017f578063150b7a0214610194578063243adbdd146101b4575b600080fd5b610169610164366004611a47565b6102f6565b6040516101769190611bf0565b60405180910390f35b610187610352565b6040516101769190611f63565b6101a76101a236600461188c565b610358565b6040516101769190611bfb565b6101c76101c2366004611a87565b610381565b005b6101c76101d73660046119c6565b61068f565b6101c76101ea3660046117ae565b610824565b6101c76101fd36600461198c565b610909565b610215610210366004611a87565b6109f2565b604051610176989796959493929190611f6c565b6101c7610a5a565b610239610aa5565b6040516101769190611b4b565b610239610aba565b6101a761025c3660046117e2565b610ac9565b6101c761026f366004611959565b610af3565b610287610282366004611959565b610bd3565b604051610176929190611bce565b6101c76102a3366004611a87565b610d5a565b610187610f70565b6101a76102be3660046118f4565b610f76565b6101c76102d1366004611793565b610fa0565b6102e96102e4366004611793565b611011565b6040516101769190611bbb565b60007fffffffff0000000000000000000000000000000000000000000000000000000082167f4e2312e000000000000000000000000000000000000000000000000000000000148061034c575061034c82611180565b92915050565b60045481565b7f150b7a0200000000000000000000000000000000000000000000000000000000949350505050565b6000818152600660208190526040909120908101546001600160a01b0316156103c55760405162461bcd60e51b81526004016103bc90611e87565b60405180910390fd5b60018101546001600160a01b03163314156103f25760405162461bcd60e51b81526004016103bc90611c85565b60018101546001600160a01b031661041c5760405162461bcd60e51b81526004016103bc90611e50565b600060646007548360020154028161043057fe5b600284015460035460018601546040517f23b872dd00000000000000000000000000000000000000000000000000000000815294909304945090849003926001600160a01b03918216926323b872dd92610494923392909116908690600401611b5f565b602060405180830381600087803b1580156104ae57600080fd5b505af11580156104c2573d6000803e3d6000fd5b505050506040513d601f19601f820116820180604052508101906104e69190611a27565b5060068301805473ffffffffffffffffffffffffffffffffffffffff19163317905560038301546001600160a01b031660008181526002602052604090205460ff161561059757600480850154604051632142170760e11b81526001600160a01b038416926342842e0e9261056092309233929101611b5f565b600060405180830381600087803b15801561057a57600080fd5b505af115801561058e573d6000803e3d6000fd5b50505050610601565b6004808501546005860154604051637921219560e11b81526001600160a01b0385169363f242432a936105ce933093339301611b83565b600060405180830381600087803b1580156105e857600080fd5b505af11580156105fc573d6000803e3d6000fd5b505050505b60038401546001600160a01b0316600090815260056020526040902061062781876111ca565b6106435760405162461bcd60e51b81526004016103bc90611d87565b60018501546001600160a01b03166000908152600282016020526040902061066b90876111ca565b6106875760405162461bcd60e51b81526004016103bc90611d19565b505050505050565b6106976111dd565b6001600160a01b03166106a8610aa5565b6001600160a01b0316146106ce5760405162461bcd60e51b81526004016103bc90611e1b565b60005b82518110156107765760018060008584815181106106eb57fe5b60200260200101516001600160a01b03166001600160a01b0316815260200190815260200160002060006101000a81548160ff02191690831515021790555060016002600085848151811061073c57fe5b6020908102919091018101516001600160a01b03168252810191909152604001600020805460ff19169115159190911790556001016106d1565b5060005b815181101561081f57600180600084848151811061079457fe5b60200260200101516001600160a01b03166001600160a01b0316815260200190815260200160002060006101000a81548160ff0219169083151502179055506000600260008484815181106107e557fe5b6020908102919091018101516001600160a01b03168252810191909152604001600020805460ff191691151591909117905560010161077a565b505050565b600054610100900460ff168061083d575060005460ff16155b6108595760405162461bcd60e51b81526004016103bc90611dbe565b600054610100900460ff16158015610884576000805460ff1961ff0019909116610100171660011790555b6003805473ffffffffffffffffffffffffffffffffffffffff19166001600160a01b0385811691909117909155600080547fffffffffffffffffffff0000000000000000000000000000000000000000ffff1662010000928516929092029190911790556005600755612710600455801561081f576000805461ff0019169055505050565b6001600160a01b03841660009081526001602052604090205460ff166109415760405162461bcd60e51b81526004016103bc90611d50565b6001600160a01b03841660009081526002602052604090205460ff161561097a5760405162461bcd60e51b81526004016103bc90611ef5565b604051637921219560e11b81526001600160a01b0385169063f242432a906109ac903390309088908790600401611b83565b600060405180830381600087803b1580156109c657600080fd5b505af11580156109da573d6000803e3d6000fd5b505050506109ec8484848460006111e1565b50505050565b6006602081905260009182526040909120805460018201546002830154600384015460048501546005860154959096015493956001600160a01b03938416959294848316947401000000000000000000000000000000000000000090930460ff169391921688565b610a626111dd565b6001600160a01b0316610a73610aa5565b6001600160a01b031614610a995760405162461bcd60e51b81526004016103bc90611e1b565b610aa3600061139c565b565b6000546201000090046001600160a01b031690565b6003546001600160a01b031681565b7fbc197c810000000000000000000000000000000000000000000000000000000095945050505050565b6001600160a01b03831660009081526001602052604090205460ff16610b2b5760405162461bcd60e51b81526004016103bc90611d50565b6001600160a01b03831660009081526002602052604090205460ff16610b635760405162461bcd60e51b81526004016103bc90611ebe565b604051632142170760e11b81526001600160a01b038416906342842e0e90610b9390339030908790600401611b5f565b600060405180830381600087803b158015610bad57600080fd5b505af1158015610bc1573d6000803e3d6000fd5b5050505061081f8383836001806111e1565b6001600160a01b038316600090815260056020526040812060609190610bf88161140d565b91508115610d515781841115610c0f576001820393505b848410610d51576001858503018067ffffffffffffffff81118015610c3357600080fd5b50604051908082528060200260200182016040528015610c6d57816020015b610c5a6115bf565b815260200190600190039081610c525790505b5093508560005b868211158015610c8357508281105b15610d4d5760066000610c968685611418565b815260208082019290925260409081016000208151610100810183528154815260018201546001600160a01b03908116948201949094526002820154928101929092526003810154808416606084015274010000000000000000000000000000000000000000900460ff1615156080830152600481015460a0830152600581015460c08301526006015490911660e08201528651879083908110610d3657fe5b602090810291909101015260019182019101610c74565b5050505b50935093915050565b6000818152600660208190526040909120908101546001600160a01b031615610d955760405162461bcd60e51b81526004016103bc90611e87565b60018101546001600160a01b03163314610dc15760405162461bcd60e51b81526004016103bc90611f2c565b60038101546001600160a01b031660008181526002602052604090205460ff1615610e58576001820154600480840154604051632142170760e11b81526001600160a01b03858116946342842e0e94610e21943094939092169201611b5f565b600060405180830381600087803b158015610e3b57600080fd5b505af1158015610e4f573d6000803e3d6000fd5b50505050610ecb565b60018201546004808401546005850154604051637921219560e11b81526001600160a01b038087169563f242432a95610e98953095929093169301611b83565b600060405180830381600087803b158015610eb257600080fd5b505af1158015610ec6573d6000803e3d6000fd5b505050505b6001600160a01b0381166000908152600560205260409020610eed81856111ca565b610f095760405162461bcd60e51b81526004016103bc90611d87565b60018301546001600160a01b031660009081526002820160205260409020610f3190856111ca565b610f4d5760405162461bcd60e51b81526004016103bc90611d19565b5050600101805473ffffffffffffffffffffffffffffffffffffffff1916905550565b60075481565b7ff23a6e610000000000000000000000000000000000000000000000000000000095945050505050565b610fa86111dd565b6001600160a01b0316610fb9610aa5565b6001600160a01b031614610fdf5760405162461bcd60e51b81526004016103bc90611e1b565b6001600160a01b0381166110055760405162461bcd60e51b81526004016103bc90611cbc565b61100e8161139c565b50565b6001600160a01b0381166000908152600560209081526040808320338452600281019092528220606092906110459061140d565b90508067ffffffffffffffff8111801561105e57600080fd5b5060405190808252806020026020018201604052801561109857816020015b6110856115bf565b81526020019060019003908161107d5790505b50925060005b81811015611178573360009081526002840160205260408120600691906110c59084611418565b815260208082019290925260409081016000208151610100810183528154815260018201546001600160a01b03908116948201949094526002820154928101929092526003810154808416606084015274010000000000000000000000000000000000000000900460ff1615156080830152600481015460a0830152600581015460c08301526006015490911660e0820152845185908390811061116557fe5b602090810291909101015260010161109e565b505050919050565b7fffffffff0000000000000000000000000000000000000000000000000000000081167f01ffc9a70000000000000000000000000000000000000000000000000000000014919050565b60006111d68383611424565b9392505050565b3390565b600060056000876001600160a01b03166001600160a01b03168152602001908152602001600020905060006004549050600460008154809291906001019190505550604051806101000160405280828152602001336001600160a01b03168152602001868152602001886001600160a01b03168152602001841515815260200187815260200185815260200160006001600160a01b0316815250600660008381526020019081526020016000206000820151816000015560208201518160010160006101000a8154816001600160a01b0302191690836001600160a01b031602179055506040820151816002015560608201518160030160006101000a8154816001600160a01b0302191690836001600160a01b0316021790555060808201518160030160146101000a81548160ff02191690831515021790555060a0820151816004015560c0820151816005015560e08201518160060160006101000a8154816001600160a01b0302191690836001600160a01b03160217905550905050611376818360000161150890919063ffffffff16565b5033600090815260028301602052604090206113929082611508565b5050505050505050565b600080546001600160a01b03838116620100008181027fffffffffffffffffffff0000000000000000000000000000000000000000ffff851617855560405193049190911692909183917f8be0079c531659141344cd1fd0a4f28419497f9722a3daafe3b4186f6b6457e091a35050565b600061034c82611514565b60006111d68383611518565b600081815260018301602052604081205480156114fe5783547fffffffffffffffffffffffffffffffffffffffffffffffffffffffffffffffff808301919081019060009087908390811061147557fe5b906000526020600020015490508087600001848154811061149257fe5b6000918252602080832090910192909255828152600189810190925260409020908401905586548790806114c257fe5b6001900381819060005260206000200160009055905586600101600087815260200190815260200160002060009055600194505050505061034c565b600091505061034c565b60006111d6838361155d565b5490565b8154600090821061153b5760405162461bcd60e51b81526004016103bc90611c28565b82600001828154811061154a57fe5b9060005260206000200154905092915050565b600061156983836115a7565b61159f5750815460018181018455600084815260208082209093018490558454848252828601909352604090209190915561034c565b50600061034c565b60009081526001919091016020526040902054151590565b6040518061010001604052806000815260200160006001600160a01b031681526020016000815260200160006001600160a01b03168152602001600015158152602001600081526020016000815260200160006001600160a01b031681525090565b80356001600160a01b038116811461034c57600080fd5b600082601f830112611648578081fd5b813561165b61165682611fd5565b611fae565b81815291506020808301908481018184028601820187101561167c57600080fd5b60005b848110156116a3576116918883611621565b8452928201929082019060010161167f565b505050505092915050565b600082601f8301126116be578081fd5b81356116cc61165682611fd5565b8181529150602080830190848101818402860182018710156116ed57600080fd5b60005b848110156116a3578135845292820192908201906001016116f0565b600082601f83011261171c578081fd5b813567ffffffffffffffff811115611732578182fd5b61176360207fffffffffffffffffffffffffffffffffffffffffffffffffffffffffffffffe0601f84011601611fae565b915080825283602082850101111561177a57600080fd5b8060208401602084013760009082016020015292915050565b6000602082840312156117a4578081fd5b6111d68383611621565b600080604083850312156117c0578081fd5b6117ca8484611621565b91506117d98460208501611621565b90509250929050565b600080600080600060a086880312156117f9578081fd5b853561180481611ff5565b9450602086013561181481611ff5565b9350604086013567ffffffffffffffff80821115611830578283fd5b61183c89838a016116ae565b94506060880135915080821115611851578283fd5b61185d89838a016116ae565b93506080880135915080821115611872578283fd5b5061187f8882890161170c565b9150509295509295909350565b600080600080608085870312156118a1578384fd5b6118ab8686611621565b93506118ba8660208701611621565b925060408501359150606085013567ffffffffffffffff8111156118dc578182fd5b6118e88782880161170c565b91505092959194509250565b600080600080600060a0868803121561190b578081fd5b6119158787611621565b94506119248760208801611621565b93506040860135925060608601359150608086013567ffffffffffffffff81111561194d578182fd5b61187f8882890161170c565b60008060006060848603121561196d578283fd5b6119778585611621565b95602085013595506040909401359392505050565b600080600080608085870312156119a1578384fd5b84356119ac81611ff5565b966020860135965060408601359560600135945092505050565b600080604083850312156119d8578182fd5b823567ffffffffffffffff808211156119ef578384fd5b6119fb86838701611638565b93506020850135915080821115611a10578283fd5b50611a1d85828601611638565b9150509250929050565b600060208284031215611a38578081fd5b815180151581146111d6578182fd5b600060208284031215611a58578081fd5b81357fffffffff00000000000000000000000000000000000000000000000000000000811681146111d6578182fd5b600060208284031215611a98578081fd5b5035919050565b6001600160a01b03169052565b6000815180845260208085019450808401835b83811015611b4057815180518852838101516001600160a01b03908116858a0152604080830151908a01526060808301519091169089015260808082015115159089015260a0808201519089015260c0808201519089015260e09081015190611b2a818a0183611a9f565b5050610100969096019590820190600101611abf565b509495945050505050565b6001600160a01b0391909116815260200190565b6001600160a01b039384168152919092166020820152604081019190915260600190565b6001600160a01b0394851681529290931660208301526040820152606081019190915260a06080820181905260009082015260c00190565b6000602082526111d66020830184611aac565b600060408252611be16040830185611aac565b90508260208301529392505050565b901515815260200190565b7fffffffff0000000000000000000000000000000000000000000000000000000091909116815260200190565b60208082526022908201527f456e756d657261626c655365743a20696e646578206f7574206f6620626f756e60408201527f6473000000000000000000000000000000000000000000000000000000000000606082015260800190565b60208082526006908201527f6f6e73656c660000000000000000000000000000000000000000000000000000604082015260600190565b60208082526026908201527f4f776e61626c653a206e6577206f776e657220697320746865207a65726f206160408201527f6464726573730000000000000000000000000000000000000000000000000000606082015260800190565b60208082526010908201527f73656c6c6572206e6f7420657869737400000000000000000000000000000000604082015260600190565b6020808252600b908201527f6e6f7420737570706f7274000000000000000000000000000000000000000000604082015260600190565b60208082526009908201527f6e6f742065786973740000000000000000000000000000000000000000000000604082015260600190565b6020808252602e908201527f496e697469616c697a61626c653a20636f6e747261637420697320616c72656160408201527f647920696e697469616c697a6564000000000000000000000000000000000000606082015260800190565b6020808252818101527f4f776e61626c653a2063616c6c6572206973206e6f7420746865206f776e6572604082015260600190565b60208082526007908201527f63616e636c656400000000000000000000000000000000000000000000000000604082015260600190565b60208082526005908201527f6275796564000000000000000000000000000000000000000000000000000000604082015260600190565b60208082526007908201527f6e6f742037323100000000000000000000000000000000000000000000000000604082015260600190565b60208082526008908201527f6e6f742031313535000000000000000000000000000000000000000000000000604082015260600190565b60208082526009908201527f6e6f74206f776e65720000000000000000000000000000000000000000000000604082015260600190565b90815260200190565b9788526001600160a01b03968716602089015260408801959095529285166060870152901515608086015260a085015260c08401521660e08201526101000190565b60405181810167ffffffffffffffff81118282101715611fcd57600080fd5b604052919050565b600067ffffffffffffffff821115611feb578081fd5b5060209081020190565b6001600160a01b038116811461100e57600080fdfea264697066735822122070dcc700c9a9404b09e2fd9c8f38f391a35bc6bc01b4a9376e157e5de4d4abcd64736f6c634300060c0033",
  "immutableReferences": {},
  "source": "// SPDX-License-Identifier: Unlicensed\npragma solidity >=0.5.0;\npragma experimental ABIEncoderV2;\n\nimport '../interfaces/IERC20.sol';\nimport \"../open/utils/Initializable.sol\";\nimport \"../open/token/ERC721/IERC721.sol\";\nimport \"../open/token/ERC721/utils/ERC721Holder.sol\";\nimport \"../open/token/ERC1155/utils/ERC1155Holder.sol\";\nimport \"../open/token/ERC1155/IERC1155.sol\";\nimport \"../open/utils/Ownable.sol\";\nimport \"../open/lib/EnumerableSet.sol\";\n\n\n\ncontract Nmarket is ERC721Holder,ERC1155Holder,Initializable,Ownable{\n\n    using EnumerableSet for EnumerableSet.UintSet;\n    //IERC721 public nToken;\n    mapping(address => bool) supportSellNfts;\n\n    mapping(address => bool) isNft721;\n\n    IERC20 public payToken;\n\n    /////////////////////////////////////////////////////////\n\n    uint public ORDER_ID = 100000;\n\n    struct Order{\n        uint id;            //ID\n        address seller;     //\n        uint price;         //\n        address nft;        //nft\n        bool is721;         //721\n        uint nftId;         //id\n        uint amount;        //\n        address buyer;      //\n    }\n\n    struct Market{\n        EnumerableSet.UintSet networkIds;\n        mapping(address => EnumerableSet.UintSet) userIds;\n    }\n\n    mapping(address => Market) marketMaps;\n\n    mapping( uint => Order) public fixedOrderMap;  //\n    \n    uint public fixedOrderFee =  5;\n\n    /////////////////////////////////////////////////////////\n\n    constructor() public {}\n\n    function initialize(\n        address _payToken,\n        address _ownerAddress\n    ) public initializer {\n        payToken = IERC20(_payToken);\n        _owner = _ownerAddress;\n        fixedOrderFee = 5;\n        ORDER_ID = 10000;\n    }\n\n    function addSupportSellNft(address[] memory nft721s ,address[] memory nft1155s)external onlyOwner{\n\n        for( uint i = 0; i < nft721s.length; i++){\n            supportSellNfts[nft721s[i]] = true;\n            isNft721[nft721s[i]] = true;\n        }\n\n        for( uint i = 0; i < nft1155s.length; i++){\n            supportSellNfts[nft1155s[i]] = true;\n            isNft721[nft1155s[i]] = false;\n        }\n    }\n\n    //\n    function userFixedOrders(address nft)external view returns(Order[] memory _orders){\n\n        Market storage market = marketMaps[nft];\n\n        uint len = market.userIds[msg.sender].length();\n\n        _orders = new Order[](len);\n\n        for( uint i = 0; i < len; i++){\n            _orders[i] = fixedOrderMap[market.userIds[msg.sender].at(i)];\n        }\n    }\n\n    //\n    function fixedOrders(address nft,uint start,uint end)external view returns(\n            Order[] memory _orders,uint count){\n\n        Market storage market = marketMaps[nft];\n        count = market.networkIds.length();\n\n        if( count > 0){\n            if( end > count ) end = count - 1;\n\n            if( end >= start ){\n\n                uint size = end - start + 1;\n\n                _orders = new Order[](size);\n\n                for( (uint i,uint k) = (start,0); i <= end && k < size; (i++,k ++) ){\n                    _orders[k] = fixedOrderMap[market.networkIds.at(i)];\n                }\n            }\n        } \n    }\n\n    function setNft721(address nft,uint nftId,uint price)external{\n        \n        require(supportSellNfts[nft],\"not support\");\n\n        require(isNft721[nft],\"not 721\");\n\n        IERC721(nft).safeTransferFrom(msg.sender,address(this),nftId);\n\n        _doSellNft(nft,nftId,price,1,true);\n    }\n\n  \n    function _doSellNft(\n            address nft,\n            uint nftId,\n            uint price,\n            uint amount,\n            bool is721)internal{\n\n        Market storage market = marketMaps[nft];\n\n        uint id = ORDER_ID;\n        ORDER_ID ++;\n\n        fixedOrderMap[id] = Order(\n                id,\n                msg.sender,\n                price,\n                nft,\n                is721,\n                nftId,\n                amount,\n                address(0));\n        \n        market.networkIds.add(id);\n        market.userIds[msg.sender].add(id);\n    }\n\n    //\n    function sellNft1155(address nft,uint nftId,uint price,uint amount)external{\n\n        require(supportSellNfts[nft],\"not support\");\n\n        require(!isNft721[nft],\"not 1155\");\n\n        IERC1155(nft).safeTransferFrom(msg.sender, address(this), nftId, amount, \"\");\n        \n        _doSellNft(nft,nftId,price,amount,false);        \n    }\n\n    //\n    function cancleFixedNft(uint orderId)external{\n        \n        Order storage order = fixedOrderMap[orderId];\n\n        require(order.buyer == address(0),\"buyed\");\n\n        require(order.seller == msg.sender,\"not owner\");\n\n        address nft = order.nft;\n        if( isNft721[nft]){\n            IERC721(nft).safeTransferFrom(address(this),order.seller,order.nftId);\n        }else{\n            IERC1155(nft).safeTransferFrom(address(this),order.seller,order.nftId, order.amount, \"\");\n        }\n\n        Market storage market = marketMaps[nft];\n\n        require(market.networkIds.remove(orderId),\"not exist\");\n\n        require(market.userIds[order.seller].remove(orderId),\"seller not exist\");\n\n        order.seller = address(0);\n    }\n\n    //\n    function buyNft(uint orderId)external{\n        \n        Order storage order = fixedOrderMap[orderId];\n\n        require(order.buyer == address(0),\"buyed\");\n\n        require(order.seller != msg.sender,\"onself\");\n\n        require(order.seller != address(0),\"cancled\");\n\n        uint fee = order.price * fixedOrderFee / 100;\n        uint v = order.price - fee;\n        payToken.transferFrom(msg.sender, order.seller, v);\n        \n        order.buyer = msg.sender;\n        \n        address nft = order.nft;\n        if( isNft721[nft]){\n            IERC721(nft).safeTransferFrom(address(this),msg.sender,order.nftId);\n        }else{\n            IERC1155(nft).safeTransferFrom(address(this),msg.sender,order.nftId, order.amount, \"\");\n        }\n        \n        Market storage market = marketMaps[order.nft];\n\n        require(market.networkIds.remove(orderId),\"not exist\");\n\n        require(market.userIds[order.seller].remove(orderId),\"seller not exist\");\n    \n    }\n\n}",
  "sourcePath": "/Users/jie/Desktop/CC/fist/nft/contracts/nft/Nmarket.sol",
  "compiler": {
    "name": "solc",
    "version": "0.6.12+commit.27d51765.Emscripten.clang"
  },
  "schemaVersion": "3.4.4",
  "updatedAt": "2022-01-23T17:02:27.808Z",
  "devdoc": {
    "kind": "dev",
    "methods": {
      "onERC721Received(address,address,uint256,bytes)": {
        "details": "See {IERC721Receiver-onERC721Received}. Always returns `IERC721Receiver.onERC721Received.selector`."
      },
      "owner()": {
        "details": "Returns the address of the current owner."
      },
      "renounceOwnership()": {
        "details": "Leaves the contract without owner. It will not be possible to call `onlyOwner` functions anymore. Can only be called by the current owner. NOTE: Renouncing ownership will leave the contract without an owner, thereby removing any functionality that is only available to the owner."
      },
      "supportsInterface(bytes4)": {
        "details": "See {IERC165-supportsInterface}."
      },
      "transferOwnership(address)": {
        "details": "Transfers ownership of the contract to a new account (`newOwner`). Can only be called by the current owner."
      }
    },
    "version": 1
  },
  "userdoc": {
    "kind": "user",
    "methods": {},
    "version": 1
  }
}