{
  "contractName": "Nmine",
  "abi": [
    {
      "inputs": [],
      "stateMutability": "nonpayable",
      "type": "constructor"
    },
    {
      "anonymous": false,
      "inputs": [
        {
          "indexed": true,
          "internalType": "address",
          "name": "previousOwner",
          "type": "address"
        },
        {
          "indexed": true,
          "internalType": "address",
          "name": "newOwner",
          "type": "address"
        }
      ],
      "name": "OwnershipTransferred",
      "type": "event"
    },
    {
      "anonymous": false,
      "inputs": [
        {
          "indexed": true,
          "internalType": "address",
          "name": "owner",
          "type": "address"
        },
        {
          "indexed": true,
          "internalType": "uint256",
          "name": "time",
          "type": "uint256"
        },
        {
          "indexed": false,
          "internalType": "uint256",
          "name": "id",
          "type": "uint256"
        }
      ],
      "name": "Pledge",
      "type": "event"
    },
    {
      "anonymous": false,
      "inputs": [
        {
          "indexed": true,
          "internalType": "address",
          "name": "owner",
          "type": "address"
        },
        {
          "indexed": true,
          "internalType": "uint256",
          "name": "time",
          "type": "uint256"
        },
        {
          "indexed": false,
          "internalType": "uint256",
          "name": "id",
          "type": "uint256"
        }
      ],
      "name": "UnPledge",
      "type": "event"
    },
    {
      "inputs": [],
      "name": "factory",
      "outputs": [
        {
          "internalType": "contract FishNftFactory",
          "name": "",
          "type": "address"
        }
      ],
      "stateMutability": "view",
      "type": "function"
    },
    {
      "inputs": [],
      "name": "mineToken",
      "outputs": [
        {
          "internalType": "contract IERC20",
          "name": "",
          "type": "address"
        }
      ],
      "stateMutability": "view",
      "type": "function"
    },
    {
      "inputs": [],
      "name": "nft",
      "outputs": [
        {
          "internalType": "contract IERC721",
          "name": "",
          "type": "address"
        }
      ],
      "stateMutability": "view",
      "type": "function"
    },
    {
      "inputs": [
        {
          "internalType": "address",
          "name": "",
          "type": "address"
        },
        {
          "internalType": "address",
          "name": "",
          "type": "address"
        },
        {
          "internalType": "uint256",
          "name": "",
          "type": "uint256"
        },
        {
          "internalType": "bytes",
          "name": "",
          "type": "bytes"
        }
      ],
      "name": "onERC721Received",
      "outputs": [
        {
          "internalType": "bytes4",
          "name": "",
          "type": "bytes4"
        }
      ],
      "stateMutability": "nonpayable",
      "type": "function"
    },
    {
      "inputs": [],
      "name": "owner",
      "outputs": [
        {
          "internalType": "address",
          "name": "",
          "type": "address"
        }
      ],
      "stateMutability": "view",
      "type": "function"
    },
    {
      "inputs": [],
      "name": "poolInfo",
      "outputs": [
        {
          "internalType": "uint256",
          "name": "mined",
          "type": "uint256"
        },
        {
          "internalType": "uint256",
          "name": "cakePerBlock",
          "type": "uint256"
        },
        {
          "internalType": "uint256",
          "name": "lastRewardBlock",
          "type": "uint256"
        },
        {
          "internalType": "uint256",
          "name": "accCakePerShare",
          "type": "uint256"
        },
        {
          "internalType": "uint256",
          "name": "totalHashRate",
          "type": "uint256"
        }
      ],
      "stateMutability": "view",
      "type": "function"
    },
    {
      "inputs": [],
      "name": "renounceOwnership",
      "outputs": [],
      "stateMutability": "nonpayable",
      "type": "function"
    },
    {
      "inputs": [
        {
          "internalType": "address",
          "name": "newOwner",
          "type": "address"
        }
      ],
      "name": "transferOwnership",
      "outputs": [],
      "stateMutability": "nonpayable",
      "type": "function"
    },
    {
      "inputs": [
        {
          "internalType": "address",
          "name": "_mineToken",
          "type": "address"
        },
        {
          "internalType": "address",
          "name": "_nft",
          "type": "address"
        },
        {
          "internalType": "address",
          "name": "_nftFactory",
          "type": "address"
        },
        {
          "internalType": "uint256",
          "name": "_cakePerBlock",
          "type": "uint256"
        },
        {
          "internalType": "address",
          "name": "_ownerAddress",
          "type": "address"
        }
      ],
      "name": "initialize",
      "outputs": [],
      "stateMutability": "nonpayable",
      "type": "function"
    },
    {
      "inputs": [],
      "name": "getMinerInfo",
      "outputs": [
        {
          "internalType": "uint256",
          "name": "myPower",
          "type": "uint256"
        },
        {
          "internalType": "uint256",
          "name": "networkPower",
          "type": "uint256"
        },
        {
          "internalType": "uint256",
          "name": "mined",
          "type": "uint256"
        },
        {
          "internalType": "uint256[]",
          "name": "ids",
          "type": "uint256[]"
        }
      ],
      "stateMutability": "view",
      "type": "function"
    },
    {
      "inputs": [
        {
          "internalType": "uint256",
          "name": "tokenId",
          "type": "uint256"
        }
      ],
      "name": "pledge",
      "outputs": [
        {
          "internalType": "bool",
          "name": "",
          "type": "bool"
        }
      ],
      "stateMutability": "nonpayable",
      "type": "function"
    },
    {
      "inputs": [
        {
          "internalType": "uint256",
          "name": "tokenId",
          "type": "uint256"
        }
      ],
      "name": "unPledge",
      "outputs": [
        {
          "internalType": "bool",
          "name": "",
          "type": "bool"
        }
      ],
      "stateMutability": "nonpayable",
      "type": "function"
    },
    {
      "inputs": [
        {
          "internalType": "uint256",
          "name": "cakePerBlock",
          "type": "uint256"
        }
      ],
      "name": "setCakePerBlock",
      "outputs": [],
      "stateMutability": "nonpayable",
      "type": "function"
    },
    {
      "inputs": [
        {
          "internalType": "address",
          "name": "owner",
          "type": "address"
        }
      ],
      "name": "pendingCake",
      "outputs": [
        {
          "internalType": "uint256",
          "name": "",
          "type": "uint256"
        }
      ],
      "stateMutability": "view",
      "type": "function"
    },
    {
      "inputs": [
        {
          "internalType": "address",
          "name": "owner",
          "type": "address"
        }
      ],
      "name": "draw",
      "outputs": [],
      "stateMutability": "nonpayable",
      "type": "function"
    }
  ],
  "bytecode": "0x608060405234801561001057600080fd5b5061002161001c610026565b61002a565b610085565b3390565b600080546001600160a01b038381166201000081810262010000600160b01b0319851617855560405193049190911692909183917f8be0079c531659141344cd1fd0a4f28419497f9722a3daafe3b4186f6b6457e091a35050565b61130d806100946000396000f3fe608060405234801561001057600080fd5b50600436106100f55760003560e01c806365b83e5a11610097578063b761f24b11610066578063b761f24b146101dc578063c45a0155146101ef578063efb1ff10146101f7578063f2fde38b14610217576100f5565b806365b83e5a146101a4578063715018a6146101ac5780637326c9c0146101b45780638da5cb5b146101d4576100f5565b806347a59b74116100d357806347a59b741461015057806347ccca0214610163578063530b97a4146101785780635a2f3d091461018b576100f5565b8063106ed5fa146100fa578063150b7a021461010f57806337f4b4ee14610138575b600080fd5b61010d610108366004610f5a565b61022a565b005b61012261011d366004610e74565b610277565b60405161012f9190610fce565b60405180910390f35b6101406102a0565b60405161012f9493929190611259565b61010d61015e366004610df8565b61031b565b61016b61045e565b60405161012f9190610f72565b61010d610186366004610e13565b61046d565b610193610593565b60405161012f9594939291906112b4565b61016b6105a5565b61010d6105b4565b6101c76101c2366004610f5a565b6105ff565b60405161012f9190610fc3565b61016b61073c565b6101c76101ea366004610f5a565b610751565b61016b610936565b61020a610205366004610df8565b610945565b60405161012f9190611250565b61010d610225366004610df8565b6109f8565b610232610a69565b6001600160a01b031661024361073c565b6001600160a01b0316146102725760405162461bcd60e51b8152600401610269906111ad565b60405180910390fd5b600555565b7f150b7a0200000000000000000000000000000000000000000000000000000000949350505050565b336000908152600960209081526040918290208054600854600383015460048401805487518188028101880190985280885293969295919460609490939283018282801561030d57602002820191906000526020600020905b8154815260200190600101908083116102f9575b505050505091505090919293565b6001600160a01b038116600090815260096020526040902061033b610a6d565b6000610376826002015461037064e8d4a5100061036a6004600301548760000154610adf90919063ffffffff16565b90610b1c565b90610b65565b9050801561038957600182018054820190555b60075482546103a29164e8d4a510009161036a91610adf565b60028301556001820154801561045857600060018401556003546040517fa9059cbb0000000000000000000000000000000000000000000000000000000081526001600160a01b039091169063a9059cbb906104049033908590600401610faa565b602060405180830381600087803b15801561041e57600080fd5b505af1158015610432573d6000803e3d6000fd5b505050506040513d601f19601f820116820180604052508101906104569190610f3a565b505b50505050565b6001546001600160a01b031681565b600054610100900460ff1680610486575060005460ff16155b6104a25760405162461bcd60e51b815260040161026990611150565b600054610100900460ff161580156104eb57600080547fffffffffffffffffffffffffffffffffffffffffffffffffffffffffffffff0061ff0019909116610100171660011790555b600380546001600160a01b038089167fffffffffffffffffffffffff0000000000000000000000000000000000000000928316179092556001805488841690831617905560028054878416921691909117905560058490556000805491841662010000027fffffffffffffffffffff0000000000000000000000000000000000000000ffff909216919091179055801561058b576000805461ff00191690555b505050505050565b60045460055460065460075460085485565b6003546001600160a01b031681565b6105bc610a69565b6001600160a01b03166105cd61073c565b6001600160a01b0316146105f35760405162461bcd60e51b8152600401610269906111ad565b6105fd6000610b88565b565b6001546040517f42842e0e0000000000000000000000000000000000000000000000000000000081526000916001600160a01b0316906342842e0e9061064d90339030908790600401610f86565b600060405180830381600087803b15801561066757600080fd5b505af115801561067b573d6000803e3d6000fd5b505033600090815260096020526040902060048101805442945091925090806106b95781546001818101845560008481526020812090920191909155015b81546001810183556000838152602080822090920188905587815260058501909152604090208190556106ee336103e8610bf9565b83336001600160a01b03167faba4f973c8f45a52365c8348704e79653e4b58ebd452f2d2115423a62ef7a3e1886040516107289190611250565b60405180910390a350600195945050505050565b6000546201000090046001600160a01b031690565b3360009081526009602090815260408083206004810180548686526005830190945291842054909242929185838284811061078857fe5b9060005260206000200154116107b05760405162461bcd60e51b815260040161026990611219565b8260018303815481106107bf57fe5b90600052602060002001548382815481106107d657fe5b90600052602060002001819055508460040160018303815481106107f657fe5b60009182526020822001556004850180548061080e57fe5b6001900381819060005260206000200160009055905560018203811461085f578085600501600085848154811061084157fe5b90600052602060002001548152602001908152602001600020819055505b6001546040517f42842e0e0000000000000000000000000000000000000000000000000000000081526001600160a01b03909116906342842e0e906108ac90309033908c90600401610f86565b600060405180830381600087803b1580156108c657600080fd5b505af11580156108da573d6000803e3d6000fd5b505050506108ea336103e8610cac565b83336001600160a01b03167fe7d6b15661bd55e21bcdd85b5bee66fb23ee512d2395c66b0e5f8790a7721036896040516109249190611250565b60405180910390a35050505050919050565b6002546001600160a01b031681565b6001600160a01b03811660009081526009602052604081206007546008546006544311801561097357508015155b156109c157600061098960046002015443610d7b565b60055490915060009061099d908390610adf565b90506109bc6109b58461036a8464e8d4a51000610adf565b8590610d87565b935050505b82600101546109ee846002015461037064e8d4a5100061036a878960000154610adf90919063ffffffff16565b0195945050505050565b610a00610a69565b6001600160a01b0316610a1161073c565b6001600160a01b031614610a375760405162461bcd60e51b8152600401610269906111ad565b6001600160a01b038116610a5d5760405162461bcd60e51b815260040161026990611085565b610a6681610b88565b50565b3390565b6006544311610a7b576105fd565b60085480610a8d5750436006556105fd565b6000610a9e60046002015443610d7b565b600554909150600090610ab2908390610adf565b9050610ad3610aca8461036a8464e8d4a51000610adf565b60075490610d87565b60075550504360065550565b6000811580610afa57505080820282828281610af757fe5b04145b610b165760405162461bcd60e51b8152600401610269906110e2565b92915050565b6000610b5e83836040518060400160405280601a81526020017f536166654d6174683a206469766973696f6e206279207a65726f000000000000815250610daa565b9392505050565b80820382811115610b165760405162461bcd60e51b81526004016102699061104e565b600080546001600160a01b03838116620100008181027fffffffffffffffffffff0000000000000000000000000000000000000000ffff851617855560405193049190911692909183917f8be0079c531659141344cd1fd0a4f28419497f9722a3daafe3b4186f6b6457e091a35050565b6001600160a01b0382166000908152600960205260409020610c19610a6d565b805415610c64576000610c4f826002015461037064e8d4a5100061036a6004600301548760000154610adf90919063ffffffff16565b90508015610c6257600182018054820190555b505b8115610c89578054610c769083610d87565b8155600854610c859083610d87565b6008555b6007548154610ca29164e8d4a510009161036a91610adf565b6002909101555050565b6001600160a01b03821660009081526009602052604090208054821115610ce55760405162461bcd60e51b8152600401610269906111e2565b610ced610a6d565b6000610d1c826002015461037064e8d4a5100061036a6004600301548760000154610adf90919063ffffffff16565b90508015610d2f57600182018054820190555b8215610d54578154610d419084610b65565b8255600854610d509084610b65565b6008555b6007548254610d6d9164e8d4a510009161036a91610adf565b826002018190555050505050565b6000610b5e8284610b65565b80820182811015610b165760405162461bcd60e51b815260040161026990611119565b60008183610dcb5760405162461bcd60e51b81526004016102699190610ffb565b506000838581610dd757fe5b0495945050505050565b80356001600160a01b0381168114610b1657600080fd5b600060208284031215610e09578081fd5b610b5e8383610de1565b600080600080600060a08688031215610e2a578081fd5b610e348787610de1565b9450610e438760208801610de1565b9350610e528760408801610de1565b925060608601359150610e688760808801610de1565b90509295509295909350565b60008060008060808587031215610e89578384fd5b610e938686610de1565b93506020610ea387828801610de1565b935060408601359250606086013567ffffffffffffffff80821115610ec6578384fd5b818801915088601f830112610ed9578384fd5b813581811115610ee7578485fd5b60405184601f19601f8401168201018181108482111715610f06578687fd5b60405281815283820185018b1015610f1c578586fd5b81858501868301379081019093019390935250939692955090935050565b600060208284031215610f4b578081fd5b81518015158114610b5e578182fd5b600060208284031215610f6b578081fd5b5035919050565b6001600160a01b0391909116815260200190565b6001600160a01b039384168152919092166020820152604081019190915260600190565b6001600160a01b03929092168252602082015260400190565b901515815260200190565b7fffffffff0000000000000000000000000000000000000000000000000000000091909116815260200190565b6000602080835283518082850152825b818110156110275785810183015185820160400152820161100b565b818111156110385783604083870101525b50601f01601f1916929092016040019392505050565b60208082526015908201527f64732d6d6174682d7375622d756e646572666c6f770000000000000000000000604082015260600190565b60208082526026908201527f4f776e61626c653a206e6577206f776e657220697320746865207a65726f206160408201527f6464726573730000000000000000000000000000000000000000000000000000606082015260800190565b60208082526014908201527f64732d6d6174682d6d756c2d6f766572666c6f77000000000000000000000000604082015260600190565b60208082526014908201527f64732d6d6174682d6164642d6f766572666c6f77000000000000000000000000604082015260600190565b6020808252602e908201527f496e697469616c697a61626c653a20636f6e747261637420697320616c72656160408201527f647920696e697469616c697a6564000000000000000000000000000000000000606082015260800190565b6020808252818101527f4f776e61626c653a2063616c6c6572206973206e6f7420746865206f776e6572604082015260600190565b60208082526012908201527f77697468647261773a206e6f7420676f6f640000000000000000000000000000604082015260600190565b60208082526009908201527f6e6f74206f776e65720000000000000000000000000000000000000000000000604082015260600190565b90815260200190565b600060808201868352602086818501528560408501526080606085015281855180845260a0860191508287019350845b818110156112a557845183529383019391830191600101611289565b50909998505050505050505050565b948552602085019390935260408401919091526060830152608082015260a0019056fea26469706673582212200c128b0c3a7ab83cd1a6f8f7629f34f31a141b0b3f86b4e85a2df3adfc91501164736f6c634300060c0033",
  "immutableReferences": {},
  "source": "// SPDX-License-Identifier: Unlicensed\npragma solidity >=0.5.0;\npragma experimental ABIEncoderV2;\n\nimport '../interfaces/IERC20.sol';\nimport \"../open/utils/Initializable.sol\";\nimport \"../open/token/ERC721/IERC721.sol\";\nimport \"../open/token/ERC721/utils/ERC721Holder.sol\";\nimport \"../open/utils/Ownable.sol\";\nimport '../libraries/SafeMath.sol';\nimport \"../nftLib/FishNftFactory.sol\";\nimport \"../nftLib/FishPart.sol\";\n\n\n\ncontract Nmine is ERC721Holder,Initializable,Ownable{\n\n using SafeMath for uint256;\n\n    IERC721 public nft;                     //nft\n    FishNftFactory public factory;\n\n    struct UserInfo {\n        uint256 hashRate;                   //\n        uint256 award;                      //\n        uint256 rewardDebt; \n        uint256 mined;                         //\n        uint256[] ids;                         //\n        mapping(uint => uint) id2Indexs;    //\n    }\n\n    struct PoolInfo {\n        uint256 mined;                         //\n        uint256 cakePerBlock;               //\n        uint256 lastRewardBlock;            //\n        uint256 accCakePerShare;            //\n        uint256 totalHashRate;              //\n    }\n\n    IERC20 public mineToken;                //\n\n    PoolInfo public poolInfo;               //\n    mapping (address => UserInfo) internal userInfo;  //\n\n    event Pledge(address indexed owner,uint256 indexed time,uint256 id);\n    event UnPledge(address indexed owner,uint256 indexed time,uint256 id);\n\n    constructor() public {}\n\n    function initialize(\n        address _mineToken,\n        address _nft,\n        address _nftFactory,\n        uint256 _cakePerBlock,\n        address _ownerAddress\n    ) public initializer {\n         mineToken = IERC20(_mineToken);\n         nft = IERC721(_nft);\n         factory = FishNftFactory(_nftFactory);\n         poolInfo.cakePerBlock = _cakePerBlock;\n        _owner = _ownerAddress;\n    }\n\n     function getMinerInfo()external view returns(\n        uint myPower,\n        uint networkPower,\n        uint mined,\n        uint[] memory ids){\n\n            UserInfo storage miner = userInfo[msg.sender];\n            myPower = miner.hashRate;\n            networkPower = poolInfo.totalHashRate;\n            mined = miner.mined;\n            ids = miner.ids;\n    }\n\n    function pledge(uint tokenId)external returns(bool){\n\n        nft.safeTransferFrom(msg.sender,address(this),tokenId);\n\n        uint time = block.timestamp;\n\n        UserInfo storage miner = userInfo[msg.sender];\n        \n        uint[] storage ids = miner.ids;\n        uint len = ids.length;\n\n        if( len == 0 ){\n            ids.push(0);\n            len += 1;\n        }\n\n        ids.push(tokenId);\n        miner.id2Indexs[tokenId] = len;\n        \n        //FishPart.FishConfig memory config =  factory.getConfig(tokenId);\n\n        deposit(msg.sender,1000);\n\n        emit Pledge(msg.sender,time,tokenId);\n        return true;\n    }\n\n    \n    function unPledge(uint tokenId)external returns(bool){\n\n        UserInfo storage miner = userInfo[msg.sender];\n\n        uint time = block.timestamp;\n\n        uint[] storage ids = miner.ids;\n        uint len = ids.length;\n\n        uint index = miner.id2Indexs[tokenId];\n        require(ids[index] > 0,\"not owner\");\n        ids[index] = ids[len -1];\n        delete miner.ids[len -1];\n        miner.ids.pop();\n\n        if( index != len -1){\n            miner.id2Indexs[ids[index]] = index;\n        }\n        \n        nft.safeTransferFrom(address(this),msg.sender,tokenId);\n\n        //FishPart.FishConfig memory config =  factory.getConfig(tokenId);\n\n        withdraw(msg.sender,1000);\n\n        emit UnPledge(msg.sender,time,tokenId);\n    }\n\n\n    function setCakePerBlock(uint cakePerBlock)external onlyOwner{\n        poolInfo.cakePerBlock = cakePerBlock;\n    }\n\n   \n    function getMultiplier(uint256 _from, uint256 _to) internal pure returns (uint256) {\n        return _to.sub(_from);\n    }\n\n    function pendingCake(address owner) external view returns (uint256) {\n        UserInfo storage user = userInfo[owner];\n\n        uint256 accCakePerShare = poolInfo.accCakePerShare;\n        uint256 lpSupply = poolInfo.totalHashRate;\n\n        if (block.number > poolInfo.lastRewardBlock && lpSupply != 0) {\n\n            uint256 multiplier = getMultiplier(poolInfo.lastRewardBlock, block.number);\n\n            uint256 cakeReward = multiplier.mul(poolInfo.cakePerBlock);\n            accCakePerShare = accCakePerShare.add(cakeReward.mul(1e12).div(lpSupply));\n        }\n        return (user.hashRate.mul(accCakePerShare).div(1e12).sub(user.rewardDebt) + user.award);\n    }\n\n    function updatePool() internal {\n        if (block.number <= poolInfo.lastRewardBlock) {\n            return;\n        }\n        uint256 lpSupply = poolInfo.totalHashRate;\n        if (lpSupply == 0) {\n            poolInfo.lastRewardBlock = block.number;\n            return;\n        }\n        uint256 multiplier = getMultiplier(poolInfo.lastRewardBlock, block.number);\n        uint256 cakeReward = multiplier.mul(poolInfo.cakePerBlock);\n\n        poolInfo.accCakePerShare = poolInfo.accCakePerShare.add(cakeReward.mul(1e12).div(lpSupply));\n        poolInfo.lastRewardBlock = block.number;\n    }\n\n    function deposit(address owner, uint256 _amount) internal {\n\n        UserInfo storage user = userInfo[owner];\n        updatePool();\n\n        if (user.hashRate > 0) {\n            uint256 pending = user.hashRate.mul(poolInfo.accCakePerShare).div(1e12).sub(user.rewardDebt);\n            if(pending > 0) {\n                user.award += pending;\n            }\n        }\n\n        if (_amount > 0) {\n            user.hashRate = user.hashRate.add(_amount);\n            poolInfo.totalHashRate = poolInfo.totalHashRate.add(_amount);\n        }\n        user.rewardDebt = user.hashRate.mul(poolInfo.accCakePerShare).div(1e12);\n    }\n\n    function withdraw(address owner, uint256 _amount) internal {\n\n        UserInfo storage user = userInfo[owner];\n        require(user.hashRate >= _amount, \"withdraw: not good\");\n\n        updatePool();\n\n        uint256 pending = user.hashRate.mul(poolInfo.accCakePerShare).div(1e12).sub(user.rewardDebt);\n        if(pending > 0) {\n            user.award += pending;\n        }\n\n        if(_amount > 0) {\n            user.hashRate = user.hashRate.sub(_amount);\n            poolInfo.totalHashRate = poolInfo.totalHashRate.sub(_amount);\n        }\n\n        user.rewardDebt = user.hashRate.mul(poolInfo.accCakePerShare).div(1e12);\n    }\n\n    function draw(address owner) external {\n\n        UserInfo storage user = userInfo[owner];\n\n        updatePool();\n\n        uint256 pending = user.hashRate.mul(poolInfo.accCakePerShare).div(1e12).sub(user.rewardDebt);\n        if(pending > 0) {\n            user.award += pending;\n        }\n\n        user.rewardDebt = user.hashRate.mul(poolInfo.accCakePerShare).div(1e12);\n\n        uint award = user.award;\n\n        if( award > 0 ){\n            user.award = 0;\n            mineToken.transfer(msg.sender,award);\n        }\n    }\n}",
  "sourcePath": "/Users/jie/Desktop/CC/fist/nft/contracts/nft/Nmine.sol",
  "compiler": {
    "name": "solc",
    "version": "0.6.12+commit.27d51765.Emscripten.clang"
  },
  "schemaVersion": "3.4.4",
  "updatedAt": "2022-01-17T14:17:24.311Z",
  "devdoc": {
    "kind": "dev",
    "methods": {
      "onERC721Received(address,address,uint256,bytes)": {
        "details": "See {IERC721Receiver-onERC721Received}. Always returns `IERC721Receiver.onERC721Received.selector`."
      },
      "owner()": {
        "details": "Returns the address of the current owner."
      },
      "renounceOwnership()": {
        "details": "Leaves the contract without owner. It will not be possible to call `onlyOwner` functions anymore. Can only be called by the current owner. NOTE: Renouncing ownership will leave the contract without an owner, thereby removing any functionality that is only available to the owner."
      },
      "transferOwnership(address)": {
        "details": "Transfers ownership of the contract to a new account (`newOwner`). Can only be called by the current owner."
      }
    },
    "version": 1
  },
  "userdoc": {
    "kind": "user",
    "methods": {},
    "version": 1
  }
}