{
  "contractName": "Nsell",
  "abi": [
    {
      "inputs": [],
      "stateMutability": "nonpayable",
      "type": "constructor"
    },
    {
      "anonymous": false,
      "inputs": [
        {
          "indexed": true,
          "internalType": "address",
          "name": "previousOwner",
          "type": "address"
        },
        {
          "indexed": true,
          "internalType": "address",
          "name": "newOwner",
          "type": "address"
        }
      ],
      "name": "OwnershipTransferred",
      "type": "event"
    },
    {
      "inputs": [
        {
          "internalType": "uint256",
          "name": "",
          "type": "uint256"
        }
      ],
      "name": "acutionOrderMap",
      "outputs": [
        {
          "internalType": "uint256",
          "name": "id",
          "type": "uint256"
        },
        {
          "internalType": "uint256",
          "name": "tokenId",
          "type": "uint256"
        },
        {
          "internalType": "uint256",
          "name": "startTime",
          "type": "uint256"
        },
        {
          "internalType": "uint256",
          "name": "durationTime",
          "type": "uint256"
        },
        {
          "internalType": "uint256",
          "name": "startPrice",
          "type": "uint256"
        },
        {
          "internalType": "uint8",
          "name": "status",
          "type": "uint8"
        },
        {
          "internalType": "address",
          "name": "seller",
          "type": "address"
        },
        {
          "internalType": "uint256",
          "name": "award",
          "type": "uint256"
        }
      ],
      "stateMutability": "view",
      "type": "function"
    },
    {
      "inputs": [],
      "name": "nToken",
      "outputs": [
        {
          "internalType": "contract IERC721",
          "name": "",
          "type": "address"
        }
      ],
      "stateMutability": "view",
      "type": "function"
    },
    {
      "inputs": [
        {
          "internalType": "address",
          "name": "",
          "type": "address"
        },
        {
          "internalType": "address",
          "name": "",
          "type": "address"
        },
        {
          "internalType": "uint256",
          "name": "",
          "type": "uint256"
        },
        {
          "internalType": "bytes",
          "name": "",
          "type": "bytes"
        }
      ],
      "name": "onERC721Received",
      "outputs": [
        {
          "internalType": "bytes4",
          "name": "",
          "type": "bytes4"
        }
      ],
      "stateMutability": "nonpayable",
      "type": "function"
    },
    {
      "inputs": [],
      "name": "owner",
      "outputs": [
        {
          "internalType": "address",
          "name": "",
          "type": "address"
        }
      ],
      "stateMutability": "view",
      "type": "function"
    },
    {
      "inputs": [],
      "name": "payToken",
      "outputs": [
        {
          "internalType": "contract IERC20",
          "name": "",
          "type": "address"
        }
      ],
      "stateMutability": "view",
      "type": "function"
    },
    {
      "inputs": [],
      "name": "renounceOwnership",
      "outputs": [],
      "stateMutability": "nonpayable",
      "type": "function"
    },
    {
      "inputs": [
        {
          "internalType": "address",
          "name": "newOwner",
          "type": "address"
        }
      ],
      "name": "transferOwnership",
      "outputs": [],
      "stateMutability": "nonpayable",
      "type": "function"
    },
    {
      "inputs": [
        {
          "internalType": "address",
          "name": "_nToken",
          "type": "address"
        },
        {
          "internalType": "address",
          "name": "_payToken",
          "type": "address"
        },
        {
          "internalType": "address",
          "name": "_feeAddress",
          "type": "address"
        },
        {
          "internalType": "address",
          "name": "_ownerAddress",
          "type": "address"
        }
      ],
      "name": "initialize",
      "outputs": [],
      "stateMutability": "nonpayable",
      "type": "function"
    },
    {
      "inputs": [
        {
          "internalType": "uint256",
          "name": "start",
          "type": "uint256"
        },
        {
          "internalType": "uint256",
          "name": "end",
          "type": "uint256"
        }
      ],
      "name": "getSales",
      "outputs": [
        {
          "components": [
            {
              "internalType": "uint256",
              "name": "id",
              "type": "uint256"
            },
            {
              "internalType": "uint256",
              "name": "tokenId",
              "type": "uint256"
            },
            {
              "internalType": "uint256",
              "name": "startTime",
              "type": "uint256"
            },
            {
              "internalType": "uint256",
              "name": "durationTime",
              "type": "uint256"
            },
            {
              "internalType": "uint256",
              "name": "startPrice",
              "type": "uint256"
            },
            {
              "internalType": "uint8",
              "name": "status",
              "type": "uint8"
            },
            {
              "internalType": "address",
              "name": "seller",
              "type": "address"
            },
            {
              "internalType": "uint256",
              "name": "award",
              "type": "uint256"
            }
          ],
          "internalType": "struct Nsell.SalesObject[]",
          "name": "_orders",
          "type": "tuple[]"
        },
        {
          "internalType": "uint256",
          "name": "count",
          "type": "uint256"
        }
      ],
      "stateMutability": "view",
      "type": "function"
    },
    {
      "inputs": [],
      "name": "getUserSales",
      "outputs": [
        {
          "components": [
            {
              "internalType": "uint256",
              "name": "id",
              "type": "uint256"
            },
            {
              "internalType": "uint256",
              "name": "tokenId",
              "type": "uint256"
            },
            {
              "internalType": "uint256",
              "name": "startTime",
              "type": "uint256"
            },
            {
              "internalType": "uint256",
              "name": "durationTime",
              "type": "uint256"
            },
            {
              "internalType": "uint256",
              "name": "startPrice",
              "type": "uint256"
            },
            {
              "internalType": "uint8",
              "name": "status",
              "type": "uint8"
            },
            {
              "internalType": "address",
              "name": "seller",
              "type": "address"
            },
            {
              "internalType": "uint256",
              "name": "award",
              "type": "uint256"
            }
          ],
          "internalType": "struct Nsell.SalesObject[]",
          "name": "_order",
          "type": "tuple[]"
        }
      ],
      "stateMutability": "view",
      "type": "function"
    },
    {
      "inputs": [
        {
          "internalType": "uint256",
          "name": "orderId",
          "type": "uint256"
        }
      ],
      "name": "getEaises",
      "outputs": [
        {
          "components": [
            {
              "internalType": "uint256",
              "name": "price",
              "type": "uint256"
            },
            {
              "internalType": "uint256",
              "name": "fee",
              "type": "uint256"
            },
            {
              "internalType": "address",
              "name": "bidder",
              "type": "address"
            },
            {
              "internalType": "uint256",
              "name": "timestamp",
              "type": "uint256"
            }
          ],
          "internalType": "struct Nsell.Eaise[]",
          "name": "",
          "type": "tuple[]"
        }
      ],
      "stateMutability": "view",
      "type": "function"
    },
    {
      "inputs": [
        {
          "internalType": "uint256",
          "name": "tokenId",
          "type": "uint256"
        },
        {
          "internalType": "uint256",
          "name": "startPrice",
          "type": "uint256"
        },
        {
          "internalType": "uint256",
          "name": "startTime",
          "type": "uint256"
        },
        {
          "internalType": "uint256",
          "name": "durationTime",
          "type": "uint256"
        }
      ],
      "name": "sell",
      "outputs": [],
      "stateMutability": "nonpayable",
      "type": "function"
    },
    {
      "inputs": [
        {
          "internalType": "uint256",
          "name": "orderId",
          "type": "uint256"
        }
      ],
      "name": "eaise",
      "outputs": [],
      "stateMutability": "nonpayable",
      "type": "function"
    },
    {
      "inputs": [
        {
          "internalType": "uint256",
          "name": "orderId",
          "type": "uint256"
        }
      ],
      "name": "finishOrder",
      "outputs": [],
      "stateMutability": "nonpayable",
      "type": "function"
    }
  ],
  "bytecode": "0x6080604052611c20600355600a6006556014600855600360095534801561002557600080fd5b5061003661003161003b565b61003f565b61009a565b3390565b600080546001600160a01b038381166201000081810262010000600160b01b0319851617855560405193049190911692909183917f8be0079c531659141344cd1fd0a4f28419497f9722a3daafe3b4186f6b6457e091a35050565b611a8e806100a96000396000f3fe608060405234801561001057600080fd5b50600436106100ea5760003560e01c80638da5cb5b1161008c578063c96f248511610066578063c96f2485146101ca578063f012be38146101ea578063f2fde38b146101fd578063f8c8765e14610210576100ea565b80638da5cb5b1461019357806396336b301461019b578063a064d17a146101a3576100ea565b806346218cd1116100c857806346218cd11461014e578063639a356c14610161578063715018a61461017657806374baa6551461017e576100ea565b8063150b7a02146100ef5780631a927779146101185780633620875e14610139575b600080fd5b6101026100fd3660046113ff565b610223565b60405161010f919061170b565b60405180910390f35b61012b61012636600461151b565b61024c565b60405161010f9291906116e9565b61014c61014736600461153c565b61039f565b005b61014c61015c366004611503565b6105d3565b610169610990565b60405161010f91906116d6565b61014c610abf565b610186610b0a565b60405161010f9190611618565b610186610b19565b610186610b2e565b6101b66101b1366004611503565b610b3d565b60405161010f989796959493929190611a16565b6101dd6101d8366004611503565b610b8e565b60405161010f9190611669565b61014c6101f8366004611503565b610c2b565b61014c61020b366004611386565b610f66565b61014c61021e3660046113a8565b610fd7565b7f150b7a0200000000000000000000000000000000000000000000000000000000949350505050565b600b5460609080831115610261576001810392505b838310610398576001848403018067ffffffffffffffff8111801561028557600080fd5b506040519080825280602002602001820160405280156102bf57816020015b6102ac611318565b8152602001906001900390816102a45790505b5092508460005b8582111580156102d557508281105b1561039457600a6000600b84815481106102eb57fe5b6000918252602080832091909101548352828101939093526040918201902081516101008082018452825482526001830154948201949094526002820154928101929092526003810154606083015260048101546080830152600581015460ff811660a0840152929092046001600160a01b031660c082015260069091015460e0820152855186908390811061037d57fe5b6020908102919091010152600191820191016102c6565b5050505b9250929050565b42818301116103c95760405162461bcd60e51b81526004016103c09061176f565b60405180910390fd5b6003548110156103eb5760405162461bcd60e51b81526004016103c0906118cc565b6000831161040b5760405162461bcd60e51b81526004016103c090611803565b600154604051632142170760e11b81526001600160a01b03909116906342842e0e9061043f9033903090899060040161162c565b600060405180830381600087803b15801561045957600080fd5b505af115801561046d573d6000803e3d6000fd5b5050336000908152600d6020526040902080549092506005101590506104a55760405162461bcd60e51b81526004016103c090611738565b6005805460408051610100808201835283825260208083019a8b528284019889526060830197885260808301998a52600060a084018181523360c0860190815260e08601838152888452600a8552878420965187559d516001808801919091559b516002870155995160038601559a5160048501559951838701805499516001600160a01b03169093027fffffffffffffffffffffff0000000000000000000000000000000000000000ff60ff90921660ff19909a1699909917169790971790559751600690980197909755600b80548087019091557f0175b7a638427703f0dbe7bb9bbf987a2551717b34e79f33b5b1008d1fa01db98101829055600c8552878720558254808601845592865283862083018190558552600e909252939092209290925580549091019055565b6000818152600a60205260409020600581015460ff16156106065760405162461bcd60e51b81526004016103c090611903565b4281600301548260020154011161062f5760405162461bcd60e51b81526004016103c090611971565b600581015461010090046001600160a01b03163314156106615760405162461bcd60e51b81526004016103c09061193a565b8054600090815260076020526040812080546004840154919290919082156106c257600084600185038154811061069457fe5b906000526020600020906004020190506064600654826000015402816106b657fe5b91549104908101925090505b6002546040517f23b872dd0000000000000000000000000000000000000000000000000000000081526001600160a01b03909116906323b872dd9061070f9033903090879060040161162c565b602060405180830381600087803b15801561072957600080fd5b505af115801561073d573d6000803e3d6000fd5b505050506040513d601f19601f8201168201806040525081019061076191906114e3565b5080156108d65760068501805460646050808502829004928301909355865460148581028390049490850283900492908502049060009089906000198a019081106107a857fe5b600091825260209091206002546004805460405163a9059cbb60e01b815294820290930194506001600160a01b039182169363a9059cbb936107ee931691889101611650565b602060405180830381600087803b15801561080857600080fd5b505af115801561081c573d6000803e3d6000fd5b505050506040513d601f19601f8201168201806040525081019061084091906114e3565b506002805490820154825460405163a9059cbb60e01b81526001600160a01b039384169363a9059cbb9361087d9391169190870190600401611650565b602060405180830381600087803b15801561089757600080fd5b505af11580156108ab573d6000803e3d6000fd5b505050506040513d601f19601f820116820180604052508101906108cf91906114e3565b5050505050505b604080516080810182528381526020808201848152339383019384524260608401818152895460018082018c5560008c815295909520955160049091029095019485559151928401929092559251600280840180547fffffffffffffffffffffffff0000000000000000000000000000000000000000166001600160a01b0390931692909217909155925160039283015590870154918701546102589201031015610988576003850180546102580190555b505050505050565b336000908152600d602052604090208054606091908067ffffffffffffffff811180156109bc57600080fd5b506040519080825280602002602001820160405280156109f657816020015b6109e3611318565b8152602001906001900390816109db5790505b50925060005b81811015610ab957600a6000848381548110610a1457fe5b6000918252602080832091909101548352828101939093526040918201902081516101008082018452825482526001830154948201949094526002820154928101929092526003810154606083015260048101546080830152600581015460ff811660a0840152929092046001600160a01b031660c082015260069091015460e08201528451859083908110610aa657fe5b60209081029190910101526001016109fc565b50505090565b610ac76110f3565b6001600160a01b0316610ad8610b19565b6001600160a01b031614610afe5760405162461bcd60e51b81526004016103c090611897565b610b0860006110f7565b565b6001546001600160a01b031681565b6000546201000090046001600160a01b031690565b6002546001600160a01b031681565b600a6020526000908152604090208054600182015460028301546003840154600485015460058601546006909601549495939492939192909160ff8116916101009091046001600160a01b03169088565b606060076000838152602001908152602001600020805480602002602001604051908101604052809291908181526020016000905b82821015610c205760008481526020908190206040805160808101825260048602909201805483526001808201548486015260028201546001600160a01b0316928401929092526003015460608301529083529092019101610bc3565b505050509050919050565b6000818152600a60205260409020600581015460ff1615610c5e5760405162461bcd60e51b81526004016103c090611903565b600581015461010090046001600160a01b03163314610c8f5760405162461bcd60e51b81526004016103c0906119df565b60058101805460ff191660011790556003810154600282015442910110610cc85760405162461bcd60e51b81526004016103c0906119a8565b8054600090815260076020526040902080548015610eca57600084815260076020526040812080546000198401908110610cfe57fe5b6000918252602090912060018054600260049485029093019283015491880154604051632142170760e11b81529395506001600160a01b03918216946342842e0e94610d4f9430941692910161162c565b600060405180830381600087803b158015610d6957600080fd5b505af1158015610d7d573d6000803e3d6000fd5b5050505060008460060154905060006064600954830281610d9a57fe5b6002546004805460405163a9059cbb60e01b81529490930494506001600160a01b039182169363a9059cbb93610dd4931691869101611650565b602060405180830381600087803b158015610dee57600080fd5b505af1158015610e02573d6000803e3d6000fd5b505050506040513d601f19601f82011682018060405250810190610e2691906114e3565b50600480870154600254600589015460405163a9059cbb60e01b8152858703909301936001600160a01b039283169363a9059cbb93610e6e9361010090041691869101611650565b602060405180830381600087803b158015610e8857600080fd5b505af1158015610e9c573d6000803e3d6000fd5b505050506040513d601f19601f82011682018060405250810190610ec091906114e3565b5050505050610f41565b60018054600585015491850154604051632142170760e11b81526001600160a01b03928316936342842e0e93610f0e9330936101009093049091169160040161162c565b600060405180830381600087803b158015610f2857600080fd5b505af1158015610f3c573d6000803e3d6000fd5b505050505b82546005840154610f60919061010090046001600160a01b0316611168565b50505050565b610f6e6110f3565b6001600160a01b0316610f7f610b19565b6001600160a01b031614610fa55760405162461bcd60e51b81526004016103c090611897565b6001600160a01b038116610fcb5760405162461bcd60e51b81526004016103c0906117a6565b610fd4816110f7565b50565b600054610100900460ff1680610ff0575060005460ff16155b61100c5760405162461bcd60e51b81526004016103c09061183a565b600054610100900460ff16158015611037576000805460ff1961ff0019909116610100171660011790555b600180547fffffffffffffffffffffffff00000000000000000000000000000000000000009081166001600160a01b0388811691909117909255600280548216878416179055600080547fffffffffffffffffffff0000000000000000000000000000000000000000ffff166201000086851602179055601460085560036009819055600a600655612710600555611c2090556004805490911691851691909117905580156110ec576000805461ff00191690555b5050505050565b3390565b600080546001600160a01b03838116620100008181027fffffffffffffffffffff0000000000000000000000000000000000000000ffff851617855560405193049190911692909183917f8be0079c531659141344cd1fd0a4f28419497f9722a3daafe3b4186f6b6457e091a35050565b600b80546000848152600c60205260409020549091600019830183811061118b57fe5b9060005260206000200154600b82815481106111a357fe5b9060005260206000200181905550600b60018303815481106111c157fe5b6000918252602082200155600b8054806111d757fe5b6001900381819060005260206000200160009055905560018203811461120f576000818152600c602052604080822054825290208190555b6001600160a01b0383166000908152600d602090815260408083208054888552600e90935292205482600019830183811061124657fe5b906000526020600020015483828154811061125d57fe5b60009182526020808320909101929092556001600160a01b0388168152600d909152604090208054600019840190811061129357fe5b600091825260208083209091018290556001600160a01b0388168252600d9052604090208054806112c057fe5b6001900381819060005260206000200160009055905560018203811461130f5780600e60008584815481106112f157fe5b90600052602060002001548152602001908152602001600020819055505b50505050505050565b6040518061010001604052806000815260200160008152602001600081526020016000815260200160008152602001600060ff16815260200160006001600160a01b03168152602001600081525090565b80356001600160a01b038116811461138057600080fd5b92915050565b600060208284031215611397578081fd5b6113a18383611369565b9392505050565b600080600080608085870312156113bd578283fd5b6113c78686611369565b93506113d68660208701611369565b92506113e58660408701611369565b91506113f48660608701611369565b905092959194509250565b60008060008060808587031215611414578384fd5b61141e8686611369565b9350602061142e87828801611369565b935060408601359250606086013567ffffffffffffffff80821115611451578384fd5b818801915088601f830112611464578384fd5b813581811115611472578485fd5b604051847fffffffffffffffffffffffffffffffffffffffffffffffffffffffffffffffe0601f84011682010181811084821117156114af578687fd5b60405281815283820185018b10156114c5578586fd5b81858501868301379081019093019390935250939692955090935050565b6000602082840312156114f4578081fd5b815180151581146113a1578182fd5b600060208284031215611514578081fd5b5035919050565b6000806040838503121561152d578182fd5b50508035926020909101359150565b60008060008060808587031215611551578384fd5b5050823594602084013594506040840135936060013592509050565b6001600160a01b03169052565b6000815180845260208085019450808401835b8381101561160657815180518852838101518489015260408082015190890152606080820151908901526080808201519089015260a0808201516115d3828b0182611611565b505060c0808201516115e7828b018261156d565b505060e09081015190880152610100909601959082019060010161158d565b509495945050505050565b60ff169052565b6001600160a01b0391909116815260200190565b6001600160a01b039384168152919092166020820152604081019190915260600190565b6001600160a01b03929092168252602082015260400190565b602080825282518282018190526000919060409081850190868401855b828110156116c9578151805185528681015187860152858101516001600160a01b0316868601526060908101519085015260809093019290850190600101611686565b5091979650505050505050565b6000602082526113a1602083018461157a565b6000604082526116fc604083018561157a565b90508260208301529392505050565b7fffffffff0000000000000000000000000000000000000000000000000000000091909116815260200190565b6020808252600e908201527f746f6f206d616e79206f72646572000000000000000000000000000000000000604082015260600190565b60208082526012908201527f696e76616c69642073746172742074696d650000000000000000000000000000604082015260600190565b60208082526026908201527f4f776e61626c653a206e6577206f776e657220697320746865207a65726f206160408201527f6464726573730000000000000000000000000000000000000000000000000000606082015260800190565b6020808252600d908201527f696e76616c696420707269636500000000000000000000000000000000000000604082015260600190565b6020808252602e908201527f496e697469616c697a61626c653a20636f6e747261637420697320616c72656160408201527f647920696e697469616c697a6564000000000000000000000000000000000000606082015260800190565b6020808252818101527f4f776e61626c653a2063616c6c6572206973206e6f7420746865206f776e6572604082015260600190565b60208082526010908201527f696e76616c6964206475726174696f6e00000000000000000000000000000000604082015260600190565b6020808252600a908201527f6261642073746174757300000000000000000000000000000000000000000000604082015260600190565b60208082526007908201527f6f6e6573656c6600000000000000000000000000000000000000000000000000604082015260600190565b60208082526003908201527f656e640000000000000000000000000000000000000000000000000000000000604082015260600190565b60208082526007908201527f6e6f7420656e6400000000000000000000000000000000000000000000000000604082015260600190565b60208082526009908201527f6e6f74206f776e65720000000000000000000000000000000000000000000000604082015260600190565b978852602088019690965260408701949094526060860192909252608085015260ff1660a08401526001600160a01b031660c083015260e0820152610100019056fea26469706673582212206f87a9e370129d4292695391159088f5cf143c35eea41b42e3f4d1b77f6f2f8b64736f6c634300060c0033",
  "immutableReferences": {},
  "source": "// SPDX-License-Identifier: Unlicensed\npragma solidity >=0.5.0;\npragma experimental ABIEncoderV2;\n\nimport '../interfaces/IERC20.sol';\nimport \"../open/utils/Initializable.sol\";\nimport \"../open/token/ERC721/IERC721.sol\";\nimport \"../open/token/ERC721/utils/ERC721Holder.sol\";\nimport \"../open/utils/Ownable.sol\";\n\n\ncontract Nsell is ERC721Holder,Initializable,Ownable{\n\n    IERC721 public nToken;\n    IERC20 public payToken;\n\n    uint256 internal _minDurationTime = 2 * 60 * 60;\n\n    address internal feeAddress;      //\n\n    uint internal ORDER_ID;\n\n    struct Eaise{\n        uint256 price;      //\n        uint256 fee;        //\n        address bidder;     //\n        uint256 timestamp;  //\n    }\n\n    struct SalesObject {\n        uint256 id;             //ID\n        uint256 tokenId;        //\n        uint256 startTime;      //\n        uint256 durationTime;   //\n        uint256 startPrice;     //\n        uint8 status;           //\n        address seller;         //\n        uint256 award;          //\n    }\n\n    uint internal eaiseRange = 10;    //\n\n    mapping( uint256 => Eaise[]) eaises;    //\n\n    uint256 internal bidderFeeRate = 20;     //\n    uint256 internal sellerFeeRate = 3;      //\n\n    mapping( uint => SalesObject) public acutionOrderMap;  //\n\n    uint[] acutionIds;      //\n\n    //id => index\n    mapping( uint => uint) internal acutionId2Indexs;\n\n    mapping(address => uint[]) userAcutionIds;  //\n\n    //id = > index\n    mapping( uint => uint) internal userAcutionId2Indexs;\n\n    constructor() public {}\n\n    function initialize(\n        address _nToken,\n        address _payToken,\n        address _feeAddress,\n        address _ownerAddress\n    ) public initializer {\n        nToken = IERC721(_nToken);\n        payToken = IERC20(_payToken);\n        _owner = _ownerAddress;\n        bidderFeeRate = 20;\n        sellerFeeRate = 3;\n        eaiseRange = 10;\n        ORDER_ID = 10000;\n        _minDurationTime = 2 * 60 * 60;\n        feeAddress = _feeAddress;\n    }\n\n\n    //\n    function getSales(\n            uint start,\n            uint end) external view returns(\n                SalesObject[] memory _orders,\n                uint count) {\n        \n        count = acutionIds.length;\n\n        if( end > count ) end = count - 1;\n\n        if( end >= start ){\n            uint size = end - start + 1;\n\n            _orders = new SalesObject[](size);\n\n            for( (uint i,uint k) = (start,0); i <= end && k < size; (i++,k ++) ){\n\n                _orders[k] = acutionOrderMap[acutionIds[i]];\n            }\n        }\n    }\n\n    //\n    function getUserSales() external view returns(SalesObject[] memory _order) {\n        \n        uint[] storage ids  = userAcutionIds[msg.sender];\n\n        uint len = ids.length;\n\n        _order = new SalesObject[](len);\n\n        for( uint i = 0; i < len; i++ ){\n            _order[i] = acutionOrderMap[ids[i]];\n        }\n    }\n\n    //\n    function getEaises(uint orderId)external view returns(Eaise[] memory){\n        return eaises[orderId];\n    }\n    \n    //\n    function sell(\n            uint256 tokenId,        //\n            uint256 startPrice,     //\n            uint256 startTime,      //\n            uint256 durationTime    //\n            )external {\n        \n        require(startTime + durationTime > block.timestamp, \"invalid start time\");\n        require(durationTime >= _minDurationTime, \"invalid duration\");\n        require(startPrice > 0, \"invalid price\");\n\n        nToken.safeTransferFrom(msg.sender,address(this),tokenId);\n\n        uint[] storage myIds = userAcutionIds[msg.sender];\n\n        require(myIds.length <= 5,\"too many order\");\n\n        uint id =  ORDER_ID;\n        \n        acutionOrderMap[id] =  SalesObject(\n            id,\n            tokenId,\n            startTime,\n            durationTime,\n            startPrice,\n            0,\n            msg.sender,\n            0\n        );\n\n        //\n        uint len = acutionIds.length;\n        acutionIds.push(id);\n        acutionId2Indexs[id] = len;\n\n        //\n        len = myIds.length;\n        myIds.push(id);\n        userAcutionId2Indexs[id] = len;\n\n        ORDER_ID ++;\n    }\n\n    //\n    function eaise(uint orderId)external  {\n\n        SalesObject storage obj = acutionOrderMap[orderId];\n        require(obj.status == 0, \"bad status\");\n        //\n        //\n        require(obj.startTime + obj.durationTime > block.timestamp, \"end\");\n\n        require(obj.seller != msg.sender,\"oneself\");\n\n\n        Eaise[] storage eaiseArr = eaises[obj.id];\n\n        uint len = eaiseArr.length;\n\n        uint256 price = obj.startPrice;\n        uint256 eaisePrice = 0;\n\n        if( len > 0 ){\n            Eaise storage e = eaiseArr[len - 1];\n            eaisePrice = e.price * eaiseRange / 100;\n            price = e.price + eaisePrice;\n        }\n\n        payToken.transferFrom(msg.sender, address(this), price);\n\n        if( eaisePrice > 0 ){\n            //\n            uint bidderAmount = eaisePrice * 20 / 100;\n            //\n            uint publisherAmount = eaisePrice * 80 / 100;\n\n            //\n            uint fee = bidderAmount * 20 / 100;\n            //\n            uint bidderAward = bidderAmount * 80 / 100;\n\n            obj.award += publisherAmount;\n\n            Eaise storage bidder = eaiseArr[len - 1];\n\n            //\n            payToken.transfer(feeAddress, fee);\n            //  \n            payToken.transfer(bidder.bidder, bidder.price + bidderAward);\n        }\n\n        eaiseArr.push( Eaise(price,eaisePrice,msg.sender,block.timestamp));\n\n        if( obj.startTime + obj.durationTime - block.timestamp < 600 ){\n            obj.durationTime += 600;\n        }\n    }\n\n\n    //\n    function finishOrder(uint orderId)external{\n\n        SalesObject storage obj = acutionOrderMap[orderId];\n\n        require(obj.status == 0, \"bad status\");\n\n        require(obj.seller == msg.sender,\"not owner\");\n\n        obj.status = 1;\n\n        require(obj.startTime + obj.durationTime < block.timestamp, \"not end\");\n\n        Eaise[] storage eaiseArr = eaises[obj.id];\n\n        uint len = eaiseArr.length;\n\n        if( len > 0 ){\n\n            Eaise storage e = eaises[orderId][len - 1];\n\n            nToken.safeTransferFrom(address(this),e.bidder,obj.tokenId);\n\n            uint award = obj.award;\n            uint fee = award * sellerFeeRate / 100;\n            payToken.transfer( feeAddress, fee);\n\n            uint amount = ( award - fee )+ obj.startPrice;\n            \n            payToken.transfer( obj.seller, amount);\n\n        }else{\n            nToken.safeTransferFrom(address(this),obj.seller,obj.tokenId);\n        }\n        _updateAcutionOrder(obj.id,obj.seller);\n    }\n\n    function _updateAcutionOrder(uint orderId,address owner)internal{\n\n        uint len1 = acutionIds.length;\n        uint index1 = acutionId2Indexs[orderId];\n\n        acutionIds[index1] = acutionIds[len1-1];\n        delete acutionIds[len1 - 1];\n        acutionIds.pop();\n\n        if( index1 != len1 - 1 ){\n            acutionId2Indexs[acutionId2Indexs[index1]] = index1;\n        }\n\n        uint[] storage ids = userAcutionIds[owner];\n\n        uint len2 = ids.length;\n\n        uint index2 = userAcutionId2Indexs[orderId];\n\n        ids[index2] = ids[len2 - 1];\n        delete userAcutionIds[owner][len2 - 1];\n        userAcutionIds[owner].pop();\n\n        if( index2 != len2 - 1){\n            userAcutionId2Indexs[ids[index2]] = index2;\n        }\n    }\n}",
  "sourcePath": "/Users/jie/Desktop/CC/fist/nft/contracts/nft/Nsell.sol",
  "compiler": {
    "name": "solc",
    "version": "0.6.12+commit.27d51765.Emscripten.clang"
  },
  "schemaVersion": "3.4.4",
  "updatedAt": "2022-01-17T14:17:24.326Z",
  "devdoc": {
    "kind": "dev",
    "methods": {
      "onERC721Received(address,address,uint256,bytes)": {
        "details": "See {IERC721Receiver-onERC721Received}. Always returns `IERC721Receiver.onERC721Received.selector`."
      },
      "owner()": {
        "details": "Returns the address of the current owner."
      },
      "renounceOwnership()": {
        "details": "Leaves the contract without owner. It will not be possible to call `onlyOwner` functions anymore. Can only be called by the current owner. NOTE: Renouncing ownership will leave the contract without an owner, thereby removing any functionality that is only available to the owner."
      },
      "transferOwnership(address)": {
        "details": "Transfers ownership of the contract to a new account (`newOwner`). Can only be called by the current owner."
      }
    },
    "version": 1
  },
  "userdoc": {
    "kind": "user",
    "methods": {},
    "version": 1
  }
}