{
  "contractName": "Relation",
  "abi": [
    {
      "inputs": [],
      "stateMutability": "nonpayable",
      "type": "constructor"
    },
    {
      "anonymous": false,
      "inputs": [
        {
          "indexed": true,
          "internalType": "address",
          "name": "previousOwner",
          "type": "address"
        },
        {
          "indexed": true,
          "internalType": "address",
          "name": "newOwner",
          "type": "address"
        }
      ],
      "name": "OwnershipTransferred",
      "type": "event"
    },
    {
      "inputs": [
        {
          "internalType": "address",
          "name": "",
          "type": "address"
        }
      ],
      "name": "_recommerMapping",
      "outputs": [
        {
          "internalType": "address",
          "name": "",
          "type": "address"
        }
      ],
      "stateMutability": "view",
      "type": "function",
      "constant": true
    },
    {
      "inputs": [],
      "name": "owner",
      "outputs": [
        {
          "internalType": "address",
          "name": "",
          "type": "address"
        }
      ],
      "stateMutability": "view",
      "type": "function",
      "constant": true
    },
    {
      "inputs": [],
      "name": "renounceOwnership",
      "outputs": [],
      "stateMutability": "nonpayable",
      "type": "function"
    },
    {
      "inputs": [],
      "name": "rootAddress",
      "outputs": [
        {
          "internalType": "address",
          "name": "",
          "type": "address"
        }
      ],
      "stateMutability": "view",
      "type": "function",
      "constant": true
    },
    {
      "inputs": [],
      "name": "totalAddresses",
      "outputs": [
        {
          "internalType": "uint256",
          "name": "",
          "type": "uint256"
        }
      ],
      "stateMutability": "view",
      "type": "function",
      "constant": true
    },
    {
      "inputs": [
        {
          "internalType": "address",
          "name": "newOwner",
          "type": "address"
        }
      ],
      "name": "transferOwnership",
      "outputs": [],
      "stateMutability": "nonpayable",
      "type": "function"
    },
    {
      "inputs": [
        {
          "internalType": "address",
          "name": "",
          "type": "address"
        }
      ],
      "name": "users",
      "outputs": [
        {
          "internalType": "uint256",
          "name": "firstNum",
          "type": "uint256"
        },
        {
          "internalType": "uint256",
          "name": "teamNum",
          "type": "uint256"
        }
      ],
      "stateMutability": "view",
      "type": "function",
      "constant": true
    },
    {
      "inputs": [
        {
          "internalType": "address",
          "name": "owner",
          "type": "address"
        }
      ],
      "name": "initialize",
      "outputs": [],
      "stateMutability": "nonpayable",
      "type": "function"
    },
    {
      "inputs": [
        {
          "internalType": "address",
          "name": "recommer",
          "type": "address"
        }
      ],
      "name": "addRelationEx",
      "outputs": [
        {
          "internalType": "bool",
          "name": "",
          "type": "bool"
        }
      ],
      "stateMutability": "nonpayable",
      "type": "function"
    },
    {
      "inputs": [
        {
          "internalType": "address",
          "name": "owner",
          "type": "address"
        },
        {
          "internalType": "uint256",
          "name": "num",
          "type": "uint256"
        }
      ],
      "name": "getForefathers",
      "outputs": [
        {
          "internalType": "address[]",
          "name": "fathers",
          "type": "address[]"
        },
        {
          "internalType": "uint256[]",
          "name": "childs",
          "type": "uint256[]"
        }
      ],
      "stateMutability": "view",
      "type": "function",
      "constant": true
    },
    {
      "inputs": [
        {
          "internalType": "uint256",
          "name": "start",
          "type": "uint256"
        },
        {
          "internalType": "uint256",
          "name": "end",
          "type": "uint256"
        }
      ],
      "name": "getChilds",
      "outputs": [
        {
          "internalType": "address[]",
          "name": "_childs",
          "type": "address[]"
        }
      ],
      "stateMutability": "view",
      "type": "function",
      "constant": true
    }
  ],
  "bytecode": "0x608060405234801561001057600080fd5b5061002161001c610026565b61002a565b610085565b3390565b600080546001600160a01b038381166201000081810262010000600160b01b0319851617855560405193049190911692909183917f8be0079c531659141344cd1fd0a4f28419497f9722a3daafe3b4186f6b6457e091a35050565b610b6d806100946000396000f3fe608060405234801561001057600080fd5b50600436106100c95760003560e01c80639221302a11610081578063c4d66de81161005b578063c4d66de8146102db578063cfad527714610301578063f2fde38b1461031b576100c9565b80639221302a1461026e578063a87430ba14610294578063aaa2b8c8146102d3576100c9565b80637068dabe116100b25780637068dabe146101cd578063715018a6146102405780638da5cb5b1461024a576100c9565b80631d1af842146100ce5780636c233cfe14610193575b600080fd5b6100fa600480360360408110156100e457600080fd5b506001600160a01b038135169060200135610341565b604051808060200180602001838103835285818151815260200191508051906020019060200280838360005b8381101561013e578181015183820152602001610126565b50505050905001838103825284818151815260200191508051906020019060200280838360005b8381101561017d578181015183820152602001610165565b5050505090500194505050505060405180910390f35b6101b9600480360360208110156101a957600080fd5b50356001600160a01b031661047a565b604080519115158252519081900360200190f35b6101f0600480360360408110156101e357600080fd5b5080359060200135610691565b60408051602080825283518183015283519192839290830191858101910280838360005b8381101561022c578181015183820152602001610214565b505050509050019250505060405180910390f35b610248610790565b005b610252610810565b604080516001600160a01b039092168252519081900360200190f35b6102526004803603602081101561028457600080fd5b50356001600160a01b0316610825565b6102ba600480360360208110156102aa57600080fd5b50356001600160a01b0316610840565b6040805192835260208301919091528051918290030190f35b610252610859565b610248600480360360208110156102f157600080fd5b50356001600160a01b031661085f565b6103096109a3565b60408051918252519081900360200190f35b6102486004803603602081101561033157600080fd5b50356001600160a01b03166109a9565b6060808267ffffffffffffffff8111801561035b57600080fd5b50604051908082528060200260200182016040528015610385578160200160208202803683370190505b5091508267ffffffffffffffff8111801561039f57600080fd5b506040519080825280602002602001820160405280156103c9578160200160208202803683370190505b5090508360005b84811015610471576001600160a01b039182166000908152600260205260409020549091169061dead82148061040d57506001600160a01b038216155b1561041757610471565b8184828151811061042457fe5b6001600160a01b03928316602091820292909201810191909152908316600090815260039091526040902054835184908390811061045e57fe5b60209081029190910101526001016103d0565b50509250929050565b60006001600160a01b0382163314156104da576040805162461bcd60e51b815260206004820152600960248201527f796f75725f73656c660000000000000000000000000000000000000000000000604482015290519081900360640190fd5b336000908152600260205260409020546001600160a01b031615610545576040805162461bcd60e51b815260206004820152600660248201527f62696e6465640000000000000000000000000000000000000000000000000000604482015290519081900360640190fd5b6001600160a01b03821661dead148061057757506001600160a01b038281166000908152600260205260409020541615155b6105c8576040805162461bcd60e51b815260206004820152600a60248201527f705f6e6f745f62696e6400000000000000000000000000000000000000000000604482015290519081900360640190fd5b600180548101815533600081815260026020818152604080842080546001600160a01b03808b167fffffffffffffffffffffffff00000000000000000000000000000000000000009283168117909355828752600385528387208054808b0182559088528588200180549092169097179055845260048252808420805487018155860180549096019095555291909120541661dead8114610688576001600160a01b03811660009081526004602052604090206001908101805490910190555b50600192915050565b336000908152600460205260409020546060908083106106b2576001810392505b838310610789576001848403018067ffffffffffffffff811180156106d657600080fd5b50604051908082528060200260200182016040528015610700578160200160208202803683370190505b5033600090815260036020526040812091945086905b86821115801561072557508381105b156107845782828154811061073657fe5b9060005260206000200160009054906101000a90046001600160a01b031686828151811061076057fe5b6001600160a01b039092166020928302919091019091015260019182019101610716565b505050505b5092915050565b610798610a6e565b6001600160a01b03166107a9610810565b6001600160a01b031614610804576040805162461bcd60e51b815260206004820181905260248201527f4f776e61626c653a2063616c6c6572206973206e6f7420746865206f776e6572604482015290519081900360640190fd5b61080e6000610a72565b565b6000546201000090046001600160a01b031690565b6002602052600090815260409020546001600160a01b031681565b6004602052600090815260409020805460019091015482565b61dead81565b600054610100900460ff1680610878575060005460ff16155b6108b35760405162461bcd60e51b815260040180806020018281038252602e815260200180610b0a602e913960400191505060405180910390fd5b600054610100900460ff161580156108fc57600080547fffffffffffffffffffffffffffffffffffffffffffffffffffffffffffffff0061ff0019909116610100171660011790555b600080546001600160a01b03841662010000027fffffffffffffffffffff0000000000000000000000000000000000000000ffff90911617815561dead905260026020527f6a9609baa168169acaea398c4407efea4be641bb08e21e88806d9836fd9333cc80547fffffffffffffffffffffffff00000000000000000000000000000000000000001663deaddead179055801561099f576000805461ff00191690555b5050565b60015481565b6109b1610a6e565b6001600160a01b03166109c2610810565b6001600160a01b031614610a1d576040805162461bcd60e51b815260206004820181905260248201527f4f776e61626c653a2063616c6c6572206973206e6f7420746865206f776e6572604482015290519081900360640190fd5b6001600160a01b038116610a625760405162461bcd60e51b8152600401808060200182810382526026815260200180610ae46026913960400191505060405180910390fd5b610a6b81610a72565b50565b3390565b600080546001600160a01b03838116620100008181027fffffffffffffffffffff0000000000000000000000000000000000000000ffff851617855560405193049190911692909183917f8be0079c531659141344cd1fd0a4f28419497f9722a3daafe3b4186f6b6457e091a3505056fe4f776e61626c653a206e6577206f776e657220697320746865207a65726f2061646472657373496e697469616c697a61626c653a20636f6e747261637420697320616c726561647920696e697469616c697a6564a2646970667358221220ec12a1ef960c7af598562642bf587e2d1a568da78ed1c7df439d074e306d867d64736f6c634300060c0033",
  "immutableReferences": {},
  "source": "pragma solidity >= 0.5.6;\n\nimport \"./open/utils/Initializable.sol\";\nimport \"./open/utils/Ownable.sol\";\n\n\ncontract Relation is Initializable,Ownable{\n\n    address constant public rootAddress = address(0x000000000000000000000000000000000000dEaD);\n\n    uint public totalAddresses;\n    //上线记录\n    mapping (address => address) public _recommerMapping;\n\n    mapping( address => address[]) firstChilds;\n\n    struct User{\n        uint firstNum;\n        uint teamNum;\n    }\n\n    mapping(address => User) public users;\n\n    constructor() public {}\n\n     function initialize(address owner) public initializer {\n         _owner = owner;\n       _recommerMapping[rootAddress] = address(0xdeaddead);\n    }\n\n    function addRelationEx(address recommer) external returns (bool) {\n\n        require(recommer != msg.sender,\"your_self\");\n\n        require(_recommerMapping[msg.sender] == address(0x0),\"binded\");\n\n        require(recommer == rootAddress || _recommerMapping[recommer] != address(0x0),\"p_not_bind\");\n\n        totalAddresses++;\n\n        _recommerMapping[msg.sender] = recommer;\n\n        firstChilds[recommer].push(msg.sender);\n\n        users[recommer].firstNum += 1;\n        users[recommer].teamNum += 1;\n\n        address p = _recommerMapping[recommer];\n        if( p != rootAddress ){\n             users[p].teamNum += 1;\n        }\n        return true;\n    }\n\n     function getForefathers(address owner,uint num) external view returns(\n         address[] memory fathers,uint[] memory childs){\n\n        fathers = new address[](num);\n        childs = new uint[](num);\n\n        address parent  = owner;\n        for( uint i = 0; i < num; i++){\n            parent = _recommerMapping[parent];\n\n            if( parent == rootAddress || parent == address(0) ) break;\n\n            fathers[i] = parent;\n            childs[i] = firstChilds[parent].length;\n        }\n    }\n\n    function getChilds(uint256 start,uint256 end)external view returns(address[] memory _childs){\n\n        uint len = users[msg.sender].firstNum;\n\n        if( end >= len ) end = len -1;\n\n        if( end >= start ){\n            uint size = end - start + 1;\n\n            _childs = new address[](size);\n\n            address[] storage cs = firstChilds[msg.sender];\n\n            for( (uint i,uint k) = (start,0); i <= end && k < size; (i++,k++)){\n                _childs[k] = cs[i];\n            }\n        }\n    }\n}",
  "sourcePath": "/Users/jie/Desktop/CC/fist/contracts/Relation.sol",
  "compiler": {
    "name": "solc",
    "version": "0.6.12+commit.27d51765.Emscripten.clang"
  },
  "schemaVersion": "3.3.3",
  "updatedAt": "2021-12-18T14:52:14.334Z",
  "networkType": "ethereum",
  "devdoc": {
    "kind": "dev",
    "methods": {
      "owner()": {
        "details": "Returns the address of the current owner."
      },
      "renounceOwnership()": {
        "details": "Leaves the contract without owner. It will not be possible to call `onlyOwner` functions anymore. Can only be called by the current owner. NOTE: Renouncing ownership will leave the contract without an owner, thereby removing any functionality that is only available to the owner."
      },
      "transferOwnership(address)": {
        "details": "Transfers ownership of the contract to a new account (`newOwner`). Can only be called by the current owner."
      }
    },
    "version": 1
  },
  "userdoc": {
    "kind": "user",
    "methods": {},
    "version": 1
  }
}