{
  "contractName": "Release",
  "abi": [
    {
      "inputs": [],
      "stateMutability": "nonpayable",
      "type": "constructor"
    },
    {
      "anonymous": false,
      "inputs": [
        {
          "indexed": true,
          "internalType": "address",
          "name": "previousOwner",
          "type": "address"
        },
        {
          "indexed": true,
          "internalType": "address",
          "name": "newOwner",
          "type": "address"
        }
      ],
      "name": "OwnershipTransferred",
      "type": "event"
    },
    {
      "anonymous": false,
      "inputs": [
        {
          "indexed": true,
          "internalType": "address",
          "name": "owner",
          "type": "address"
        },
        {
          "indexed": false,
          "internalType": "uint256",
          "name": "time",
          "type": "uint256"
        },
        {
          "indexed": false,
          "internalType": "uint256",
          "name": "amount",
          "type": "uint256"
        }
      ],
      "name": "ReleaseEvent",
      "type": "event"
    },
    {
      "inputs": [
        {
          "internalType": "address",
          "name": "tc",
          "type": "address"
        }
      ],
      "name": "KSetDebugTimeController",
      "outputs": [],
      "stateMutability": "nonpayable",
      "type": "function"
    },
    {
      "inputs": [],
      "name": "networkInfo",
      "outputs": [
        {
          "internalType": "uint256",
          "name": "total",
          "type": "uint256"
        },
        {
          "internalType": "uint256",
          "name": "released",
          "type": "uint256"
        },
        {
          "internalType": "uint256",
          "name": "userCount",
          "type": "uint256"
        }
      ],
      "stateMutability": "view",
      "type": "function",
      "constant": true
    },
    {
      "inputs": [],
      "name": "owner",
      "outputs": [
        {
          "internalType": "address",
          "name": "",
          "type": "address"
        }
      ],
      "stateMutability": "view",
      "type": "function",
      "constant": true
    },
    {
      "inputs": [],
      "name": "renounceOwnership",
      "outputs": [],
      "stateMutability": "nonpayable",
      "type": "function"
    },
    {
      "inputs": [],
      "name": "token",
      "outputs": [
        {
          "internalType": "contract IERC20",
          "name": "",
          "type": "address"
        }
      ],
      "stateMutability": "view",
      "type": "function",
      "constant": true
    },
    {
      "inputs": [
        {
          "internalType": "address",
          "name": "newOwner",
          "type": "address"
        }
      ],
      "name": "transferOwnership",
      "outputs": [],
      "stateMutability": "nonpayable",
      "type": "function"
    },
    {
      "inputs": [
        {
          "internalType": "address",
          "name": "_token",
          "type": "address"
        },
        {
          "internalType": "address",
          "name": "_ownerAddress",
          "type": "address"
        }
      ],
      "name": "initialize",
      "outputs": [],
      "stateMutability": "nonpayable",
      "type": "function"
    },
    {
      "inputs": [
        {
          "internalType": "address",
          "name": "_token",
          "type": "address"
        }
      ],
      "name": "setToken",
      "outputs": [],
      "stateMutability": "nonpayable",
      "type": "function"
    },
    {
      "inputs": [
        {
          "internalType": "address",
          "name": "owner",
          "type": "address"
        },
        {
          "internalType": "uint256",
          "name": "_total",
          "type": "uint256"
        },
        {
          "internalType": "uint256",
          "name": "_period",
          "type": "uint256"
        },
        {
          "internalType": "uint256",
          "name": "_periodNum",
          "type": "uint256"
        }
      ],
      "name": "addRelease",
      "outputs": [],
      "stateMutability": "nonpayable",
      "type": "function"
    },
    {
      "inputs": [],
      "name": "getReleaseInfo",
      "outputs": [
        {
          "components": [
            {
              "internalType": "uint256",
              "name": "total",
              "type": "uint256"
            },
            {
              "internalType": "uint256",
              "name": "surplus",
              "type": "uint256"
            },
            {
              "internalType": "uint256",
              "name": "period",
              "type": "uint256"
            },
            {
              "internalType": "uint256",
              "name": "periodRelease",
              "type": "uint256"
            },
            {
              "internalType": "uint256",
              "name": "lastDrawTime",
              "type": "uint256"
            }
          ],
          "internalType": "struct Release.ReleaseInfo[]",
          "name": "",
          "type": "tuple[]"
        }
      ],
      "stateMutability": "view",
      "type": "function",
      "constant": true
    },
    {
      "inputs": [],
      "name": "drawRelease",
      "outputs": [
        {
          "internalType": "uint256",
          "name": "sum",
          "type": "uint256"
        }
      ],
      "stateMutability": "nonpayable",
      "type": "function"
    }
  ],
  "bytecode": "0x608060405234801561001057600080fd5b5061002161001c610026565b61002a565b610085565b3390565b600080546001600160a01b038381166201000081810262010000600160b01b0319851617855560405193049190911692909183917f8be0079c531659141344cd1fd0a4f28419497f9722a3daafe3b4186f6b6457e091a35050565b610c6c806100946000396000f3fe608060405234801561001057600080fd5b50600436106100c95760003560e01c80637391cca211610081578063945b5a5d1161005b578063945b5a5d1461016c578063f2fde38b14610183578063fc0c546a14610196576100c9565b80637391cca214610131578063739d50b5146101445780638da5cb5b14610157576100c9565b8063485cc955116100b2578063485cc95514610101578063518381f814610114578063715018a614610129576100c9565b8063144fa6d7146100ce57806327ffb9a2146100e3575b600080fd5b6100e16100dc366004610975565b61019e565b005b6100eb610215565b6040516100f89190610a75565b60405180910390f35b6100e161010f366004610997565b6102b2565b61011c6103ab565b6040516100f89190610c09565b6100e1610502565b6100e161013f366004610975565b61054d565b6100e16101523660046109cb565b6105bb565b61015f610701565b6040516100f89190610a48565b610174610716565b6040516100f893929190610c20565b6100e1610191366004610975565b610722565b61015f610793565b6101a66107a2565b6001600160a01b03166101b7610701565b6001600160a01b0316146101e65760405162461bcd60e51b81526004016101dd90610bd4565b60405180910390fd5b6002805473ffffffffffffffffffffffffffffffffffffffff19166001600160a01b0392909216919091179055565b336000908152600660209081526040808320805482518185028101850190935280835260609492939192909184015b828210156102a857838290600052602060002090600502016040518060a00160405290816000820154815260200160018201548152602001600282015481526020016003820154815260200160048201548152505081526020019060010190610244565b5050505090505b90565b600054610100900460ff16806102cb575060005460ff16155b6102e75760405162461bcd60e51b81526004016101dd90610b77565b600054610100900460ff1615801561033057600080547fffffffffffffffffffffffffffffffffffffffffffffffffffffffffffffff0061ff0019909116610100171660011790555b6002805473ffffffffffffffffffffffffffffffffffffffff19166001600160a01b0385811691909117909155600080547fffffffffffffffffffff0000000000000000000000000000000000000000ffff16620100009285169290920291909117905580156103a6576000805461ff00191690555b505050565b3360009081526006602052604081208054806103cc576000925050506102af565b60006103d66107a6565b905060005b82811015610412576104068482815481106103f257fe5b9060005260206000209060050201836107c6565b909401936001016103db565b5083156104fc576002546040517fa9059cbb0000000000000000000000000000000000000000000000000000000081526001600160a01b039091169063a9059cbb906104649033908890600401610a5c565b602060405180830381600087803b15801561047e57600080fd5b505af1158015610492573d6000803e3d6000fd5b505050506040513d601f19601f820116820180604052508101906104b69190610a10565b50600480548501905560405133907fdfab12daaf3695314acb554e1cf71cba9674f1905078501d709317265aa8bea6906104f39042908890610c12565b60405180910390a25b50505090565b61050a6107a2565b6001600160a01b031661051b610701565b6001600160a01b0316146105415760405162461bcd60e51b81526004016101dd90610bd4565b61054b600061083f565b565b6105556107a2565b6001600160a01b0316610566610701565b6001600160a01b03161461058c5760405162461bcd60e51b81526004016101dd90610bd4565b6001805473ffffffffffffffffffffffffffffffffffffffff19166001600160a01b0392909216919091179055565b6105c36107a2565b6001600160a01b03166105d4610701565b6001600160a01b0316146105fa5760405162461bcd60e51b81526004016101dd90610bd4565b6001600160a01b038416600090815260066020526040902054600181106106335760405162461bcd60e51b81526004016101dd90610b40565b600082858161063e57fe5b04905060066000876001600160a01b03166001600160a01b031681526020019081526020016000206040518060a001604052808781526020018781526020018681526020018381526020016106916107a6565b9052815460018181018455600093845260209384902083516005909302019182559282015192810192909255604081015160028301556060810151600380840191909155608090910151600490920191909155805486019055816106f9576005805460010190555b505050505050565b6000546201000090046001600160a01b031690565b60035460045460055483565b61072a6107a2565b6001600160a01b031661073b610701565b6001600160a01b0316146107615760405162461bcd60e51b81526004016101dd90610bd4565b6001600160a01b0381166107875760405162461bcd60e51b81526004016101dd90610ae3565b6107908161083f565b50565b6002546001600160a01b031681565b3390565b6000620151806107b46108b0565b816107bb57fe5b046201518002905090565b6004820154600090808311156108385760008460020154828503816107e757fe5b0490508015610836576002850154600486018054918302909101905560018501541561083657846003015481029250846001015483111561082a57846001015492505b60018501805484900390555b505b5092915050565b600080546001600160a01b03838116620100008181027fffffffffffffffffffff0000000000000000000000000000000000000000ffff851617855560405193049190911692909183917f8be0079c531659141344cd1fd0a4f28419497f9722a3daafe3b4186f6b6457e091a35050565b6001546000906001600160a01b03161561095157600160009054906101000a90046001600160a01b03166001600160a01b0316635ce845a96040518163ffffffff1660e01b815260040160206040518083038186803b15801561091257600080fd5b505afa158015610926573d6000803e3d6000fd5b505050506040513d601f19601f8201168201806040525081019061094a9190610a30565b90506102af565b50426102af565b80356001600160a01b038116811461096f57600080fd5b92915050565b600060208284031215610986578081fd5b6109908383610958565b9392505050565b600080604083850312156109a9578081fd5b6109b38484610958565b91506109c28460208501610958565b90509250929050565b600080600080608085870312156109e0578182fd5b84356001600160a01b03811681146109f6578283fd5b966020860135965060408601359560600135945092505050565b600060208284031215610a21578081fd5b81518015158114610990578182fd5b600060208284031215610a41578081fd5b5051919050565b6001600160a01b0391909116815260200190565b6001600160a01b03929092168252602082015260400190565b602080825282518282018190526000919060409081850190868401855b82811015610ad65781518051855286810151878601528581015186860152606080820151908601526080908101519085015260a09093019290850190600101610a92565b5091979650505050505050565b60208082526026908201527f4f776e61626c653a206e6577206f776e657220697320746865207a65726f206160408201527f6464726573730000000000000000000000000000000000000000000000000000606082015260800190565b6020808252600c908201527f657863656564206c696d69740000000000000000000000000000000000000000604082015260600190565b6020808252602e908201527f496e697469616c697a61626c653a20636f6e747261637420697320616c72656160408201527f647920696e697469616c697a6564000000000000000000000000000000000000606082015260800190565b6020808252818101527f4f776e61626c653a2063616c6c6572206973206e6f7420746865206f776e6572604082015260600190565b90815260200190565b918252602082015260400190565b928352602083019190915260408201526060019056fea2646970667358221220c07bb1cffddf8248f7d9a8e14b24c9562d96433b1bb47feb2b227761b8a7970564736f6c634300060c0033",
  "immutableReferences": {},
  "source": "pragma solidity >=0.5.0;\n// SPDX-License-Identifier: Unlicensed\npragma experimental ABIEncoderV2;\n\nimport './open/token/ERC20/IERC20.sol';\nimport \"./open/utils/Initializable.sol\";\nimport \"./open/utils/Ownable.sol\";\nimport \"./open/utils/Time.sol\";\n\n\ncontract Release is Initializable,Ownable,Time {\n\n    IERC20 public token;\n\n    struct ReleaseInfo{\n        uint total;             //释放总量\n        uint surplus;           //剩余释放量\n        uint period;            //释放周期\n        uint periodRelease;     //每周期释放量\n        uint lastDrawTime;      //上次结算时间\n    }\n\n    struct Network{\n        uint total;             //总私募量\n        uint released;          //总释放放\n        uint userCount;         //总人数\n    }\n\n    Network public networkInfo;\n\n    mapping( address => ReleaseInfo[]) userReleaseInfos;\n\n    event ReleaseEvent(address indexed owner,uint time,uint amount );\n\n    constructor () public {}\n\n     function initialize(\n        address _token,\n        address _ownerAddress\n    ) public initializer {\n        token = IERC20(_token);\n        _owner = _ownerAddress;\n    }\n\n    function setToken(address _token) external onlyOwner{\n        token = IERC20(_token);\n    }\n\n    function addRelease(address owner,uint _total,uint _period,uint _periodNum)external onlyOwner{\n\n        uint len = userReleaseInfos[owner].length;\n\n        require(len < 1,\"exceed limit\");\n\n        uint _periodRelease = _total / _periodNum;\n\n        userReleaseInfos[owner].push( ReleaseInfo(\n            _total,\n            _total,\n            _period,\n            _periodRelease,\n            timestempZero()\n        ));\n\n        networkInfo.total += _total;\n\n        if( len == 0 ){\n            networkInfo.userCount ++;\n        }\n    }\n\n    function getReleaseInfo()external view returns(ReleaseInfo[] memory){\n        return userReleaseInfos[msg.sender];\n    }\n\n    function drawRelease()external returns(uint sum){\n\n        ReleaseInfo[] storage infos = userReleaseInfos[msg.sender];\n\n        uint len = infos.length;\n\n        if( len == 0) return 0;\n\n        uint time = timestempZero();\n\n        for( uint i = 0; i < len; i ++ ){\n            sum += doDrawRelease(infos[i],time);\n        }\n\n        if( sum > 0 ){\n            token.transfer(msg.sender, sum);\n\n            networkInfo.released += sum;\n            emit ReleaseEvent(msg.sender,block.timestamp,sum);\n        }\n    }\n   \n\n    function doDrawRelease(ReleaseInfo storage info,uint time)internal returns(uint v){\n\n        uint lastDrawTime = info.lastDrawTime;\n\n        if( time > lastDrawTime ){\n\n            uint num = (time - lastDrawTime) / info.period;\n\n            if( num > 0 ){\n\n                info.lastDrawTime += num * info.period;\n\n                if( info.surplus > 0 ){\n                    v = num * info.periodRelease;\n\n                    if( v > info.surplus ) v = info.surplus;\n\n                    info.surplus -= v;\n                }\n            }\n        }\n    }\n}",
  "sourcePath": "/Users/jie/Desktop/CC/fist/base/contracts/Release.sol",
  "compiler": {
    "name": "solc",
    "version": "0.6.12+commit.27d51765.Emscripten.clang"
  },
  "schemaVersion": "3.4.4",
  "updatedAt": "2022-01-17T08:25:56.503Z",
  "networkType": "ethereum",
  "devdoc": {
    "kind": "dev",
    "methods": {
      "owner()": {
        "details": "Returns the address of the current owner."
      },
      "renounceOwnership()": {
        "details": "Leaves the contract without owner. It will not be possible to call `onlyOwner` functions anymore. Can only be called by the current owner. NOTE: Renouncing ownership will leave the contract without an owner, thereby removing any functionality that is only available to the owner."
      },
      "transferOwnership(address)": {
        "details": "Transfers ownership of the contract to a new account (`newOwner`). Can only be called by the current owner."
      }
    },
    "version": 1
  },
  "userdoc": {
    "kind": "user",
    "methods": {},
    "version": 1
  }
}